{
    "_format": "hh-sol-artifact-1",
    "contractName": "Property",
    "sourceName": "contracts/PropertyNFT.sol",
    "abi": [
        {
            "inputs": [],
            "stateMutability": "nonpayable",
            "type": "constructor"
        },
        {
            "anonymous": false,
            "inputs": [
                {
                    "components": [
                        {
                            "internalType": "string",
                            "name": "name",
                            "type": "string"
                        },
                        {
                            "internalType": "address",
                            "name": "_lister",
                            "type": "address"
                        },
                        {
                            "internalType": "uint256",
                            "name": "_amount",
                            "type": "uint256"
                        },
                        {
                            "internalType": "uint256",
                            "name": "_time",
                            "type": "uint256"
                        },
                        {
                            "internalType": "string",
                            "name": "_location",
                            "type": "string"
                        },
                        {
                            "internalType": "uint256",
                            "name": "_id",
                            "type": "uint256"
                        }
                    ],
                    "indexed": false,
                    "internalType": "struct Property.ListedProps[]",
                    "name": "_a",
                    "type": "tuple[]"
                }
            ],
            "name": "AllProperties",
            "type": "event"
        },
        {
            "anonymous": false,
            "inputs": [
                {
                    "indexed": true,
                    "internalType": "address",
                    "name": "owner",
                    "type": "address"
                },
                {
                    "indexed": true,
                    "internalType": "address",
                    "name": "approved",
                    "type": "address"
                },
                {
                    "indexed": true,
                    "internalType": "uint256",
                    "name": "tokenId",
                    "type": "uint256"
                }
            ],
            "name": "Approval",
            "type": "event"
        },
        {
            "anonymous": false,
            "inputs": [
                {
                    "indexed": true,
                    "internalType": "address",
                    "name": "owner",
                    "type": "address"
                },
                {
                    "indexed": true,
                    "internalType": "address",
                    "name": "operator",
                    "type": "address"
                },
                {
                    "indexed": false,
                    "internalType": "bool",
                    "name": "approved",
                    "type": "bool"
                }
            ],
            "name": "ApprovalForAll",
            "type": "event"
        },
        {
            "anonymous": false,
            "inputs": [
                {
                    "indexed": false,
                    "internalType": "string",
                    "name": "name",
                    "type": "string"
                },
                {
                    "indexed": false,
                    "internalType": "string",
                    "name": "location",
                    "type": "string"
                },
                {
                    "indexed": false,
                    "internalType": "string",
                    "name": "tokenURL",
                    "type": "string"
                }
            ],
            "name": "Listed",
            "type": "event"
        },
        {
            "anonymous": false,
            "inputs": [
                {
                    "indexed": false,
                    "internalType": "bool",
                    "name": "submitted",
                    "type": "bool"
                }
            ],
            "name": "Submitted",
            "type": "event"
        },
        {
            "anonymous": false,
            "inputs": [
                {
                    "indexed": true,
                    "internalType": "address",
                    "name": "from",
                    "type": "address"
                },
                {
                    "indexed": true,
                    "internalType": "address",
                    "name": "to",
                    "type": "address"
                },
                {
                    "indexed": true,
                    "internalType": "uint256",
                    "name": "tokenId",
                    "type": "uint256"
                }
            ],
            "name": "Transfer",
            "type": "event"
        },
        {
            "inputs": [
                {
                    "internalType": "address",
                    "name": "",
                    "type": "address"
                },
                {
                    "internalType": "uint256",
                    "name": "",
                    "type": "uint256"
                }
            ],
            "name": "allListedPerAddress",
            "outputs": [
                {
                    "internalType": "string",
                    "name": "name",
                    "type": "string"
                },
                {
                    "internalType": "address",
                    "name": "_lister",
                    "type": "address"
                },
                {
                    "internalType": "uint256",
                    "name": "_amount",
                    "type": "uint256"
                },
                {
                    "internalType": "uint256",
                    "name": "_time",
                    "type": "uint256"
                },
                {
                    "internalType": "string",
                    "name": "_location",
                    "type": "string"
                },
                {
                    "internalType": "uint256",
                    "name": "_id",
                    "type": "uint256"
                }
            ],
            "stateMutability": "view",
            "type": "function"
        },
        {
            "inputs": [
                {
                    "internalType": "uint256",
                    "name": "",
                    "type": "uint256"
                }
            ],
            "name": "allListedProperties",
            "outputs": [
                {
                    "internalType": "string",
                    "name": "name",
                    "type": "string"
                },
                {
                    "internalType": "address",
                    "name": "_lister",
                    "type": "address"
                },
                {
                    "internalType": "uint256",
                    "name": "_amount",
                    "type": "uint256"
                },
                {
                    "internalType": "uint256",
                    "name": "_time",
                    "type": "uint256"
                },
                {
                    "internalType": "string",
                    "name": "_location",
                    "type": "string"
                },
                {
                    "internalType": "uint256",
                    "name": "_id",
                    "type": "uint256"
                }
            ],
            "stateMutability": "view",
            "type": "function"
        },
        {
            "inputs": [
                {
                    "internalType": "address",
                    "name": "",
                    "type": "address"
                },
                {
                    "internalType": "uint256",
                    "name": "",
                    "type": "uint256"
                }
            ],
            "name": "allListingsPerAddress",
            "outputs": [
                {
                    "internalType": "string",
                    "name": "name",
                    "type": "string"
                },
                {
                    "internalType": "address",
                    "name": "_lister",
                    "type": "address"
                },
                {
                    "internalType": "uint256",
                    "name": "_amount",
                    "type": "uint256"
                },
                {
                    "internalType": "uint256",
                    "name": "_time",
                    "type": "uint256"
                },
                {
                    "internalType": "string",
                    "name": "_location",
                    "type": "string"
                }
            ],
            "stateMutability": "view",
            "type": "function"
        },
        {
            "inputs": [
                {
                    "internalType": "address",
                    "name": "to",
                    "type": "address"
                },
                {
                    "internalType": "uint256",
                    "name": "tokenId",
                    "type": "uint256"
                }
            ],
            "name": "approve",
            "outputs": [],
            "stateMutability": "nonpayable",
            "type": "function"
        },
        {
            "inputs": [
                {
                    "internalType": "string",
                    "name": "symbol",
                    "type": "string"
                },
                {
                    "internalType": "address",
                    "name": "tokenAddress",
                    "type": "address"
                }
            ],
            "name": "availableTokens",
            "outputs": [],
            "stateMutability": "nonpayable",
            "type": "function"
        },
        {
            "inputs": [
                {
                    "internalType": "address",
                    "name": "owner",
                    "type": "address"
                }
            ],
            "name": "balanceOf",
            "outputs": [
                {
                    "internalType": "uint256",
                    "name": "",
                    "type": "uint256"
                }
            ],
            "stateMutability": "view",
            "type": "function"
        },
        {
            "inputs": [
                {
                    "internalType": "string",
                    "name": "symbol",
                    "type": "string"
                }
            ],
            "name": "contractBalance",
            "outputs": [
                {
                    "internalType": "uint256",
                    "name": "",
                    "type": "uint256"
                }
            ],
            "stateMutability": "view",
            "type": "function"
        },
        {
            "inputs": [],
            "name": "getAllProperties",
            "outputs": [
                {
                    "internalType": "string[]",
                    "name": "",
                    "type": "string[]"
                },
                {
                    "internalType": "address[]",
                    "name": "",
                    "type": "address[]"
                },
                {
                    "internalType": "uint256[]",
                    "name": "",
                    "type": "uint256[]"
                },
                {
                    "internalType": "uint256[]",
                    "name": "",
                    "type": "uint256[]"
                },
                {
                    "internalType": "string[]",
                    "name": "",
                    "type": "string[]"
                },
                {
                    "internalType": "uint256[]",
                    "name": "",
                    "type": "uint256[]"
                }
            ],
            "stateMutability": "view",
            "type": "function"
        },
        {
            "inputs": [
                {
                    "internalType": "uint256",
                    "name": "tokenId",
                    "type": "uint256"
                }
            ],
            "name": "getApproved",
            "outputs": [
                {
                    "internalType": "address",
                    "name": "",
                    "type": "address"
                }
            ],
            "stateMutability": "view",
            "type": "function"
        },
        {
            "inputs": [],
            "name": "getUserProperties",
            "outputs": [
                {
                    "internalType": "string[]",
                    "name": "",
                    "type": "string[]"
                },
                {
                    "internalType": "address[]",
                    "name": "",
                    "type": "address[]"
                },
                {
                    "internalType": "uint256[]",
                    "name": "",
                    "type": "uint256[]"
                },
                {
                    "internalType": "uint256[]",
                    "name": "",
                    "type": "uint256[]"
                },
                {
                    "internalType": "string[]",
                    "name": "",
                    "type": "string[]"
                },
                {
                    "internalType": "uint256[]",
                    "name": "",
                    "type": "uint256[]"
                }
            ],
            "stateMutability": "view",
            "type": "function"
        },
        {
            "inputs": [
                {
                    "internalType": "address",
                    "name": "owner",
                    "type": "address"
                },
                {
                    "internalType": "address",
                    "name": "operator",
                    "type": "address"
                }
            ],
            "name": "isApprovedForAll",
            "outputs": [
                {
                    "internalType": "bool",
                    "name": "",
                    "type": "bool"
                }
            ],
            "stateMutability": "view",
            "type": "function"
        },
        {
            "inputs": [
                {
                    "internalType": "string",
                    "name": "name",
                    "type": "string"
                },
                {
                    "internalType": "uint256",
                    "name": "_amount",
                    "type": "uint256"
                },
                {
                    "internalType": "string",
                    "name": "_location",
                    "type": "string"
                },
                {
                    "internalType": "string",
                    "name": "symbol",
                    "type": "string"
                }
            ],
            "name": "listProperty",
            "outputs": [
                {
                    "internalType": "bool",
                    "name": "",
                    "type": "bool"
                }
            ],
            "stateMutability": "nonpayable",
            "type": "function"
        },
        {
            "inputs": [
                {
                    "internalType": "address",
                    "name": "",
                    "type": "address"
                }
            ],
            "name": "listed",
            "outputs": [
                {
                    "internalType": "string",
                    "name": "name",
                    "type": "string"
                },
                {
                    "internalType": "address",
                    "name": "_lister",
                    "type": "address"
                },
                {
                    "internalType": "uint256",
                    "name": "_amount",
                    "type": "uint256"
                },
                {
                    "internalType": "uint256",
                    "name": "_time",
                    "type": "uint256"
                },
                {
                    "internalType": "string",
                    "name": "_location",
                    "type": "string"
                },
                {
                    "internalType": "uint256",
                    "name": "_id",
                    "type": "uint256"
                }
            ],
            "stateMutability": "view",
            "type": "function"
        },
        {
            "inputs": [
                {
                    "internalType": "address",
                    "name": "",
                    "type": "address"
                }
            ],
            "name": "listings",
            "outputs": [
                {
                    "internalType": "string",
                    "name": "name",
                    "type": "string"
                },
                {
                    "internalType": "address",
                    "name": "_lister",
                    "type": "address"
                },
                {
                    "internalType": "uint256",
                    "name": "_amount",
                    "type": "uint256"
                },
                {
                    "internalType": "uint256",
                    "name": "_time",
                    "type": "uint256"
                },
                {
                    "internalType": "string",
                    "name": "_location",
                    "type": "string"
                }
            ],
            "stateMutability": "view",
            "type": "function"
        },
        {
            "inputs": [
                {
                    "internalType": "string",
                    "name": "_tokenURI",
                    "type": "string"
                },
                {
                    "internalType": "string",
                    "name": "_name",
                    "type": "string"
                }
            ],
            "name": "mintNFT",
            "outputs": [
                {
                    "internalType": "uint256",
                    "name": "",
                    "type": "uint256"
                }
            ],
            "stateMutability": "nonpayable",
            "type": "function"
        },
        {
            "inputs": [],
            "name": "name",
            "outputs": [
                {
                    "internalType": "string",
                    "name": "",
                    "type": "string"
                }
            ],
            "stateMutability": "view",
            "type": "function"
        },
        {
            "inputs": [
                {
                    "internalType": "uint256",
                    "name": "tokenId",
                    "type": "uint256"
                }
            ],
            "name": "ownerOf",
            "outputs": [
                {
                    "internalType": "address",
                    "name": "",
                    "type": "address"
                }
            ],
            "stateMutability": "view",
            "type": "function"
        },
        {
            "inputs": [
                {
                    "internalType": "address",
                    "name": "",
                    "type": "address"
                }
            ],
            "name": "propertyID",
            "outputs": [
                {
                    "internalType": "uint256",
                    "name": "",
                    "type": "uint256"
                }
            ],
            "stateMutability": "view",
            "type": "function"
        },
        {
            "inputs": [
                {
                    "internalType": "address",
                    "name": "from",
                    "type": "address"
                },
                {
                    "internalType": "address",
                    "name": "to",
                    "type": "address"
                },
                {
                    "internalType": "uint256",
                    "name": "tokenId",
                    "type": "uint256"
                }
            ],
            "name": "safeTransferFrom",
            "outputs": [],
            "stateMutability": "nonpayable",
            "type": "function"
        },
        {
            "inputs": [
                {
                    "internalType": "address",
                    "name": "from",
                    "type": "address"
                },
                {
                    "internalType": "address",
                    "name": "to",
                    "type": "address"
                },
                {
                    "internalType": "uint256",
                    "name": "tokenId",
                    "type": "uint256"
                },
                {
                    "internalType": "bytes",
                    "name": "data",
                    "type": "bytes"
                }
            ],
            "name": "safeTransferFrom",
            "outputs": [],
            "stateMutability": "nonpayable",
            "type": "function"
        },
        {
            "inputs": [
                {
                    "internalType": "address",
                    "name": "operator",
                    "type": "address"
                },
                {
                    "internalType": "bool",
                    "name": "approved",
                    "type": "bool"
                }
            ],
            "name": "setApprovalForAll",
            "outputs": [],
            "stateMutability": "nonpayable",
            "type": "function"
        },
        {
            "inputs": [
                {
                    "internalType": "bytes4",
                    "name": "interfaceId",
                    "type": "bytes4"
                }
            ],
            "name": "supportsInterface",
            "outputs": [
                {
                    "internalType": "bool",
                    "name": "",
                    "type": "bool"
                }
            ],
            "stateMutability": "view",
            "type": "function"
        },
        {
            "inputs": [],
            "name": "symbol",
            "outputs": [
                {
                    "internalType": "string",
                    "name": "",
                    "type": "string"
                }
            ],
            "stateMutability": "view",
            "type": "function"
        },
        {
            "inputs": [
                {
                    "internalType": "uint256",
                    "name": "_tokenId",
                    "type": "uint256"
                }
            ],
            "name": "tokenURI",
            "outputs": [
                {
                    "internalType": "string",
                    "name": "",
                    "type": "string"
                }
            ],
            "stateMutability": "view",
            "type": "function"
        },
        {
            "inputs": [],
            "name": "tokensMinted",
            "outputs": [
                {
                    "internalType": "uint256",
                    "name": "",
                    "type": "uint256"
                }
            ],
            "stateMutability": "view",
            "type": "function"
        },
        {
            "inputs": [
                {
                    "internalType": "address",
                    "name": "from",
                    "type": "address"
                },
                {
                    "internalType": "address",
                    "name": "to",
                    "type": "address"
                },
                {
                    "internalType": "uint256",
                    "name": "tokenId",
                    "type": "uint256"
                }
            ],
            "name": "transferFrom",
            "outputs": [],
            "stateMutability": "nonpayable",
            "type": "function"
        },
        {
            "inputs": [
                {
                    "internalType": "string",
                    "name": "symbol",
                    "type": "string"
                }
            ],
            "name": "userBalance",
            "outputs": [
                {
                    "internalType": "uint256",
                    "name": "",
                    "type": "uint256"
                }
            ],
            "stateMutability": "view",
            "type": "function"
        }
    ],
    "bytecode": "0x60806040523480156200001157600080fd5b506040518060400160405280600681526020017f50726f70465400000000000000000000000000000000000000000000000000008152506040518060400160405280600381526020017f5052500000000000000000000000000000000000000000000000000000000000815250816000908051906020019062000096929190620000f9565b508060019080519060200190620000af929190620000f9565b50505033601260006101000a81548173ffffffffffffffffffffffffffffffffffffffff021916908373ffffffffffffffffffffffffffffffffffffffff1602179055506200020e565b8280546200010790620001a9565b90600052602060002090601f0160209004810192826200012b576000855562000177565b82601f106200014657805160ff191683800117855562000177565b8280016001018555821562000177579182015b828111156200017657825182559160200191906001019062000159565b5b5090506200018691906200018a565b5090565b5b80821115620001a55760008160009055506001016200018b565b5090565b60006002820490506001821680620001c257607f821691505b60208210811415620001d957620001d8620001df565b5b50919050565b7f4e487b7100000000000000000000000000000000000000000000000000000000600052602260045260246000fd5b615fd4806200021e6000396000f3fe608060405234801561001057600080fd5b50600436106101a95760003560e01c80636352211e116100f957806397e82b9f11610097578063c87b56dd11610071578063c87b56dd1461054d578063e96055441461057d578063e985e9c5146105ad578063ffb1500e146105dd576101a9565b806397e82b9f146104e0578063a22cb46514610515578063b88d4fde14610531576101a9565b80636de9f32b116100d35780636de9f32b1461044457806370a082311461046257806377c2f29b1461049257806395d89b41146104c2576101a9565b80636352211e146103ab57806364138230146103db57806365d96c8214610410576101a9565b80633d51402c1161016657806344d238261161014057806344d23826146103035780634562e30e1461031f5780634e5a2407146103545780635d09be6014610388576101a9565b80633d51402c1461029457806342842e0e146102b757806343cf8f40146102d3576101a9565b806301ffc9a7146101ae57806306fdde03146101de578063081812fc146101fc578063095ea7b31461022c5780631536aedd1461024857806323b872dd14610278575b600080fd5b6101c860048036038101906101c39190614942565b61060d565b6040516101d591906152d3565b60405180910390f35b6101e66106ef565b6040516101f391906152ee565b60405180910390f35b61021660048036038101906102119190614b7c565b610781565b60405161022391906151aa565b60405180910390f35b610246600480360381019061024191906148d5565b6107c7565b005b610262600480360381019061025d9190614a5f565b6108df565b60405161026f919061562c565b60405180910390f35b610292600480360381019061028d91906147bf565b6109af565b005b61029c610a0f565b6040516102ae96959493929190615248565b60405180910390f35b6102d160048036038101906102cc91906147bf565b610f1e565b005b6102ed60048036038101906102e8919061499c565b610f3e565b6040516102fa91906152d3565b60405180910390f35b61031d60048036038101906103189190614aa8565b6114a4565b005b610339600480360381019061033491906148d5565b6115cc565b60405161034b96959493929190615371565b60405180910390f35b61036e600480360381019061036991906148d5565b611755565b60405161037f959493929190615310565b60405180910390f35b6103906118d8565b6040516103a296959493929190615248565b60405180910390f35b6103c560048036038101906103c09190614b7c565b611fcf565b6040516103d291906151aa565b60405180910390f35b6103f560048036038101906103f09190614752565b612081565b60405161040796959493929190615371565b60405180910390f35b61042a60048036038101906104259190614752565b6121ed565b60405161043b959493929190615310565b60405180910390f35b61044c612353565b604051610459919061562c565b60405180910390f35b61047c60048036038101906104779190614752565b612364565b604051610489919061562c565b60405180910390f35b6104ac60048036038101906104a79190614752565b61241c565b6040516104b9919061562c565b60405180910390f35b6104ca612434565b6040516104d791906152ee565b60405180910390f35b6104fa60048036038101906104f59190614b7c565b6124c6565b60405161050c96959493929190615371565b60405180910390f35b61052f600480360381019061052a9190614895565b612642565b005b61054b60048036038101906105469190614812565b612658565b005b61056760048036038101906105629190614b7c565b6126ba565b60405161057491906152ee565b60405180910390f35b61059760048036038101906105929190614b04565b6126cc565b6040516105a4919061562c565b60405180910390f35b6105c760048036038101906105c2919061477f565b613539565b6040516105d491906152d3565b60405180910390f35b6105f760048036038101906105f29190614a5f565b6135cd565b604051610604919061562c565b60405180910390f35b60007f80ac58cd000000000000000000000000000000000000000000000000000000007bffffffffffffffffffffffffffffffffffffffffffffffffffffffff1916827bffffffffffffffffffffffffffffffffffffffffffffffffffffffff191614806106d857507f5b5e139f000000000000000000000000000000000000000000000000000000007bffffffffffffffffffffffffffffffffffffffffffffffffffffffff1916827bffffffffffffffffffffffffffffffffffffffffffffffffffffffff1916145b806106e857506106e78261369d565b5b9050919050565b6060600080546106fe90615965565b80601f016020809104026020016040519081016040528092919081815260200182805461072a90615965565b80156107775780601f1061074c57610100808354040283529160200191610777565b820191906000526020600020905b81548152906001019060200180831161075a57829003601f168201915b5050505050905090565b600061078c82613707565b6004600083815260200190815260200160002060009054906101000a900473ffffffffffffffffffffffffffffffffffffffff169050919050565b60006107d282611fcf565b90508073ffffffffffffffffffffffffffffffffffffffff168373ffffffffffffffffffffffffffffffffffffffff161415610843576040517f08c379a000000000000000000000000000000000000000000000000000000000815260040161083a906155ec565b60405180910390fd5b8073ffffffffffffffffffffffffffffffffffffffff16610862613752565b73ffffffffffffffffffffffffffffffffffffffff16148061089157506108908161088b613752565b613539565b5b6108d0576040517f08c379a00000000000000000000000000000000000000000000000000000000081526004016108c79061558c565b60405180910390fd5b6108da838361375a565b505050565b60006010826040516108f1919061516f565b908152602001604051809103902060009054906101000a900473ffffffffffffffffffffffffffffffffffffffff1673ffffffffffffffffffffffffffffffffffffffff166370a08231336040518263ffffffff1660e01b815260040161095891906151aa565b60206040518083038186803b15801561097057600080fd5b505afa158015610984573d6000803e3d6000fd5b505050506040513d601f19601f820116820180604052508101906109a89190614ba9565b9050919050565b6109c06109ba613752565b82613813565b6109ff576040517f08c379a00000000000000000000000000000000000000000000000000000000081526004016109f69061560c565b60405180910390fd5b610a0a8383836138a8565b505050565b6060806060806060806000600d8054905067ffffffffffffffff811115610a3957610a38615afe565b5b604051908082528060200260200182016040528015610a6c57816020015b6060815260200190600190039081610a575790505b5090506000600d8054905067ffffffffffffffff811115610a9057610a8f615afe565b5b604051908082528060200260200182016040528015610abe5781602001602082028036833780820191505090505b5090506000600d8054905067ffffffffffffffff811115610ae257610ae1615afe565b5b604051908082528060200260200182016040528015610b105781602001602082028036833780820191505090505b5090506000600d8054905067ffffffffffffffff811115610b3457610b33615afe565b5b604051908082528060200260200182016040528015610b625781602001602082028036833780820191505090505b5090506000600d8054905067ffffffffffffffff811115610b8657610b85615afe565b5b604051908082528060200260200182016040528015610bb957816020015b6060815260200190600190039081610ba45790505b5090506000600d8054905067ffffffffffffffff811115610bdd57610bdc615afe565b5b604051908082528060200260200182016040528015610c0b5781602001602082028036833780820191505090505b50905060005b600d80549050811015610efd576000600d8281548110610c3457610c33615acf565b5b90600052602060002090600602016040518060c0016040529081600082018054610c5d90615965565b80601f0160208091040260200160405190810160405280929190818152602001828054610c8990615965565b8015610cd65780601f10610cab57610100808354040283529160200191610cd6565b820191906000526020600020905b815481529060010190602001808311610cb957829003601f168201915b505050505081526020016001820160009054906101000a900473ffffffffffffffffffffffffffffffffffffffff1673ffffffffffffffffffffffffffffffffffffffff1673ffffffffffffffffffffffffffffffffffffffff1681526020016002820154815260200160038201548152602001600482018054610d5990615965565b80601f0160208091040260200160405190810160405280929190818152602001828054610d8590615965565b8015610dd25780601f10610da757610100808354040283529160200191610dd2565b820191906000526020600020905b815481529060010190602001808311610db557829003601f168201915b5050505050815260200160058201548152505090508060000151888381518110610dff57610dfe615acf565b5b60200260200101819052508060200151878381518110610e2257610e21615acf565b5b602002602001019073ffffffffffffffffffffffffffffffffffffffff16908173ffffffffffffffffffffffffffffffffffffffff16815250508060400151868381518110610e7457610e73615acf565b5b6020026020010181815250508060600151858381518110610e9857610e97615acf565b5b6020026020010181815250508060800151848381518110610ebc57610ebb615acf565b5b60200260200101819052508060a00151838381518110610edf57610ede615acf565b5b6020026020010181815250505080610ef6906159c8565b9050610c11565b508585858585859b509b509b509b509b509b50505050505050909192939495565b610f3983838360405180602001604052806000815250612658565b505050565b600060011515601183604051610f54919061516f565b908152602001604051809103902060009054906101000a900460ff16151514610fb2576040517f08c379a0000000000000000000000000000000000000000000000000000000008152600401610fa9906154cc565b60405180910390fd5b601082604051610fc2919061516f565b908152602001604051809103902060009054906101000a900473ffffffffffffffffffffffffffffffffffffffff1673ffffffffffffffffffffffffffffffffffffffff166323b872dd33306706f05b59d3b200006040518463ffffffff1660e01b8152600401611035939291906151c5565b602060405180830381600087803b15801561104f57600080fd5b505af1158015611063573d6000803e3d6000fd5b505050506040513d601f19601f820116820180604052508101906110879190614915565b506001600e60003373ffffffffffffffffffffffffffffffffffffffff1673ffffffffffffffffffffffffffffffffffffffff16815260200190815260200160002088886040516110d9929190615156565b908152602001604051809103902060006101000a81548160ff0219169083151502179055506040518060a0016040528088888080601f016020809104026020016040519081016040528093929190818152602001838380828437600081840152601f19601f8201169050808301925050505050505081526020013373ffffffffffffffffffffffffffffffffffffffff16815260200186815260200142815260200185858080601f016020809104026020016040519081016040528093929190818152602001838380828437600081840152601f19601f82011690508083019250505050505050815250600960003373ffffffffffffffffffffffffffffffffffffffff1673ffffffffffffffffffffffffffffffffffffffff168152602001908152602001600020600082015181600001908051906020019061121e9291906144e6565b5060208201518160010160006101000a81548173ffffffffffffffffffffffffffffffffffffffff021916908373ffffffffffffffffffffffffffffffffffffffff160217905550604082015181600201556060820151816003015560808201518160040190805190602001906112969291906144e6565b50905050600a60003373ffffffffffffffffffffffffffffffffffffffff1673ffffffffffffffffffffffffffffffffffffffff1681526020019081526020016000206040518060a0016040528089898080601f016020809104026020016040519081016040528093929190818152602001838380828437600081840152601f19601f8201169050808301925050505050505081526020013373ffffffffffffffffffffffffffffffffffffffff16815260200187815260200142815260200186868080601f016020809104026020016040519081016040528093929190818152602001838380828437600081840152601f19601f82011690508083019250505050505050815250908060018154018082558091505060019003906000526020600020906005020160009091909190915060008201518160000190805190602001906113e39291906144e6565b5060208201518160010160006101000a81548173ffffffffffffffffffffffffffffffffffffffff021916908373ffffffffffffffffffffffffffffffffffffffff1602179055506040820151816002015560608201518160030155608082015181600401908051906020019061145b9291906144e6565b5050507f7afbc00bc4d0f79d28ffeec44883e3454d42bcd4acd2812fd84d3ac6291aaf72600160405161148e91906152d3565b60405180910390a1600190509695505050505050565b601260009054906101000a900473ffffffffffffffffffffffffffffffffffffffff1673ffffffffffffffffffffffffffffffffffffffff163373ffffffffffffffffffffffffffffffffffffffff1614611534576040517f08c379a000000000000000000000000000000000000000000000000000000000815260040161152b9061542c565b60405180910390fd5b80601083604051611545919061516f565b908152602001604051809103902060006101000a81548173ffffffffffffffffffffffffffffffffffffffff021916908373ffffffffffffffffffffffffffffffffffffffff16021790555060016011836040516115a3919061516f565b908152602001604051809103902060006101000a81548160ff0219169083151502179055505050565b600c60205281600052604060002081815481106115e857600080fd5b90600052602060002090600602016000915091505080600001805461160c90615965565b80601f016020809104026020016040519081016040528092919081815260200182805461163890615965565b80156116855780601f1061165a57610100808354040283529160200191611685565b820191906000526020600020905b81548152906001019060200180831161166857829003601f168201915b5050505050908060010160009054906101000a900473ffffffffffffffffffffffffffffffffffffffff16908060020154908060030154908060040180546116cc90615965565b80601f01602080910402602001604051908101604052809291908181526020018280546116f890615965565b80156117455780601f1061171a57610100808354040283529160200191611745565b820191906000526020600020905b81548152906001019060200180831161172857829003601f168201915b5050505050908060050154905086565b600a602052816000526040600020818154811061177157600080fd5b90600052602060002090600502016000915091505080600001805461179590615965565b80601f01602080910402602001604051908101604052809291908181526020018280546117c190615965565b801561180e5780601f106117e35761010080835404028352916020019161180e565b820191906000526020600020905b8154815290600101906020018083116117f157829003601f168201915b5050505050908060010160009054906101000a900473ffffffffffffffffffffffffffffffffffffffff169080600201549080600301549080600401805461185590615965565b80601f016020809104026020016040519081016040528092919081815260200182805461188190615965565b80156118ce5780601f106118a3576101008083540402835291602001916118ce565b820191906000526020600020905b8154815290600101906020018083116118b157829003601f168201915b5050505050905085565b6060806060806060806000600c60003373ffffffffffffffffffffffffffffffffffffffff1673ffffffffffffffffffffffffffffffffffffffff1681526020019081526020016000208054905067ffffffffffffffff81111561193f5761193e615afe565b5b60405190808252806020026020018201604052801561197257816020015b606081526020019060019003908161195d5790505b5090506000600c60003373ffffffffffffffffffffffffffffffffffffffff1673ffffffffffffffffffffffffffffffffffffffff1681526020019081526020016000208054905067ffffffffffffffff8111156119d3576119d2615afe565b5b604051908082528060200260200182016040528015611a015781602001602082028036833780820191505090505b5090506000600c60003373ffffffffffffffffffffffffffffffffffffffff1673ffffffffffffffffffffffffffffffffffffffff1681526020019081526020016000208054905067ffffffffffffffff811115611a6257611a61615afe565b5b604051908082528060200260200182016040528015611a905781602001602082028036833780820191505090505b5090506000600c60003373ffffffffffffffffffffffffffffffffffffffff1673ffffffffffffffffffffffffffffffffffffffff1681526020019081526020016000208054905067ffffffffffffffff811115611af157611af0615afe565b5b604051908082528060200260200182016040528015611b1f5781602001602082028036833780820191505090505b5090506000600c60003373ffffffffffffffffffffffffffffffffffffffff1673ffffffffffffffffffffffffffffffffffffffff1681526020019081526020016000208054905067ffffffffffffffff811115611b8057611b7f615afe565b5b604051908082528060200260200182016040528015611bb357816020015b6060815260200190600190039081611b9e5790505b5090506000600c60003373ffffffffffffffffffffffffffffffffffffffff1673ffffffffffffffffffffffffffffffffffffffff1681526020019081526020016000208054905067ffffffffffffffff811115611c1457611c13615afe565b5b604051908082528060200260200182016040528015611c425781602001602082028036833780820191505090505b50905060005b600c60003373ffffffffffffffffffffffffffffffffffffffff1673ffffffffffffffffffffffffffffffffffffffff16815260200190815260200160002080549050811015611fae576000600c60003373ffffffffffffffffffffffffffffffffffffffff1673ffffffffffffffffffffffffffffffffffffffff1681526020019081526020016000208281548110611ce557611ce4615acf565b5b90600052602060002090600602016040518060c0016040529081600082018054611d0e90615965565b80601f0160208091040260200160405190810160405280929190818152602001828054611d3a90615965565b8015611d875780601f10611d5c57610100808354040283529160200191611d87565b820191906000526020600020905b815481529060010190602001808311611d6a57829003601f168201915b505050505081526020016001820160009054906101000a900473ffffffffffffffffffffffffffffffffffffffff1673ffffffffffffffffffffffffffffffffffffffff1673ffffffffffffffffffffffffffffffffffffffff1681526020016002820154815260200160038201548152602001600482018054611e0a90615965565b80601f0160208091040260200160405190810160405280929190818152602001828054611e3690615965565b8015611e835780601f10611e5857610100808354040283529160200191611e83565b820191906000526020600020905b815481529060010190602001808311611e6657829003601f168201915b5050505050815260200160058201548152505090508060000151888381518110611eb057611eaf615acf565b5b60200260200101819052508060200151878381518110611ed357611ed2615acf565b5b602002602001019073ffffffffffffffffffffffffffffffffffffffff16908173ffffffffffffffffffffffffffffffffffffffff16815250508060400151868381518110611f2557611f24615acf565b5b6020026020010181815250508060600151858381518110611f4957611f48615acf565b5b6020026020010181815250508060800151848381518110611f6d57611f6c615acf565b5b60200260200101819052508060a00151838381518110611f9057611f8f615acf565b5b6020026020010181815250505080611fa7906159c8565b9050611c48565b508585858585859b509b509b509b509b509b50505050505050909192939495565b6000806002600084815260200190815260200160002060009054906101000a900473ffffffffffffffffffffffffffffffffffffffff169050600073ffffffffffffffffffffffffffffffffffffffff168173ffffffffffffffffffffffffffffffffffffffff161415612078576040517f08c379a000000000000000000000000000000000000000000000000000000000815260040161206f906155cc565b60405180910390fd5b80915050919050565b600b6020528060005260406000206000915090508060000180546120a490615965565b80601f01602080910402602001604051908101604052809291908181526020018280546120d090615965565b801561211d5780601f106120f25761010080835404028352916020019161211d565b820191906000526020600020905b81548152906001019060200180831161210057829003601f168201915b5050505050908060010160009054906101000a900473ffffffffffffffffffffffffffffffffffffffff169080600201549080600301549080600401805461216490615965565b80601f016020809104026020016040519081016040528092919081815260200182805461219090615965565b80156121dd5780601f106121b2576101008083540402835291602001916121dd565b820191906000526020600020905b8154815290600101906020018083116121c057829003601f168201915b5050505050908060050154905086565b600960205280600052604060002060009150905080600001805461221090615965565b80601f016020809104026020016040519081016040528092919081815260200182805461223c90615965565b80156122895780601f1061225e57610100808354040283529160200191612289565b820191906000526020600020905b81548152906001019060200180831161226c57829003601f168201915b5050505050908060010160009054906101000a900473ffffffffffffffffffffffffffffffffffffffff16908060020154908060030154908060040180546122d090615965565b80601f01602080910402602001604051908101604052809291908181526020018280546122fc90615965565b80156123495780601f1061231e57610100808354040283529160200191612349565b820191906000526020600020905b81548152906001019060200180831161232c57829003601f168201915b5050505050905085565b600061235f6007613b0f565b905090565b60008073ffffffffffffffffffffffffffffffffffffffff168273ffffffffffffffffffffffffffffffffffffffff1614156123d5576040517f08c379a00000000000000000000000000000000000000000000000000000000081526004016123cc9061552c565b60405180910390fd5b600360008373ffffffffffffffffffffffffffffffffffffffff1673ffffffffffffffffffffffffffffffffffffffff168152602001908152602001600020549050919050565b60086020528060005260406000206000915090505481565b60606001805461244390615965565b80601f016020809104026020016040519081016040528092919081815260200182805461246f90615965565b80156124bc5780601f10612491576101008083540402835291602001916124bc565b820191906000526020600020905b81548152906001019060200180831161249f57829003601f168201915b5050505050905090565b600d81815481106124d657600080fd5b90600052602060002090600602016000915090508060000180546124f990615965565b80601f016020809104026020016040519081016040528092919081815260200182805461252590615965565b80156125725780601f1061254757610100808354040283529160200191612572565b820191906000526020600020905b81548152906001019060200180831161255557829003601f168201915b5050505050908060010160009054906101000a900473ffffffffffffffffffffffffffffffffffffffff16908060020154908060030154908060040180546125b990615965565b80601f01602080910402602001604051908101604052809291908181526020018280546125e590615965565b80156126325780601f1061260757610100808354040283529160200191612632565b820191906000526020600020905b81548152906001019060200180831161261557829003601f168201915b5050505050908060050154905086565b61265461264d613752565b8383613b1d565b5050565b612669612663613752565b83613813565b6126a8576040517f08c379a000000000000000000000000000000000000000000000000000000000815260040161269f9061560c565b60405180910390fd5b6126b484848484613c8a565b50505050565b60606126c582613ce6565b9050919050565b6000600e60003373ffffffffffffffffffffffffffffffffffffffff1673ffffffffffffffffffffffffffffffffffffffff1681526020019081526020016000208260405161271b919061516f565b908152602001604051809103902060009054906101000a900460ff16612776576040517f08c379a000000000000000000000000000000000000000000000000000000000815260040161276d9061556c565b60405180910390fd5b600f60003373ffffffffffffffffffffffffffffffffffffffff1673ffffffffffffffffffffffffffffffffffffffff168152602001908152602001600020826040516127c3919061516f565b908152602001604051809103902060009054906101000a900460ff161561281f576040517f08c379a00000000000000000000000000000000000000000000000000000000081526004016128169061546c565b60405180910390fd5b600033905061282e6007613df9565b600061283a6007613b0f565b90506128468282613e0f565b6128508186613e2d565b80600860008473ffffffffffffffffffffffffffffffffffffffff1673ffffffffffffffffffffffffffffffffffffffff168152602001908152602001600020819055506040518060c00160405280600960008573ffffffffffffffffffffffffffffffffffffffff1673ffffffffffffffffffffffffffffffffffffffff16815260200190815260200160002060000180546128ec90615965565b80601f016020809104026020016040519081016040528092919081815260200182805461291890615965565b80156129655780601f1061293a57610100808354040283529160200191612965565b820191906000526020600020905b81548152906001019060200180831161294857829003601f168201915b50505050508152602001600960008573ffffffffffffffffffffffffffffffffffffffff1673ffffffffffffffffffffffffffffffffffffffff16815260200190815260200160002060010160009054906101000a900473ffffffffffffffffffffffffffffffffffffffff1673ffffffffffffffffffffffffffffffffffffffff168152602001600960008573ffffffffffffffffffffffffffffffffffffffff1673ffffffffffffffffffffffffffffffffffffffff168152602001908152602001600020600201548152602001600960008573ffffffffffffffffffffffffffffffffffffffff1673ffffffffffffffffffffffffffffffffffffffff168152602001908152602001600020600301548152602001600960008573ffffffffffffffffffffffffffffffffffffffff1673ffffffffffffffffffffffffffffffffffffffff1681526020019081526020016000206004018054612aca90615965565b80601f0160208091040260200160405190810160405280929190818152602001828054612af690615965565b8015612b435780601f10612b1857610100808354040283529160200191612b43565b820191906000526020600020905b815481529060010190602001808311612b2657829003601f168201915b50505050508152602001600860008573ffffffffffffffffffffffffffffffffffffffff1673ffffffffffffffffffffffffffffffffffffffff16815260200190815260200160002054815250600b60008473ffffffffffffffffffffffffffffffffffffffff1673ffffffffffffffffffffffffffffffffffffffff1681526020019081526020016000206000820151816000019080519060200190612beb9291906144e6565b5060208201518160010160006101000a81548173ffffffffffffffffffffffffffffffffffffffff021916908373ffffffffffffffffffffffffffffffffffffffff16021790555060408201518160020155606082015181600301556080820151816004019080519060200190612c639291906144e6565b5060a08201518160050155905050600c60003373ffffffffffffffffffffffffffffffffffffffff1673ffffffffffffffffffffffffffffffffffffffff1681526020019081526020016000206040518060c00160405280600960008673ffffffffffffffffffffffffffffffffffffffff1673ffffffffffffffffffffffffffffffffffffffff1681526020019081526020016000206000018054612d0890615965565b80601f0160208091040260200160405190810160405280929190818152602001828054612d3490615965565b8015612d815780601f10612d5657610100808354040283529160200191612d81565b820191906000526020600020905b815481529060010190602001808311612d6457829003601f168201915b50505050508152602001600960008673ffffffffffffffffffffffffffffffffffffffff1673ffffffffffffffffffffffffffffffffffffffff16815260200190815260200160002060010160009054906101000a900473ffffffffffffffffffffffffffffffffffffffff1673ffffffffffffffffffffffffffffffffffffffff168152602001600960008673ffffffffffffffffffffffffffffffffffffffff1673ffffffffffffffffffffffffffffffffffffffff168152602001908152602001600020600201548152602001600960008673ffffffffffffffffffffffffffffffffffffffff1673ffffffffffffffffffffffffffffffffffffffff168152602001908152602001600020600301548152602001600960008673ffffffffffffffffffffffffffffffffffffffff1673ffffffffffffffffffffffffffffffffffffffff1681526020019081526020016000206004018054612ee690615965565b80601f0160208091040260200160405190810160405280929190818152602001828054612f1290615965565b8015612f5f5780601f10612f3457610100808354040283529160200191612f5f565b820191906000526020600020905b815481529060010190602001808311612f4257829003601f168201915b50505050508152602001600860008673ffffffffffffffffffffffffffffffffffffffff1673ffffffffffffffffffffffffffffffffffffffff1681526020019081526020016000205481525090806001815401808255809150506001900390600052602060002090600602016000909190919091506000820151816000019080519060200190612ff19291906144e6565b5060208201518160010160006101000a81548173ffffffffffffffffffffffffffffffffffffffff021916908373ffffffffffffffffffffffffffffffffffffffff160217905550604082015181600201556060820151816003015560808201518160040190805190602001906130699291906144e6565b5060a082015181600501555050600d6040518060c00160405280600960008673ffffffffffffffffffffffffffffffffffffffff1673ffffffffffffffffffffffffffffffffffffffff16815260200190815260200160002060000180546130d090615965565b80601f01602080910402602001604051908101604052809291908181526020018280546130fc90615965565b80156131495780601f1061311e57610100808354040283529160200191613149565b820191906000526020600020905b81548152906001019060200180831161312c57829003601f168201915b50505050508152602001600960008673ffffffffffffffffffffffffffffffffffffffff1673ffffffffffffffffffffffffffffffffffffffff16815260200190815260200160002060010160009054906101000a900473ffffffffffffffffffffffffffffffffffffffff1673ffffffffffffffffffffffffffffffffffffffff168152602001600960008673ffffffffffffffffffffffffffffffffffffffff1673ffffffffffffffffffffffffffffffffffffffff168152602001908152602001600020600201548152602001600960008673ffffffffffffffffffffffffffffffffffffffff1673ffffffffffffffffffffffffffffffffffffffff168152602001908152602001600020600301548152602001600960008673ffffffffffffffffffffffffffffffffffffffff1673ffffffffffffffffffffffffffffffffffffffff16815260200190815260200160002060040180546132ae90615965565b80601f01602080910402602001604051908101604052809291908181526020018280546132da90615965565b80156133275780601f106132fc57610100808354040283529160200191613327565b820191906000526020600020905b81548152906001019060200180831161330a57829003601f168201915b50505050508152602001600860008673ffffffffffffffffffffffffffffffffffffffff1673ffffffffffffffffffffffffffffffffffffffff16815260200190815260200160002054815250908060018154018082558091505060019003906000526020600020906006020160009091909190915060008201518160000190805190602001906133b99291906144e6565b5060208201518160010160006101000a81548173ffffffffffffffffffffffffffffffffffffffff021916908373ffffffffffffffffffffffffffffffffffffffff160217905550604082015181600201556060820151816003015560808201518160040190805190602001906134319291906144e6565b5060a0820151816005015550506001600f60003373ffffffffffffffffffffffffffffffffffffffff1673ffffffffffffffffffffffffffffffffffffffff1681526020019081526020016000208560405161348d919061516f565b908152602001604051809103902060006101000a81548160ff0219169083151502179055507f6d5ac0ab1c8daf408764eb236c9d548f27b5a4e2548c80df743b5cb319162b7984600960008573ffffffffffffffffffffffffffffffffffffffff1673ffffffffffffffffffffffffffffffffffffffff16815260200190815260200160002060040187604051613526939291906153e0565b60405180910390a1809250505092915050565b6000600560008473ffffffffffffffffffffffffffffffffffffffff1673ffffffffffffffffffffffffffffffffffffffff16815260200190815260200160002060008373ffffffffffffffffffffffffffffffffffffffff1673ffffffffffffffffffffffffffffffffffffffff16815260200190815260200160002060009054906101000a900460ff16905092915050565b60006010826040516135df919061516f565b908152602001604051809103902060009054906101000a900473ffffffffffffffffffffffffffffffffffffffff1673ffffffffffffffffffffffffffffffffffffffff166370a08231306040518263ffffffff1660e01b815260040161364691906151aa565b60206040518083038186803b15801561365e57600080fd5b505afa158015613672573d6000803e3d6000fd5b505050506040513d601f19601f820116820180604052508101906136969190614ba9565b9050919050565b60007f01ffc9a7000000000000000000000000000000000000000000000000000000007bffffffffffffffffffffffffffffffffffffffffffffffffffffffff1916827bffffffffffffffffffffffffffffffffffffffffffffffffffffffff1916149050919050565b61371081613ea1565b61374f576040517f08c379a0000000000000000000000000000000000000000000000000000000008152600401613746906155cc565b60405180910390fd5b50565b600033905090565b816004600083815260200190815260200160002060006101000a81548173ffffffffffffffffffffffffffffffffffffffff021916908373ffffffffffffffffffffffffffffffffffffffff160217905550808273ffffffffffffffffffffffffffffffffffffffff166137cd83611fcf565b73ffffffffffffffffffffffffffffffffffffffff167f8c5be1e5ebec7d5bd14f71427d1e84f3dd0314c0f7b2291e5b200ac8c7c3b92560405160405180910390a45050565b60008061381f83611fcf565b90508073ffffffffffffffffffffffffffffffffffffffff168473ffffffffffffffffffffffffffffffffffffffff16148061386157506138608185613539565b5b8061389f57508373ffffffffffffffffffffffffffffffffffffffff1661388784610781565b73ffffffffffffffffffffffffffffffffffffffff16145b91505092915050565b8273ffffffffffffffffffffffffffffffffffffffff166138c882611fcf565b73ffffffffffffffffffffffffffffffffffffffff161461391e576040517f08c379a00000000000000000000000000000000000000000000000000000000081526004016139159061548c565b60405180910390fd5b600073ffffffffffffffffffffffffffffffffffffffff168273ffffffffffffffffffffffffffffffffffffffff16141561398e576040517f08c379a0000000000000000000000000000000000000000000000000000000008152600401613985906154ec565b60405180910390fd5b613999838383613f0d565b6139a460008261375a565b6001600360008573ffffffffffffffffffffffffffffffffffffffff1673ffffffffffffffffffffffffffffffffffffffff16815260200190815260200160002060008282546139f49190615869565b925050819055506001600360008473ffffffffffffffffffffffffffffffffffffffff1673ffffffffffffffffffffffffffffffffffffffff1681526020019081526020016000206000828254613a4b91906157e2565b92505081905550816002600083815260200190815260200160002060006101000a81548173ffffffffffffffffffffffffffffffffffffffff021916908373ffffffffffffffffffffffffffffffffffffffff160217905550808273ffffffffffffffffffffffffffffffffffffffff168473ffffffffffffffffffffffffffffffffffffffff167fddf252ad1be2c89b69c2b068fc378daa952ba7f163c4a11628f55a4df523b3ef60405160405180910390a4613b0a838383613f12565b505050565b600081600001549050919050565b8173ffffffffffffffffffffffffffffffffffffffff168373ffffffffffffffffffffffffffffffffffffffff161415613b8c576040517f08c379a0000000000000000000000000000000000000000000000000000000008152600401613b839061550c565b60405180910390fd5b80600560008573ffffffffffffffffffffffffffffffffffffffff1673ffffffffffffffffffffffffffffffffffffffff16815260200190815260200160002060008473ffffffffffffffffffffffffffffffffffffffff1673ffffffffffffffffffffffffffffffffffffffff16815260200190815260200160002060006101000a81548160ff0219169083151502179055508173ffffffffffffffffffffffffffffffffffffffff168373ffffffffffffffffffffffffffffffffffffffff167f17307eab39ab6107e8899845ad3d59bd9653f200f220920489ca2b5937696c3183604051613c7d91906152d3565b60405180910390a3505050565b613c958484846138a8565b613ca184848484613f17565b613ce0576040517f08c379a0000000000000000000000000000000000000000000000000000000008152600401613cd79061544c565b60405180910390fd5b50505050565b6060613cf182613707565b6000600660008481526020019081526020016000208054613d1190615965565b80601f0160208091040260200160405190810160405280929190818152602001828054613d3d90615965565b8015613d8a5780601f10613d5f57610100808354040283529160200191613d8a565b820191906000526020600020905b815481529060010190602001808311613d6d57829003601f168201915b505050505090506000613d9b6140ae565b9050600081511415613db1578192505050613df4565b600082511115613de6578082604051602001613dce929190615186565b60405160208183030381529060405292505050613df4565b613def846140c5565b925050505b919050565b6001816000016000828254019250508190555050565b613e2982826040518060200160405280600081525061412d565b5050565b613e3682613ea1565b613e75576040517f08c379a0000000000000000000000000000000000000000000000000000000008152600401613e6c9061554c565b60405180910390fd5b80600660008481526020019081526020016000209080519060200190613e9c9291906144e6565b505050565b60008073ffffffffffffffffffffffffffffffffffffffff166002600084815260200190815260200160002060009054906101000a900473ffffffffffffffffffffffffffffffffffffffff1673ffffffffffffffffffffffffffffffffffffffff1614159050919050565b505050565b505050565b6000613f388473ffffffffffffffffffffffffffffffffffffffff16614188565b156140a1578373ffffffffffffffffffffffffffffffffffffffff1663150b7a02613f61613752565b8786866040518563ffffffff1660e01b8152600401613f8394939291906151fc565b602060405180830381600087803b158015613f9d57600080fd5b505af1925050508015613fce57506040513d601f19601f82011682018060405250810190613fcb919061496f565b60015b614051573d8060008114613ffe576040519150601f19603f3d011682016040523d82523d6000602084013e614003565b606091505b50600081511415614049576040517f08c379a00000000000000000000000000000000000000000000000000000000081526004016140409061544c565b60405180910390fd5b805181602001fd5b63150b7a0260e01b7bffffffffffffffffffffffffffffffffffffffffffffffffffffffff1916817bffffffffffffffffffffffffffffffffffffffffffffffffffffffff1916149150506140a6565b600190505b949350505050565b606060405180602001604052806000815250905090565b60606140d082613707565b60006140da6140ae565b905060008151116140fa5760405180602001604052806000815250614125565b80614104846141ab565b604051602001614115929190615186565b6040516020818303038152906040525b915050919050565b614137838361430c565b6141446000848484613f17565b614183576040517f08c379a000000000000000000000000000000000000000000000000000000000815260040161417a9061544c565b60405180910390fd5b505050565b6000808273ffffffffffffffffffffffffffffffffffffffff163b119050919050565b606060008214156141f3576040518060400160405280600181526020017f30000000000000000000000000000000000000000000000000000000000000008152509050614307565b600082905060005b6000821461422557808061420e906159c8565b915050600a8261421e9190615838565b91506141fb565b60008167ffffffffffffffff81111561424157614240615afe565b5b6040519080825280601f01601f1916602001820160405280156142735781602001600182028036833780820191505090505b5090505b600085146143005760018261428c9190615869565b9150600a8561429b9190615a11565b60306142a791906157e2565b60f81b8183815181106142bd576142bc615acf565b5b60200101907effffffffffffffffffffffffffffffffffffffffffffffffffffffffffffff1916908160001a905350600a856142f99190615838565b9450614277565b8093505050505b919050565b600073ffffffffffffffffffffffffffffffffffffffff168273ffffffffffffffffffffffffffffffffffffffff16141561437c576040517f08c379a0000000000000000000000000000000000000000000000000000000008152600401614373906155ac565b60405180910390fd5b61438581613ea1565b156143c5576040517f08c379a00000000000000000000000000000000000000000000000000000000081526004016143bc906154ac565b60405180910390fd5b6143d160008383613f0d565b6001600360008473ffffffffffffffffffffffffffffffffffffffff1673ffffffffffffffffffffffffffffffffffffffff168152602001908152602001600020600082825461442191906157e2565b92505081905550816002600083815260200190815260200160002060006101000a81548173ffffffffffffffffffffffffffffffffffffffff021916908373ffffffffffffffffffffffffffffffffffffffff160217905550808273ffffffffffffffffffffffffffffffffffffffff16600073ffffffffffffffffffffffffffffffffffffffff167fddf252ad1be2c89b69c2b068fc378daa952ba7f163c4a11628f55a4df523b3ef60405160405180910390a46144e260008383613f12565b5050565b8280546144f290615965565b90600052602060002090601f016020900481019282614514576000855561455b565b82601f1061452d57805160ff191683800117855561455b565b8280016001018555821561455b579182015b8281111561455a57825182559160200191906001019061453f565b5b509050614568919061456c565b5090565b5b8082111561458557600081600090555060010161456d565b5090565b600061459c6145978461566c565b615647565b9050828152602081018484840111156145b8576145b7615b3c565b5b6145c3848285615923565b509392505050565b60006145de6145d98461569d565b615647565b9050828152602081018484840111156145fa576145f9615b3c565b5b614605848285615923565b509392505050565b60008135905061461c81615f42565b92915050565b60008135905061463181615f59565b92915050565b60008151905061464681615f59565b92915050565b60008135905061465b81615f70565b92915050565b60008151905061467081615f70565b92915050565b600082601f83011261468b5761468a615b32565b5b813561469b848260208601614589565b91505092915050565b60008083601f8401126146ba576146b9615b32565b5b8235905067ffffffffffffffff8111156146d7576146d6615b2d565b5b6020830191508360018202830111156146f3576146f2615b37565b5b9250929050565b600082601f83011261470f5761470e615b32565b5b813561471f8482602086016145cb565b91505092915050565b60008135905061473781615f87565b92915050565b60008151905061474c81615f87565b92915050565b60006020828403121561476857614767615b46565b5b60006147768482850161460d565b91505092915050565b6000806040838503121561479657614795615b46565b5b60006147a48582860161460d565b92505060206147b58582860161460d565b9150509250929050565b6000806000606084860312156147d8576147d7615b46565b5b60006147e68682870161460d565b93505060206147f78682870161460d565b925050604061480886828701614728565b9150509250925092565b6000806000806080858703121561482c5761482b615b46565b5b600061483a8782880161460d565b945050602061484b8782880161460d565b935050604061485c87828801614728565b925050606085013567ffffffffffffffff81111561487d5761487c615b41565b5b61488987828801614676565b91505092959194509250565b600080604083850312156148ac576148ab615b46565b5b60006148ba8582860161460d565b92505060206148cb85828601614622565b9150509250929050565b600080604083850312156148ec576148eb615b46565b5b60006148fa8582860161460d565b925050602061490b85828601614728565b9150509250929050565b60006020828403121561492b5761492a615b46565b5b600061493984828501614637565b91505092915050565b60006020828403121561495857614957615b46565b5b60006149668482850161464c565b91505092915050565b60006020828403121561498557614984615b46565b5b600061499384828501614661565b91505092915050565b600080600080600080608087890312156149b9576149b8615b46565b5b600087013567ffffffffffffffff8111156149d7576149d6615b41565b5b6149e389828a016146a4565b965096505060206149f689828a01614728565b945050604087013567ffffffffffffffff811115614a1757614a16615b41565b5b614a2389828a016146a4565b9350935050606087013567ffffffffffffffff811115614a4657614a45615b41565b5b614a5289828a016146fa565b9150509295509295509295565b600060208284031215614a7557614a74615b46565b5b600082013567ffffffffffffffff811115614a9357614a92615b41565b5b614a9f848285016146fa565b91505092915050565b60008060408385031215614abf57614abe615b46565b5b600083013567ffffffffffffffff811115614add57614adc615b41565b5b614ae9858286016146fa565b9250506020614afa8582860161460d565b9150509250929050565b60008060408385031215614b1b57614b1a615b46565b5b600083013567ffffffffffffffff811115614b3957614b38615b41565b5b614b45858286016146fa565b925050602083013567ffffffffffffffff811115614b6657614b65615b41565b5b614b72858286016146fa565b9150509250929050565b600060208284031215614b9257614b91615b46565b5b6000614ba084828501614728565b91505092915050565b600060208284031215614bbf57614bbe615b46565b5b6000614bcd8482850161473d565b91505092915050565b6000614be28383614c1a565b60208301905092915050565b6000614bfa8383614de5565b905092915050565b6000614c0e8383615138565b60208301905092915050565b614c238161589d565b82525050565b614c328161589d565b82525050565b6000614c4382615713565b614c4d8185615771565b9350614c58836156ce565b8060005b83811015614c89578151614c708882614bd6565b9750614c7b8361574a565b925050600181019050614c5c565b5085935050505092915050565b6000614ca18261571e565b614cab8185615782565b935083602082028501614cbd856156de565b8060005b85811015614cf95784840389528151614cda8582614bee565b9450614ce583615757565b925060208a01995050600181019050614cc1565b50829750879550505050505092915050565b6000614d1682615729565b614d208185615793565b9350614d2b836156ee565b8060005b83811015614d5c578151614d438882614c02565b9750614d4e83615764565b925050600181019050614d2f565b5085935050505092915050565b614d72816158af565b82525050565b6000614d8382615734565b614d8d81856157a4565b9350614d9d818560208601615932565b614da681615b4b565b840191505092915050565b614dba81615911565b82525050565b6000614dcc83856157d7565b9350614dd9838584615923565b82840190509392505050565b6000614df08261573f565b614dfa81856157b5565b9350614e0a818560208601615932565b614e1381615b4b565b840191505092915050565b6000614e298261573f565b614e3381856157c6565b9350614e43818560208601615932565b614e4c81615b4b565b840191505092915050565b6000614e628261573f565b614e6c81856157d7565b9350614e7c818560208601615932565b80840191505092915050565b60008154614e9581615965565b614e9f81866157c6565b94506001821660008114614eba5760018114614ecc57614eff565b60ff1983168652602086019350614eff565b614ed5856156fe565b60005b83811015614ef757815481890152600182019150602081019050614ed8565b808801955050505b50505092915050565b6000614f156022836157c6565b9150614f2082615b5c565b604082019050919050565b6000614f386032836157c6565b9150614f4382615bab565b604082019050919050565b6000614f5b601f836157c6565b9150614f6682615bfa565b602082019050919050565b6000614f7e6025836157c6565b9150614f8982615c23565b604082019050919050565b6000614fa1601c836157c6565b9150614fac82615c72565b602082019050919050565b6000614fc4601c836157c6565b9150614fcf82615c9b565b602082019050919050565b6000614fe76024836157c6565b9150614ff282615cc4565b604082019050919050565b600061500a6019836157c6565b915061501582615d13565b602082019050919050565b600061502d6029836157c6565b915061503882615d3c565b604082019050919050565b6000615050602e836157c6565b915061505b82615d8b565b604082019050919050565b6000615073601c836157c6565b915061507e82615dda565b602082019050919050565b6000615096603e836157c6565b91506150a182615e03565b604082019050919050565b60006150b96020836157c6565b91506150c482615e52565b602082019050919050565b60006150dc6018836157c6565b91506150e782615e7b565b602082019050919050565b60006150ff6021836157c6565b915061510a82615ea4565b604082019050919050565b6000615122602e836157c6565b915061512d82615ef3565b604082019050919050565b61514181615907565b82525050565b61515081615907565b82525050565b6000615163828486614dc0565b91508190509392505050565b600061517b8284614e57565b915081905092915050565b60006151928285614e57565b915061519e8284614e57565b91508190509392505050565b60006020820190506151bf6000830184614c29565b92915050565b60006060820190506151da6000830186614c29565b6151e76020830185614c29565b6151f46040830184614db1565b949350505050565b60006080820190506152116000830187614c29565b61521e6020830186614c29565b61522b6040830185615147565b818103606083015261523d8184614d78565b905095945050505050565b600060c08201905081810360008301526152628189614c96565b905081810360208301526152768188614c38565b9050818103604083015261528a8187614d0b565b9050818103606083015261529e8186614d0b565b905081810360808301526152b28185614c96565b905081810360a08301526152c68184614d0b565b9050979650505050505050565b60006020820190506152e86000830184614d69565b92915050565b600060208201905081810360008301526153088184614e1e565b905092915050565b600060a082019050818103600083015261532a8188614e1e565b90506153396020830187614c29565b6153466040830186615147565b6153536060830185615147565b81810360808301526153658184614e1e565b90509695505050505050565b600060c082019050818103600083015261538b8189614e1e565b905061539a6020830188614c29565b6153a76040830187615147565b6153b46060830186615147565b81810360808301526153c68185614e1e565b90506153d560a0830184615147565b979650505050505050565b600060608201905081810360008301526153fa8186614e1e565b9050818103602083015261540e8185614e88565b905081810360408301526154228184614e1e565b9050949350505050565b6000602082019050818103600083015261544581614f08565b9050919050565b6000602082019050818103600083015261546581614f2b565b9050919050565b6000602082019050818103600083015261548581614f4e565b9050919050565b600060208201905081810360008301526154a581614f71565b9050919050565b600060208201905081810360008301526154c581614f94565b9050919050565b600060208201905081810360008301526154e581614fb7565b9050919050565b6000602082019050818103600083015261550581614fda565b9050919050565b6000602082019050818103600083015261552581614ffd565b9050919050565b6000602082019050818103600083015261554581615020565b9050919050565b6000602082019050818103600083015261556581615043565b9050919050565b6000602082019050818103600083015261558581615066565b9050919050565b600060208201905081810360008301526155a581615089565b9050919050565b600060208201905081810360008301526155c5816150ac565b9050919050565b600060208201905081810360008301526155e5816150cf565b9050919050565b60006020820190508181036000830152615605816150f2565b9050919050565b6000602082019050818103600083015261562581615115565b9050919050565b60006020820190506156416000830184615147565b92915050565b6000615651615662565b905061565d8282615997565b919050565b6000604051905090565b600067ffffffffffffffff82111561568757615686615afe565b5b61569082615b4b565b9050602081019050919050565b600067ffffffffffffffff8211156156b8576156b7615afe565b5b6156c182615b4b565b9050602081019050919050565b6000819050602082019050919050565b6000819050602082019050919050565b6000819050602082019050919050565b60008190508160005260206000209050919050565b600081519050919050565b600081519050919050565b600081519050919050565b600081519050919050565b600081519050919050565b6000602082019050919050565b6000602082019050919050565b6000602082019050919050565b600082825260208201905092915050565b600082825260208201905092915050565b600082825260208201905092915050565b600082825260208201905092915050565b600082825260208201905092915050565b600082825260208201905092915050565b600081905092915050565b60006157ed82615907565b91506157f883615907565b9250827fffffffffffffffffffffffffffffffffffffffffffffffffffffffffffffffff0382111561582d5761582c615a42565b5b828201905092915050565b600061584382615907565b915061584e83615907565b92508261585e5761585d615a71565b5b828204905092915050565b600061587482615907565b915061587f83615907565b92508282101561589257615891615a42565b5b828203905092915050565b60006158a8826158e7565b9050919050565b60008115159050919050565b60007fffffffff0000000000000000000000000000000000000000000000000000000082169050919050565b600073ffffffffffffffffffffffffffffffffffffffff82169050919050565b6000819050919050565b600061591c82615907565b9050919050565b82818337600083830152505050565b60005b83811015615950578082015181840152602081019050615935565b8381111561595f576000848401525b50505050565b6000600282049050600182168061597d57607f821691505b6020821081141561599157615990615aa0565b5b50919050565b6159a082615b4b565b810181811067ffffffffffffffff821117156159bf576159be615afe565b5b80604052505050565b60006159d382615907565b91507fffffffffffffffffffffffffffffffffffffffffffffffffffffffffffffffff821415615a0657615a05615a42565b5b600182019050919050565b6000615a1c82615907565b9150615a2783615907565b925082615a3757615a36615a71565b5b828206905092915050565b7f4e487b7100000000000000000000000000000000000000000000000000000000600052601160045260246000fd5b7f4e487b7100000000000000000000000000000000000000000000000000000000600052601260045260246000fd5b7f4e487b7100000000000000000000000000000000000000000000000000000000600052602260045260246000fd5b7f4e487b7100000000000000000000000000000000000000000000000000000000600052603260045260246000fd5b7f4e487b7100000000000000000000000000000000000000000000000000000000600052604160045260246000fd5b600080fd5b600080fd5b600080fd5b600080fd5b600080fd5b600080fd5b6000601f19601f8301169050919050565b7f4f6e6c79206f776e65722063616e2063616c6c20746869732066756e6374696f60008201527f6e2e000000000000000000000000000000000000000000000000000000000000602082015250565b7f4552433732313a207472616e7366657220746f206e6f6e20455243373231526560008201527f63656976657220696d706c656d656e7465720000000000000000000000000000602082015250565b7f50726f706572792068617320616c7265616479206265656e206c697374656400600082015250565b7f4552433732313a207472616e736665722066726f6d20696e636f72726563742060008201527f6f776e6572000000000000000000000000000000000000000000000000000000602082015250565b7f4552433732313a20746f6b656e20616c7265616479206d696e74656400000000600082015250565b7f5061796d656e7420746f6b656e2069736e277420616363657074656400000000600082015250565b7f4552433732313a207472616e7366657220746f20746865207a65726f2061646460008201527f7265737300000000000000000000000000000000000000000000000000000000602082015250565b7f4552433732313a20617070726f766520746f2063616c6c657200000000000000600082015250565b7f4552433732313a2061646472657373207a65726f206973206e6f74206120766160008201527f6c6964206f776e65720000000000000000000000000000000000000000000000602082015250565b7f45524337323155524953746f726167653a2055524920736574206f66206e6f6e60008201527f6578697374656e7420746f6b656e000000000000000000000000000000000000602082015250565b7f50726f706572747920686173206e6f74206265656e206c697374656400000000600082015250565b7f4552433732313a20617070726f76652063616c6c6572206973206e6f7420746f60008201527f6b656e206f776e6572206e6f7220617070726f76656420666f7220616c6c0000602082015250565b7f4552433732313a206d696e7420746f20746865207a65726f2061646472657373600082015250565b7f4552433732313a20696e76616c696420746f6b656e2049440000000000000000600082015250565b7f4552433732313a20617070726f76616c20746f2063757272656e74206f776e6560008201527f7200000000000000000000000000000000000000000000000000000000000000602082015250565b7f4552433732313a2063616c6c6572206973206e6f7420746f6b656e206f776e6560008201527f72206e6f7220617070726f766564000000000000000000000000000000000000602082015250565b615f4b8161589d565b8114615f5657600080fd5b50565b615f62816158af565b8114615f6d57600080fd5b50565b615f79816158bb565b8114615f8457600080fd5b50565b615f9081615907565b8114615f9b57600080fd5b5056fea26469706673582212204c4b756ea0c14465a51f64928e5db50371825353ef8fc15a7dc361615cb6535e64736f6c63430008070033",
    "linkReferences": {},
    "deployedLinkReferences": {}
}