{
  "_format": "hh-sol-artifact-1",
  "contractName": "Property",
  "sourceName": "contracts/PropertyNFT.sol",
  "abi": [
    {
      "inputs": [],
      "stateMutability": "nonpayable",
      "type": "constructor"
    },
    {
      "anonymous": false,
      "inputs": [
        {
          "components": [
            {
              "internalType": "string",
              "name": "name",
              "type": "string"
            },
            {
              "internalType": "address",
              "name": "_lister",
              "type": "address"
            },
            {
              "internalType": "uint256",
              "name": "_amount",
              "type": "uint256"
            },
            {
              "internalType": "uint256",
              "name": "_time",
              "type": "uint256"
            },
            {
              "internalType": "string",
              "name": "_location",
              "type": "string"
            },
            {
              "internalType": "uint256",
              "name": "_id",
              "type": "uint256"
            },
            {
              "internalType": "address",
              "name": "_buyer",
              "type": "address"
            }
          ],
          "indexed": false,
          "internalType": "struct Property.ListedProps[]",
          "name": "properties",
          "type": "tuple[]"
        }
      ],
      "name": "AllProperties",
      "type": "event"
    },
    {
      "anonymous": false,
      "inputs": [
        {
          "indexed": true,
          "internalType": "address",
          "name": "owner",
          "type": "address"
        },
        {
          "indexed": true,
          "internalType": "address",
          "name": "approved",
          "type": "address"
        },
        {
          "indexed": true,
          "internalType": "uint256",
          "name": "tokenId",
          "type": "uint256"
        }
      ],
      "name": "Approval",
      "type": "event"
    },
    {
      "anonymous": false,
      "inputs": [
        {
          "indexed": true,
          "internalType": "address",
          "name": "owner",
          "type": "address"
        },
        {
          "indexed": true,
          "internalType": "address",
          "name": "operator",
          "type": "address"
        },
        {
          "indexed": false,
          "internalType": "bool",
          "name": "approved",
          "type": "bool"
        }
      ],
      "name": "ApprovalForAll",
      "type": "event"
    },
    {
      "anonymous": false,
      "inputs": [
        {
          "components": [
            {
              "internalType": "string",
              "name": "name",
              "type": "string"
            },
            {
              "internalType": "address",
              "name": "_lister",
              "type": "address"
            },
            {
              "internalType": "uint256",
              "name": "_amount",
              "type": "uint256"
            },
            {
              "internalType": "uint256",
              "name": "_time",
              "type": "uint256"
            },
            {
              "internalType": "string",
              "name": "_location",
              "type": "string"
            },
            {
              "internalType": "uint256",
              "name": "_id",
              "type": "uint256"
            },
            {
              "internalType": "address",
              "name": "_buyer",
              "type": "address"
            }
          ],
          "indexed": false,
          "internalType": "struct Property.ListedProps[]",
          "name": "properties",
          "type": "tuple[]"
        }
      ],
      "name": "CurrentUserProperties",
      "type": "event"
    },
    {
      "anonymous": false,
      "inputs": [
        {
          "indexed": false,
          "internalType": "string",
          "name": "name",
          "type": "string"
        },
        {
          "indexed": false,
          "internalType": "string",
          "name": "location",
          "type": "string"
        },
        {
          "indexed": false,
          "internalType": "string",
          "name": "tokenURL",
          "type": "string"
        }
      ],
      "name": "Listed",
      "type": "event"
    },
    {
      "anonymous": false,
      "inputs": [
        {
          "indexed": false,
          "internalType": "bool",
          "name": "submitted",
          "type": "bool"
        }
      ],
      "name": "Submitted",
      "type": "event"
    },
    {
      "anonymous": false,
      "inputs": [
        {
          "indexed": true,
          "internalType": "address",
          "name": "from",
          "type": "address"
        },
        {
          "indexed": true,
          "internalType": "address",
          "name": "to",
          "type": "address"
        },
        {
          "indexed": true,
          "internalType": "uint256",
          "name": "tokenId",
          "type": "uint256"
        }
      ],
      "name": "Transfer",
      "type": "event"
    },
    {
      "inputs": [
        {
          "internalType": "uint256",
          "name": "",
          "type": "uint256"
        }
      ],
      "name": "_idExists",
      "outputs": [
        {
          "internalType": "bool",
          "name": "",
          "type": "bool"
        }
      ],
      "stateMutability": "view",
      "type": "function"
    },
    {
      "inputs": [
        {
          "internalType": "string",
          "name": "",
          "type": "string"
        }
      ],
      "name": "_isTokenAcceptable",
      "outputs": [
        {
          "internalType": "bool",
          "name": "",
          "type": "bool"
        }
      ],
      "stateMutability": "view",
      "type": "function"
    },
    {
      "inputs": [
        {
          "internalType": "uint256",
          "name": "",
          "type": "uint256"
        }
      ],
      "name": "_trackListingsWithID",
      "outputs": [
        {
          "internalType": "string",
          "name": "name",
          "type": "string"
        },
        {
          "internalType": "address",
          "name": "_lister",
          "type": "address"
        },
        {
          "internalType": "uint256",
          "name": "_amount",
          "type": "uint256"
        },
        {
          "internalType": "uint256",
          "name": "_time",
          "type": "uint256"
        },
        {
          "internalType": "string",
          "name": "_location",
          "type": "string"
        },
        {
          "internalType": "uint256",
          "name": "_id",
          "type": "uint256"
        },
        {
          "internalType": "address",
          "name": "_buyer",
          "type": "address"
        }
      ],
      "stateMutability": "view",
      "type": "function"
    },
    {
      "inputs": [
        {
          "internalType": "address",
          "name": "",
          "type": "address"
        },
        {
          "internalType": "uint256",
          "name": "",
          "type": "uint256"
        }
      ],
      "name": "allBoughtPerAddress",
      "outputs": [
        {
          "internalType": "string",
          "name": "name",
          "type": "string"
        },
        {
          "internalType": "address",
          "name": "originalLister",
          "type": "address"
        },
        {
          "internalType": "uint256",
          "name": "_amount",
          "type": "uint256"
        },
        {
          "internalType": "uint256",
          "name": "_time",
          "type": "uint256"
        },
        {
          "internalType": "uint256",
          "name": "purchaseTime",
          "type": "uint256"
        },
        {
          "internalType": "string",
          "name": "_location",
          "type": "string"
        },
        {
          "internalType": "uint256",
          "name": "_id",
          "type": "uint256"
        },
        {
          "internalType": "address",
          "name": "newOwner",
          "type": "address"
        }
      ],
      "stateMutability": "view",
      "type": "function"
    },
    {
      "inputs": [
        {
          "internalType": "address",
          "name": "",
          "type": "address"
        },
        {
          "internalType": "uint256",
          "name": "",
          "type": "uint256"
        }
      ],
      "name": "allListedPerAddress",
      "outputs": [
        {
          "internalType": "string",
          "name": "name",
          "type": "string"
        },
        {
          "internalType": "address",
          "name": "_lister",
          "type": "address"
        },
        {
          "internalType": "uint256",
          "name": "_amount",
          "type": "uint256"
        },
        {
          "internalType": "uint256",
          "name": "_time",
          "type": "uint256"
        },
        {
          "internalType": "string",
          "name": "_location",
          "type": "string"
        },
        {
          "internalType": "uint256",
          "name": "_id",
          "type": "uint256"
        },
        {
          "internalType": "address",
          "name": "_buyer",
          "type": "address"
        }
      ],
      "stateMutability": "view",
      "type": "function"
    },
    {
      "inputs": [
        {
          "internalType": "uint256",
          "name": "",
          "type": "uint256"
        }
      ],
      "name": "allListedProperties",
      "outputs": [
        {
          "internalType": "string",
          "name": "name",
          "type": "string"
        },
        {
          "internalType": "address",
          "name": "_lister",
          "type": "address"
        },
        {
          "internalType": "uint256",
          "name": "_amount",
          "type": "uint256"
        },
        {
          "internalType": "uint256",
          "name": "_time",
          "type": "uint256"
        },
        {
          "internalType": "string",
          "name": "_location",
          "type": "string"
        },
        {
          "internalType": "uint256",
          "name": "_id",
          "type": "uint256"
        },
        {
          "internalType": "address",
          "name": "_buyer",
          "type": "address"
        }
      ],
      "stateMutability": "view",
      "type": "function"
    },
    {
      "inputs": [
        {
          "internalType": "address",
          "name": "",
          "type": "address"
        },
        {
          "internalType": "uint256",
          "name": "",
          "type": "uint256"
        }
      ],
      "name": "allListingsPerAddress",
      "outputs": [
        {
          "internalType": "string",
          "name": "name",
          "type": "string"
        },
        {
          "internalType": "address",
          "name": "_lister",
          "type": "address"
        },
        {
          "internalType": "uint256",
          "name": "_amount",
          "type": "uint256"
        },
        {
          "internalType": "uint256",
          "name": "_time",
          "type": "uint256"
        },
        {
          "internalType": "string",
          "name": "_location",
          "type": "string"
        }
      ],
      "stateMutability": "view",
      "type": "function"
    },
    {
      "inputs": [
        {
          "internalType": "address",
          "name": "to",
          "type": "address"
        },
        {
          "internalType": "uint256",
          "name": "tokenId",
          "type": "uint256"
        }
      ],
      "name": "approve",
      "outputs": [],
      "stateMutability": "nonpayable",
      "type": "function"
    },
    {
      "inputs": [
        {
          "internalType": "address",
          "name": "owner",
          "type": "address"
        }
      ],
      "name": "balanceOf",
      "outputs": [
        {
          "internalType": "uint256",
          "name": "",
          "type": "uint256"
        }
      ],
      "stateMutability": "view",
      "type": "function"
    },
    {
      "inputs": [
        {
          "internalType": "string",
          "name": "symbol",
          "type": "string"
        }
      ],
      "name": "contractBalance",
      "outputs": [
        {
          "internalType": "uint256",
          "name": "",
          "type": "uint256"
        }
      ],
      "stateMutability": "view",
      "type": "function"
    },
    {
      "inputs": [],
      "name": "getAllProperties",
      "outputs": [
        {
          "internalType": "string[]",
          "name": "",
          "type": "string[]"
        },
        {
          "internalType": "address[]",
          "name": "",
          "type": "address[]"
        },
        {
          "internalType": "uint256[]",
          "name": "",
          "type": "uint256[]"
        },
        {
          "internalType": "uint256[]",
          "name": "",
          "type": "uint256[]"
        },
        {
          "internalType": "string[]",
          "name": "",
          "type": "string[]"
        },
        {
          "internalType": "uint256[]",
          "name": "",
          "type": "uint256[]"
        },
        {
          "internalType": "address[]",
          "name": "",
          "type": "address[]"
        }
      ],
      "stateMutability": "view",
      "type": "function"
    },
    {
      "inputs": [
        {
          "internalType": "uint256",
          "name": "tokenId",
          "type": "uint256"
        }
      ],
      "name": "getApproved",
      "outputs": [
        {
          "internalType": "address",
          "name": "",
          "type": "address"
        }
      ],
      "stateMutability": "view",
      "type": "function"
    },
    {
      "inputs": [],
      "name": "getMyListedProperties",
      "outputs": [
        {
          "internalType": "string[]",
          "name": "",
          "type": "string[]"
        },
        {
          "internalType": "address[]",
          "name": "",
          "type": "address[]"
        },
        {
          "internalType": "uint256[]",
          "name": "",
          "type": "uint256[]"
        },
        {
          "internalType": "uint256[]",
          "name": "",
          "type": "uint256[]"
        },
        {
          "internalType": "string[]",
          "name": "",
          "type": "string[]"
        },
        {
          "internalType": "uint256[]",
          "name": "",
          "type": "uint256[]"
        },
        {
          "internalType": "address[]",
          "name": "",
          "type": "address[]"
        }
      ],
      "stateMutability": "view",
      "type": "function"
    },
    {
      "inputs": [],
      "name": "getMyPurchasedProperties",
      "outputs": [
        {
          "internalType": "string[]",
          "name": "",
          "type": "string[]"
        },
        {
          "internalType": "address[]",
          "name": "",
          "type": "address[]"
        },
        {
          "internalType": "uint256[]",
          "name": "",
          "type": "uint256[]"
        },
        {
          "internalType": "uint256[]",
          "name": "",
          "type": "uint256[]"
        },
        {
          "internalType": "uint256[]",
          "name": "",
          "type": "uint256[]"
        },
        {
          "internalType": "string[]",
          "name": "",
          "type": "string[]"
        },
        {
          "internalType": "uint256[]",
          "name": "",
          "type": "uint256[]"
        },
        {
          "internalType": "address[]",
          "name": "",
          "type": "address[]"
        }
      ],
      "stateMutability": "view",
      "type": "function"
    },
    {
      "inputs": [
        {
          "internalType": "address",
          "name": "",
          "type": "address"
        },
        {
          "internalType": "string",
          "name": "",
          "type": "string"
        }
      ],
      "name": "hasMinted",
      "outputs": [
        {
          "internalType": "bool",
          "name": "",
          "type": "bool"
        }
      ],
      "stateMutability": "view",
      "type": "function"
    },
    {
      "inputs": [
        {
          "internalType": "address",
          "name": "owner",
          "type": "address"
        },
        {
          "internalType": "address",
          "name": "operator",
          "type": "address"
        }
      ],
      "name": "isApprovedForAll",
      "outputs": [
        {
          "internalType": "bool",
          "name": "",
          "type": "bool"
        }
      ],
      "stateMutability": "view",
      "type": "function"
    },
    {
      "inputs": [
        {
          "internalType": "address",
          "name": "",
          "type": "address"
        },
        {
          "internalType": "string",
          "name": "",
          "type": "string"
        }
      ],
      "name": "isListed",
      "outputs": [
        {
          "internalType": "bool",
          "name": "",
          "type": "bool"
        }
      ],
      "stateMutability": "view",
      "type": "function"
    },
    {
      "inputs": [
        {
          "internalType": "string",
          "name": "name",
          "type": "string"
        },
        {
          "internalType": "uint256",
          "name": "_amount",
          "type": "uint256"
        },
        {
          "internalType": "string",
          "name": "_location",
          "type": "string"
        },
        {
          "internalType": "string",
          "name": "symbol",
          "type": "string"
        }
      ],
      "name": "listProperty",
      "outputs": [
        {
          "internalType": "bool",
          "name": "",
          "type": "bool"
        }
      ],
      "stateMutability": "nonpayable",
      "type": "function"
    },
    {
      "inputs": [
        {
          "internalType": "address",
          "name": "",
          "type": "address"
        }
      ],
      "name": "listed",
      "outputs": [
        {
          "internalType": "string",
          "name": "name",
          "type": "string"
        },
        {
          "internalType": "address",
          "name": "_lister",
          "type": "address"
        },
        {
          "internalType": "uint256",
          "name": "_amount",
          "type": "uint256"
        },
        {
          "internalType": "uint256",
          "name": "_time",
          "type": "uint256"
        },
        {
          "internalType": "string",
          "name": "_location",
          "type": "string"
        },
        {
          "internalType": "uint256",
          "name": "_id",
          "type": "uint256"
        },
        {
          "internalType": "address",
          "name": "_buyer",
          "type": "address"
        }
      ],
      "stateMutability": "view",
      "type": "function"
    },
    {
      "inputs": [
        {
          "internalType": "address",
          "name": "",
          "type": "address"
        }
      ],
      "name": "listings",
      "outputs": [
        {
          "internalType": "string",
          "name": "name",
          "type": "string"
        },
        {
          "internalType": "address",
          "name": "_lister",
          "type": "address"
        },
        {
          "internalType": "uint256",
          "name": "_amount",
          "type": "uint256"
        },
        {
          "internalType": "uint256",
          "name": "_time",
          "type": "uint256"
        },
        {
          "internalType": "string",
          "name": "_location",
          "type": "string"
        }
      ],
      "stateMutability": "view",
      "type": "function"
    },
    {
      "inputs": [
        {
          "internalType": "string",
          "name": "_tokenURI",
          "type": "string"
        },
        {
          "internalType": "string",
          "name": "_name",
          "type": "string"
        }
      ],
      "name": "mintNFT",
      "outputs": [
        {
          "internalType": "uint256",
          "name": "",
          "type": "uint256"
        }
      ],
      "stateMutability": "nonpayable",
      "type": "function"
    },
    {
      "inputs": [],
      "name": "name",
      "outputs": [
        {
          "internalType": "string",
          "name": "",
          "type": "string"
        }
      ],
      "stateMutability": "view",
      "type": "function"
    },
    {
      "inputs": [],
      "name": "nullAddress",
      "outputs": [
        {
          "internalType": "address",
          "name": "",
          "type": "address"
        }
      ],
      "stateMutability": "view",
      "type": "function"
    },
    {
      "inputs": [
        {
          "internalType": "uint256",
          "name": "tokenId",
          "type": "uint256"
        }
      ],
      "name": "ownerOf",
      "outputs": [
        {
          "internalType": "address",
          "name": "",
          "type": "address"
        }
      ],
      "stateMutability": "view",
      "type": "function"
    },
    {
      "inputs": [
        {
          "internalType": "uint256",
          "name": "_id",
          "type": "uint256"
        },
        {
          "internalType": "string",
          "name": "symbol",
          "type": "string"
        }
      ],
      "name": "payForProperty",
      "outputs": [],
      "stateMutability": "nonpayable",
      "type": "function"
    },
    {
      "inputs": [
        {
          "internalType": "string",
          "name": "",
          "type": "string"
        }
      ],
      "name": "paymentTokens",
      "outputs": [
        {
          "internalType": "address",
          "name": "",
          "type": "address"
        }
      ],
      "stateMutability": "view",
      "type": "function"
    },
    {
      "inputs": [
        {
          "internalType": "address",
          "name": "",
          "type": "address"
        }
      ],
      "name": "propertyID",
      "outputs": [
        {
          "internalType": "uint256",
          "name": "",
          "type": "uint256"
        }
      ],
      "stateMutability": "view",
      "type": "function"
    },
    {
      "inputs": [
        {
          "internalType": "address",
          "name": "from",
          "type": "address"
        },
        {
          "internalType": "address",
          "name": "to",
          "type": "address"
        },
        {
          "internalType": "uint256",
          "name": "tokenId",
          "type": "uint256"
        }
      ],
      "name": "safeTransferFrom",
      "outputs": [],
      "stateMutability": "nonpayable",
      "type": "function"
    },
    {
      "inputs": [
        {
          "internalType": "address",
          "name": "from",
          "type": "address"
        },
        {
          "internalType": "address",
          "name": "to",
          "type": "address"
        },
        {
          "internalType": "uint256",
          "name": "tokenId",
          "type": "uint256"
        },
        {
          "internalType": "bytes",
          "name": "data",
          "type": "bytes"
        }
      ],
      "name": "safeTransferFrom",
      "outputs": [],
      "stateMutability": "nonpayable",
      "type": "function"
    },
    {
      "inputs": [
        {
          "internalType": "address",
          "name": "operator",
          "type": "address"
        },
        {
          "internalType": "bool",
          "name": "approved",
          "type": "bool"
        }
      ],
      "name": "setApprovalForAll",
      "outputs": [],
      "stateMutability": "nonpayable",
      "type": "function"
    },
    {
      "inputs": [
        {
          "internalType": "string",
          "name": "symbol",
          "type": "string"
        },
        {
          "internalType": "address",
          "name": "tokenAddress",
          "type": "address"
        }
      ],
      "name": "setPaymentToken",
      "outputs": [],
      "stateMutability": "nonpayable",
      "type": "function"
    },
    {
      "inputs": [
        {
          "internalType": "bytes4",
          "name": "interfaceId",
          "type": "bytes4"
        }
      ],
      "name": "supportsInterface",
      "outputs": [
        {
          "internalType": "bool",
          "name": "",
          "type": "bool"
        }
      ],
      "stateMutability": "view",
      "type": "function"
    },
    {
      "inputs": [],
      "name": "symbol",
      "outputs": [
        {
          "internalType": "string",
          "name": "",
          "type": "string"
        }
      ],
      "stateMutability": "view",
      "type": "function"
    },
    {
      "inputs": [
        {
          "internalType": "uint256",
          "name": "_tokenId",
          "type": "uint256"
        }
      ],
      "name": "tokenURI",
      "outputs": [
        {
          "internalType": "string",
          "name": "",
          "type": "string"
        }
      ],
      "stateMutability": "view",
      "type": "function"
    },
    {
      "inputs": [],
      "name": "tokensMinted",
      "outputs": [
        {
          "internalType": "uint256",
          "name": "",
          "type": "uint256"
        }
      ],
      "stateMutability": "view",
      "type": "function"
    },
    {
      "inputs": [
        {
          "internalType": "address",
          "name": "from",
          "type": "address"
        },
        {
          "internalType": "address",
          "name": "to",
          "type": "address"
        },
        {
          "internalType": "uint256",
          "name": "tokenId",
          "type": "uint256"
        }
      ],
      "name": "transferFrom",
      "outputs": [],
      "stateMutability": "nonpayable",
      "type": "function"
    },
    {
      "inputs": [
        {
          "internalType": "string",
          "name": "symbol",
          "type": "string"
        }
      ],
      "name": "userBalance",
      "outputs": [
        {
          "internalType": "uint256",
          "name": "",
          "type": "uint256"
        }
      ],
      "stateMutability": "view",
      "type": "function"
    }
  ],
  "bytecode": "0x60806040523480156200001157600080fd5b50604080518082018252600581526450726f707360d81b60208083019182528351808501909452600384526205052560ec1b9084015281519192916200005a916000916200008b565b508051620000709060019060208401906200008b565b5050600880546001600160a01b03191633179055506200016e565b828054620000999062000131565b90600052602060002090601f016020900481019282620000bd576000855562000108565b82601f10620000d857805160ff191683800117855562000108565b8280016001018555821562000108579182015b8281111562000108578251825591602001919060010190620000eb565b50620001169291506200011a565b5090565b5b808211156200011657600081556001016200011b565b600181811c908216806200014657607f821691505b602082108114156200016857634e487b7160e01b600052602260045260246000fd5b50919050565b614dc8806200017e6000396000f3fe608060405234801561001057600080fd5b50600436106102775760003560e01c80636de9f32b11610160578063a906e6e0116100d8578063e96055441161008c578063ea29961211610071578063ea2996121461060d578063eccfa80d1461064c578063ffb1500e1461065f57600080fd5b8063e9605544146105be578063e985e9c5146105d157600080fd5b8063c332560f116100bd578063c332560f14610590578063c87b56dd14610598578063d5dc7be5146105ab57600080fd5b8063a906e6e014610549578063b88d4fde1461057d57600080fd5b806395d89b411161012f57806397e82b9f1161011457806397e82b9f14610500578063a22cb46514610513578063a9068c581461052657600080fd5b806395d89b41146104b957806395f5fd1d146104c157600080fd5b80636de9f32b1461045757806370a082311461045f57806377c2f29b1461047257806388ad4e2c1461049257600080fd5b806342842e0e116101f35780634e5a2407116101c25780636352211e116101a75780636352211e1461041e578063641382301461043157806365d96c821461044457600080fd5b80634e5a2407146103f1578063551edf901461041557600080fd5b806342842e0e1461039257806343cf8f40146103a55780634562e30e146103b857806348fb983d146103de57600080fd5b80631536aedd1161024a5780633ae4f3491161022f5780633ae4f3491461032d5780633b527e281461035b5780633d51402c1461037757600080fd5b80631536aedd146102f957806323b872dd1461031a57600080fd5b806301ffc9a71461027c57806306fdde03146102a4578063081812fc146102b9578063095ea7b3146102e4575b600080fd5b61028f61028a366004614575565b610672565b60405190151581526020015b60405180910390f35b6102ac61070f565b60405161029b9190614a51565b6102cc6102c736600461471f565b6107a1565b6040516001600160a01b03909116815260200161029b565b6102f76102f236600461452e565b6107c8565b005b61030c61030736600461464b565b6108ff565b60405190815260200161029b565b6102f76103283660046143f1565b610995565b61028f61033b36600461464b565b8051602081830181018051600a8252928201919093012091525460ff1681565b610363610a1c565b60405161029b9897969594939291906149a2565b61037f61101e565b60405161029b979695949392919061490b565b6102f76103a03660046143f1565b611531565b61028f6103b33660046145af565b61154c565b6103cb6103c636600461452e565b61191b565b60405161029b9796959493929190614ab0565b6102f76103ec366004614680565b611aa3565b6104046103ff36600461452e565b611b9c565b60405161029b959493929190614a64565b6102cc61dead81565b6102cc61042c36600461471f565b611d0e565b6103cb61043f3660046143a3565b611d73565b6104046104523660046143a3565b611d8e565b61030c611da9565b61030c61046d3660046143a3565b611db9565b61030c6104803660046143a3565b600e6020526000908152604090205481565b6104a56104a036600461452e565b611e53565b60405161029b989796959493929190614b0f565b6102ac611fe1565b61028f6104cf3660046144e0565b600d602090815260009283526040909220815180830184018051928152908401929093019190912091525460ff1681565b6103cb61050e36600461471f565b611ff0565b6102f76105213660046144a9565b612023565b61028f61053436600461471f565b600b6020526000908152604090205460ff1681565b6102cc61055736600461464b565b80516020818301810180516009825292820191909301209152546001600160a01b031681565b6102f761058b36600461442d565b612032565b61037f6120c0565b6102ac6105a636600461471f565b612619565b6103cb6105b936600461471f565b612624565b61030c6105cc3660046146c5565b61263f565b61028f6105df3660046143be565b6001600160a01b03918216600090815260056020908152604080832093909416825291909152205460ff1690565b61028f61061b3660046144e0565b600c602090815260009283526040909220815180830184018051928152908401929093019190912091525460ff1681565b6102f761065a366004614751565b612f39565b61030c61066d36600461464b565b6136cd565b60006001600160e01b031982167f80ac58cd0000000000000000000000000000000000000000000000000000000014806106d557506001600160e01b031982167f5b5e139f00000000000000000000000000000000000000000000000000000000145b8061070957507f01ffc9a7000000000000000000000000000000000000000000000000000000006001600160e01b03198316145b92915050565b60606000805461071e90614cac565b80601f016020809104026020016040519081016040528092919081815260200182805461074a90614cac565b80156107975780601f1061076c57610100808354040283529160200191610797565b820191906000526020600020905b81548152906001019060200180831161077a57829003601f168201915b5050505050905090565b60006107ac82613717565b506000908152600460205260409020546001600160a01b031690565b60006107d382611d0e565b9050806001600160a01b0316836001600160a01b031614156108625760405162461bcd60e51b815260206004820152602160248201527f4552433732313a20617070726f76616c20746f2063757272656e74206f776e6560448201527f720000000000000000000000000000000000000000000000000000000000000060648201526084015b60405180910390fd5b336001600160a01b038216148061087e575061087e81336105df565b6108f05760405162461bcd60e51b815260206004820152603e60248201527f4552433732313a20617070726f76652063616c6c6572206973206e6f7420746f60448201527f6b656e206f776e6572206e6f7220617070726f76656420666f7220616c6c00006064820152608401610859565b6108fa838361377e565b505050565b60006009826040516109119190614884565b908152604051908190036020018120546370a0823160e01b82523360048301526001600160a01b0316906370a08231906024015b60206040518083038186803b15801561095d57600080fd5b505afa158015610971573d6000803e3d6000fd5b505050506040513d601f19601f820116820180604052508101906107099190614738565b61099f33826137ec565b610a115760405162461bcd60e51b815260206004820152602e60248201527f4552433732313a2063616c6c6572206973206e6f7420746f6b656e206f776e6560448201527f72206e6f7220617070726f7665640000000000000000000000000000000000006064820152608401610859565b6108fa83838361386b565b33600090815260156020526040812054606091829182918291829182918291829167ffffffffffffffff811115610a5557610a55614d58565b604051908082528060200260200182016040528015610a8857816020015b6060815260200190600190039081610a735790505b50336000908152601560205260408120549192509067ffffffffffffffff811115610ab557610ab5614d58565b604051908082528060200260200182016040528015610ade578160200160208202803683370190505b50336000908152601560205260408120549192509067ffffffffffffffff811115610b0b57610b0b614d58565b604051908082528060200260200182016040528015610b34578160200160208202803683370190505b50336000908152601560205260408120549192509067ffffffffffffffff811115610b6157610b61614d58565b604051908082528060200260200182016040528015610b8a578160200160208202803683370190505b50336000908152601560205260408120549192509067ffffffffffffffff811115610bb757610bb7614d58565b604051908082528060200260200182016040528015610be0578160200160208202803683370190505b50336000908152601560205260408120549192509067ffffffffffffffff811115610c0d57610c0d614d58565b604051908082528060200260200182016040528015610c4057816020015b6060815260200190600190039081610c2b5790505b50336000908152601560205260408120549192509067ffffffffffffffff811115610c6d57610c6d614d58565b604051908082528060200260200182016040528015610c96578160200160208202803683370190505b50336000908152601560205260408120549192509067ffffffffffffffff811115610cc357610cc3614d58565b604051908082528060200260200182016040528015610cec578160200160208202803683370190505b50905060005b3360009081526015602052604090205481101561100557336000908152601560205260408120805483908110610d2a57610d2a614d42565b906000526020600020906008020160405180610100016040529081600082018054610d5490614cac565b80601f0160208091040260200160405190810160405280929190818152602001828054610d8090614cac565b8015610dcd5780601f10610da257610100808354040283529160200191610dcd565b820191906000526020600020905b815481529060010190602001808311610db057829003601f168201915b505050918352505060018201546001600160a01b0316602082015260028201546040820152600382015460608201526004820154608082015260058201805460a090920191610e1b90614cac565b80601f0160208091040260200160405190810160405280929190818152602001828054610e4790614cac565b8015610e945780601f10610e6957610100808354040283529160200191610e94565b820191906000526020600020905b815481529060010190602001808311610e7757829003601f168201915b5050509183525050600682015460208201526007909101546001600160a01b031660409091015280518b51919250908b9084908110610ed557610ed5614d42565b60200260200101819052508060200151898381518110610ef757610ef7614d42565b60200260200101906001600160a01b031690816001600160a01b0316815250508060400151888381518110610f2e57610f2e614d42565b6020026020010181815250508060600151878381518110610f5157610f51614d42565b6020026020010181815250508060800151868381518110610f7457610f74614d42565b6020026020010181815250508060a00151858381518110610f9757610f97614d42565b60200260200101819052508060c00151848381518110610fb957610fb9614d42565b6020026020010181815250508060e00151838381518110610fdc57610fdc614d42565b6001600160a01b039092166020928302919091019091015250610ffe81614ce7565b9050610cf2565b50969f959e50939c50919a509850965094509092509050565b6060806060806060806060600060148054905067ffffffffffffffff81111561104957611049614d58565b60405190808252806020026020018201604052801561107c57816020015b60608152602001906001900390816110675790505b5060145490915060009067ffffffffffffffff81111561109e5761109e614d58565b6040519080825280602002602001820160405280156110c7578160200160208202803683370190505b5060145490915060009067ffffffffffffffff8111156110e9576110e9614d58565b604051908082528060200260200182016040528015611112578160200160208202803683370190505b5060145490915060009067ffffffffffffffff81111561113457611134614d58565b60405190808252806020026020018201604052801561115d578160200160208202803683370190505b5060145490915060009067ffffffffffffffff81111561117f5761117f614d58565b6040519080825280602002602001820160405280156111b257816020015b606081526020019060019003908161119d5790505b5060145490915060009067ffffffffffffffff8111156111d4576111d4614d58565b6040519080825280602002602001820160405280156111fd578160200160208202803683370190505b5060145490915060009067ffffffffffffffff81111561121f5761121f614d58565b604051908082528060200260200182016040528015611248578160200160208202803683370190505b50905060005b60145481101561151a5760006014828154811061126d5761126d614d42565b90600052602060002090600702016040518060e001604052908160008201805461129690614cac565b80601f01602080910402602001604051908101604052809291908181526020018280546112c290614cac565b801561130f5780601f106112e45761010080835404028352916020019161130f565b820191906000526020600020905b8154815290600101906020018083116112f257829003601f168201915b505050918352505060018201546001600160a01b03166020820152600282015460408201526003820154606082015260048201805460809092019161135390614cac565b80601f016020809104026020016040519081016040528092919081815260200182805461137f90614cac565b80156113cc5780601f106113a1576101008083540402835291602001916113cc565b820191906000526020600020905b8154815290600101906020018083116113af57829003601f168201915b5050509183525050600582015460208201526006909101546001600160a01b031660409091015280518a51919250908a908490811061140d5761140d614d42565b6020026020010181905250806020015188838151811061142f5761142f614d42565b60200260200101906001600160a01b031690816001600160a01b031681525050806040015187838151811061146657611466614d42565b602002602001018181525050806060015186838151811061148957611489614d42565b60200260200101818152505080608001518583815181106114ac576114ac614d42565b60200260200101819052508060a001518483815181106114ce576114ce614d42565b6020026020010181815250508060c001518383815181106114f1576114f1614d42565b6001600160a01b03909216602092830291909101909101525061151381614ce7565b905061124e565b50959d949c50929a50909850965094509092509050565b6108fa83838360405180602001604052806000815250612032565b6000600a8260405161155e9190614884565b9081526040519081900360200190205460ff1615156001146115c25760405162461bcd60e51b815260206004820152601c60248201527f5061796d656e7420746f6b656e2069736e2774206163636570746564000000006044820152606401610859565b6009826040516115d29190614884565b908152604051908190036020018120546323b872dd60e01b82523360048301523060248301526706f05b59d3b2000060448301526001600160a01b0316906323b872dd90606401602060405180830381600087803b15801561163357600080fd5b505af1158015611647573d6000803e3d6000fd5b505050506040513d601f19601f8201168201806040525081019061166b9190614558565b50336000908152600c602052604090819020905160019190611690908a908a90614874565b9081526040805160209281900383018120805460ff191694151594909417909355601f8901829004909102820160c090810190915260a0820188815282918a908a90819085018382808284376000920191909152505050908252503360208083019190915260408083018990524260608401528051601f88018390048302810183019091528681526080909201919087908790819084018382808284376000920182905250939094525050338152600f602090815260409091208351805191935061175f92849291019061420f565b506020828101516001830180546001600160a01b0319166001600160a01b039092169190911790556040830151600283015560608301516003830155608083015180516117b2926004850192019061420f565b505033600090815260116020908152604091829020825160c0601f8c018490049093028101830190935260a083018a815290935082918b908b90819085018382808284376000920191909152505050908252503360208083019190915260408083018a90524260608401528051601f8901839004830281018301909152878152608090920191908890889081908401838280828437600092018290525093909452505083546001810185559381526020908190208351805194956005029091019361188493508492919091019061420f565b506020828101516001830180546001600160a01b0319166001600160a01b039092169190911790556040830151600283015560608301516003830155608083015180516118d7926004850192019061420f565b5050604051600181527f7afbc00bc4d0f79d28ffeec44883e3454d42bcd4acd2812fd84d3ac6291aaf72915060200160405180910390a15060019695505050505050565b6013602052816000526040600020818154811061193757600080fd5b90600052602060002090600702016000915091505080600001805461195b90614cac565b80601f016020809104026020016040519081016040528092919081815260200182805461198790614cac565b80156119d45780601f106119a9576101008083540402835291602001916119d4565b820191906000526020600020905b8154815290600101906020018083116119b757829003601f168201915b50505060018401546002850154600386015460048701805496976001600160a01b039094169692955090935090611a0a90614cac565b80601f0160208091040260200160405190810160405280929190818152602001828054611a3690614cac565b8015611a835780601f10611a5857610100808354040283529160200191611a83565b820191906000526020600020905b815481529060010190602001808311611a6657829003601f168201915b5050505060058301546006909301549192916001600160a01b0316905087565b6008546001600160a01b03163314611b235760405162461bcd60e51b815260206004820152602260248201527f4f6e6c79206f776e65722063616e2063616c6c20746869732066756e6374696f60448201527f6e2e0000000000000000000000000000000000000000000000000000000000006064820152608401610859565b80600983604051611b349190614884565b908152602001604051809103902060006101000a8154816001600160a01b0302191690836001600160a01b031602179055506001600a83604051611b789190614884565b908152604051908190036020019020805491151560ff199092169190911790555050565b60116020528160005260406000208181548110611bb857600080fd5b906000526020600020906005020160009150915050806000018054611bdc90614cac565b80601f0160208091040260200160405190810160405280929190818152602001828054611c0890614cac565b8015611c555780601f10611c2a57610100808354040283529160200191611c55565b820191906000526020600020905b815481529060010190602001808311611c3857829003601f168201915b50505060018401546002850154600386015460048701805496976001600160a01b039094169692955090935090611c8b90614cac565b80601f0160208091040260200160405190810160405280929190818152602001828054611cb790614cac565b8015611d045780601f10611cd957610100808354040283529160200191611d04565b820191906000526020600020905b815481529060010190602001808311611ce757829003601f168201915b5050505050905085565b6000818152600260205260408120546001600160a01b0316806107095760405162461bcd60e51b815260206004820152601860248201527f4552433732313a20696e76616c696420746f6b656e20494400000000000000006044820152606401610859565b60106020526000908152604090208054819061195b90614cac565b600f60205260009081526040902080548190611bdc90614cac565b6000611db460075490565b905090565b60006001600160a01b038216611e375760405162461bcd60e51b815260206004820152602960248201527f4552433732313a2061646472657373207a65726f206973206e6f74206120766160448201527f6c6964206f776e657200000000000000000000000000000000000000000000006064820152608401610859565b506001600160a01b031660009081526003602052604090205490565b60156020528160005260406000208181548110611e6f57600080fd5b906000526020600020906008020160009150915050806000018054611e9390614cac565b80601f0160208091040260200160405190810160405280929190818152602001828054611ebf90614cac565b8015611f0c5780601f10611ee157610100808354040283529160200191611f0c565b820191906000526020600020905b815481529060010190602001808311611eef57829003601f168201915b505050600184015460028501546003860154600487015460058801805497986001600160a01b03909516979396509194509291611f4890614cac565b80601f0160208091040260200160405190810160405280929190818152602001828054611f7490614cac565b8015611fc15780601f10611f9657610100808354040283529160200191611fc1565b820191906000526020600020905b815481529060010190602001808311611fa457829003601f168201915b5050505060068301546007909301549192916001600160a01b0316905088565b60606001805461071e90614cac565b6014818154811061200057600080fd5b906000526020600020906007020160009150905080600001805461195b90614cac565b61202e338383613a38565b5050565b61203c33836137ec565b6120ae5760405162461bcd60e51b815260206004820152602e60248201527f4552433732313a2063616c6c6572206973206e6f7420746f6b656e206f776e6560448201527f72206e6f7220617070726f7665640000000000000000000000000000000000006064820152608401610859565b6120ba84848484613b07565b50505050565b336000908152601360205260408120546060918291829182918291829182919067ffffffffffffffff8111156120f8576120f8614d58565b60405190808252806020026020018201604052801561212b57816020015b60608152602001906001900390816121165790505b50336000908152601360205260408120549192509067ffffffffffffffff81111561215857612158614d58565b604051908082528060200260200182016040528015612181578160200160208202803683370190505b50336000908152601360205260408120549192509067ffffffffffffffff8111156121ae576121ae614d58565b6040519080825280602002602001820160405280156121d7578160200160208202803683370190505b50336000908152601360205260408120549192509067ffffffffffffffff81111561220457612204614d58565b60405190808252806020026020018201604052801561222d578160200160208202803683370190505b50336000908152601360205260408120549192509067ffffffffffffffff81111561225a5761225a614d58565b60405190808252806020026020018201604052801561228d57816020015b60608152602001906001900390816122785790505b50336000908152601360205260408120549192509067ffffffffffffffff8111156122ba576122ba614d58565b6040519080825280602002602001820160405280156122e3578160200160208202803683370190505b5060145490915060009067ffffffffffffffff81111561230557612305614d58565b60405190808252806020026020018201604052801561232e578160200160208202803683370190505b50905060005b3360009081526013602052604090205481101561151a5733600090815260136020526040812080548390811061236c5761236c614d42565b90600052602060002090600702016040518060e001604052908160008201805461239590614cac565b80601f01602080910402602001604051908101604052809291908181526020018280546123c190614cac565b801561240e5780601f106123e35761010080835404028352916020019161240e565b820191906000526020600020905b8154815290600101906020018083116123f157829003601f168201915b505050918352505060018201546001600160a01b03166020820152600282015460408201526003820154606082015260048201805460809092019161245290614cac565b80601f016020809104026020016040519081016040528092919081815260200182805461247e90614cac565b80156124cb5780601f106124a0576101008083540402835291602001916124cb565b820191906000526020600020905b8154815290600101906020018083116124ae57829003601f168201915b5050509183525050600582015460208201526006909101546001600160a01b031660409091015280518a51919250908a908490811061250c5761250c614d42565b6020026020010181905250806020015188838151811061252e5761252e614d42565b60200260200101906001600160a01b031690816001600160a01b031681525050806040015187838151811061256557612565614d42565b602002602001018181525050806060015186838151811061258857612588614d42565b60200260200101818152505080608001518583815181106125ab576125ab614d42565b60200260200101819052508060a001518483815181106125cd576125cd614d42565b6020026020010181815250508060c001518383815181106125f0576125f0614d42565b6001600160a01b03909216602092830291909101909101525061261281614ce7565b9050612334565b606061070982613b85565b60126020526000908152604090208054819061195b90614cac565b336000908152600c6020526040808220905161265c908490614884565b9081526040519081900360200190205460ff166126bb5760405162461bcd60e51b815260206004820152601c60248201527f50726f706572747920686173206e6f74206265656e206c6973746564000000006044820152606401610859565b336000908152600d60205260409081902090516126d9908490614884565b9081526040519081900360200190205460ff16156127395760405162461bcd60e51b815260206004820152601f60248201527f50726f706572792068617320616c7265616479206265656e206c6973746564006044820152606401610859565b33612748600780546001019055565b600061275360075490565b905061275f8282613c8e565b6127698186613ca8565b6001600160a01b0382166000818152600e60209081526040808320859055848352600b8252808320805460ff19166001179055805160e081018252938352600f909152902080548291906127bc90614cac565b80601f01602080910402602001604051908101604052809291908181526020018280546127e890614cac565b80156128355780601f1061280a57610100808354040283529160200191612835565b820191906000526020600020905b81548152906001019060200180831161281857829003601f168201915b50505091835250506001600160a01b038085166000818152600f6020818152604080842060018101549096168288015260028601549087015260038501546060870152929091529052600401805460809092019161289290614cac565b80601f01602080910402602001604051908101604052809291908181526020018280546128be90614cac565b801561290b5780601f106128e05761010080835404028352916020019161290b565b820191906000526020600020905b8154815290600101906020018083116128ee57829003601f168201915b50505091835250506001600160a01b0384166000908152600e602090815260408083205482850181905261dead948201949094529282526012815291902082518051919261295e9284929091019061420f565b506020828101516001830180546001600160a01b0319166001600160a01b039092169190911790556040830151600283015560608301516003830155608083015180516129b1926004850192019061420f565b5060a0820151600582015560c090910151600690910180546001600160a01b0319166001600160a01b03928316179055336000908152601360209081526040808320815160e0810183529487168452600f9092529091208054919291829190612a1990614cac565b80601f0160208091040260200160405190810160405280929190818152602001828054612a4590614cac565b8015612a925780601f10612a6757610100808354040283529160200191612a92565b820191906000526020600020905b815481529060010190602001808311612a7557829003601f168201915b50505091835250506001600160a01b038086166000818152600f60208181526040808420600181015490961682880152600286015490870152600385015460608701529290915290526004018054608090920191612aef90614cac565b80601f0160208091040260200160405190810160405280929190818152602001828054612b1b90614cac565b8015612b685780601f10612b3d57610100808354040283529160200191612b68565b820191906000526020600020905b815481529060010190602001808311612b4b57829003601f168201915b50505091835250506001600160a01b0385166000908152600e60209081526040808320548285015261dead930192909252835460018101855593815281902082518051939460070290910192612bc1928492019061420f565b506020828101516001830180546001600160a01b0319166001600160a01b03909216919091179055604083015160028301556060830151600383015560808301518051612c14926004850192019061420f565b5060a0820151600582015560c090910151600690910180546001600160a01b0319166001600160a01b039283161790556040805160e0810182529184166000908152600f602052208054601492918291612c6d90614cac565b80601f0160208091040260200160405190810160405280929190818152602001828054612c9990614cac565b8015612ce65780601f10612cbb57610100808354040283529160200191612ce6565b820191906000526020600020905b815481529060010190602001808311612cc957829003601f168201915b50505091835250506001600160a01b038086166000818152600f60208181526040808420600181015490961682880152600286015490870152600385015460608701529290915290526004018054608090920191612d4390614cac565b80601f0160208091040260200160405190810160405280929190818152602001828054612d6f90614cac565b8015612dbc5780601f10612d9157610100808354040283529160200191612dbc565b820191906000526020600020905b815481529060010190602001808311612d9f57829003601f168201915b50505091835250506001600160a01b0385166000908152600e60209081526040808320548285015261dead930192909252835460018101855593815281902082518051939460070290910192612e15928492019061420f565b506020828101516001830180546001600160a01b0319166001600160a01b03909216919091179055604083015160028301556060830151600383015560808301518051612e68926004850192019061420f565b5060a0820151600582015560c090910151600690910180546001600160a01b0319166001600160a01b03909216919091179055336000908152600d602052604090819020905160019190612ebd908790614884565b9081526040805160209281900383018120805460ff1916941515949094179093556001600160a01b0385166000908152600f90925290207f6d5ac0ab1c8daf408764eb236c9d548f27b5a4e2548c80df743b5cb319162b7991612f299187916004909101908990614b78565b60405180910390a1949350505050565b6000828152600b602052604090205460ff16612f975760405162461bcd60e51b815260206004820152601d60248201527f50726f70733a2050726f7065727920646f6573206e6f742065786973740000006044820152606401610859565b6000828152601260205260409020600101546001600160a01b03163314156130105760405162461bcd60e51b815260206004820152602660248201527f50726f70733a2050726f706572747920616c72656164792062656c6f6e677320604482015265746f20796f7560d01b6064820152608401610859565b6000828152601260205260409020600601546001600160a01b03163314156130895760405162461bcd60e51b815260206004820152602660248201527f50726f70733a2050726f706572747920616c72656164792062656c6f6e677320604482015265746f20796f7560d01b6064820152608401610859565b600082815260126020526040908190206002015490516009906130ad908490614884565b908152604051908190036020018120546370a0823160e01b82523360048301526001600160a01b0316906370a082319060240160206040518083038186803b1580156130f857600080fd5b505afa15801561310c573d6000803e3d6000fd5b505050506040513d601f19601f820116820180604052508101906131309190614738565b101561317e5760405162461bcd60e51b815260206004820152601260248201527f496e73756666696369656e742046756e647300000000000000000000000000006044820152606401610859565b60098160405161318e9190614884565b908152604080516020928190038301812054600086815260129094529190922060018101546002909101546323b872dd60e01b84523360048501526001600160a01b039182166024850152604484015216906323b872dd90606401602060405180830381600087803b15801561320357600080fd5b505af1158015613217573d6000803e3d6000fd5b505050506040513d601f19601f8201168201806040525081019061323b9190614558565b6132875760405162461bcd60e51b815260206004820152601e60248201527f50726f7073203a2043616e6e6f7420706572666f726d207061796d656e7400006044820152606401610859565b6000828152601260205260409020600101546132ad906001600160a01b0316338461386b565b60008281526012602081815260408084206006810180546001600160a01b031916339081179091558552601583528185208251610100810190935294879052929091528154909182916132ff90614cac565b80601f016020809104026020016040519081016040528092919081815260200182805461332b90614cac565b80156133785780601f1061334d57610100808354040283529160200191613378565b820191906000526020600020905b81548152906001019060200180831161335b57829003601f168201915b5050509183525050600085815260126020818152604080842060018101546001600160a01b031683870152600281015491860191909152600381015460608601524260808601529288905252600401805460a0909201916133d890614cac565b80601f016020809104026020016040519081016040528092919081815260200182805461340490614cac565b80156134515780601f1061342657610100808354040283529160200191613451565b820191906000526020600020905b81548152906001019060200180831161343457829003601f168201915b505050918352505060008581526012602090815260408083206005015482850152339301929092528354600181018555938152819020825180519394600802909101926134a1928492019061420f565b506020828101516001830180546001600160a01b0319166001600160a01b0390921691909117905560408301516002830155606083015160038301556080830151600483015560a083015180516134fe926005850192019061420f565b5060c0820151600682015560e090910151600790910180546001600160a01b0319166001600160a01b0390921691909117905560005b6000838152601260209081526040808320600101546001600160a01b031683526013909152902054811015613639576000838152601260209081526040808320600101546001600160a01b031683526013909152902080548491908390811061359f5761359f614d42565b9060005260206000209060070201600501541415613629576000838152601260209081526040808320600101546001600160a01b03168352601390915290208054339190839081106135f3576135f3614d42565b906000526020600020906007020160060160006101000a8154816001600160a01b0302191690836001600160a01b031602179055505b61363281614ce7565b9050613534565b5060005b6014548110156108fa57826014828154811061365b5761365b614d42565b90600052602060002090600702016005015414156136bd57336014828154811061368757613687614d42565b906000526020600020906007020160060160006101000a8154816001600160a01b0302191690836001600160a01b031602179055505b6136c681614ce7565b905061363d565b60006009826040516136df9190614884565b908152604051908190036020018120546370a0823160e01b82523060048301526001600160a01b0316906370a0823190602401610945565b6000818152600260205260409020546001600160a01b031661377b5760405162461bcd60e51b815260206004820152601860248201527f4552433732313a20696e76616c696420746f6b656e20494400000000000000006044820152606401610859565b50565b600081815260046020526040902080546001600160a01b0319166001600160a01b03841690811790915581906137b382611d0e565b6001600160a01b03167f8c5be1e5ebec7d5bd14f71427d1e84f3dd0314c0f7b2291e5b200ac8c7c3b92560405160405180910390a45050565b6000806137f883611d0e565b9050806001600160a01b0316846001600160a01b0316148061383f57506001600160a01b0380821660009081526005602090815260408083209388168352929052205460ff165b806138635750836001600160a01b0316613858846107a1565b6001600160a01b0316145b949350505050565b826001600160a01b031661387e82611d0e565b6001600160a01b0316146138fa5760405162461bcd60e51b815260206004820152602560248201527f4552433732313a207472616e736665722066726f6d20696e636f72726563742060448201527f6f776e65720000000000000000000000000000000000000000000000000000006064820152608401610859565b6001600160a01b0382166139755760405162461bcd60e51b8152602060048201526024808201527f4552433732313a207472616e7366657220746f20746865207a65726f2061646460448201527f72657373000000000000000000000000000000000000000000000000000000006064820152608401610859565b61398060008261377e565b6001600160a01b03831660009081526003602052604081208054600192906139a9908490614c69565b90915550506001600160a01b03821660009081526003602052604081208054600192906139d7908490614c3d565b909155505060008181526002602052604080822080546001600160a01b0319166001600160a01b0386811691821790925591518493918716917fddf252ad1be2c89b69c2b068fc378daa952ba7f163c4a11628f55a4df523b3ef91a4505050565b816001600160a01b0316836001600160a01b03161415613a9a5760405162461bcd60e51b815260206004820152601960248201527f4552433732313a20617070726f766520746f2063616c6c6572000000000000006044820152606401610859565b6001600160a01b03838116600081815260056020908152604080832094871680845294825291829020805460ff191686151590811790915591519182527f17307eab39ab6107e8899845ad3d59bd9653f200f220920489ca2b5937696c31910160405180910390a3505050565b613b1284848461386b565b613b1e84848484613d51565b6120ba5760405162461bcd60e51b815260206004820152603260248201527f4552433732313a207472616e7366657220746f206e6f6e20455243373231526560448201527131b2b4bb32b91034b6b83632b6b2b73a32b960711b6064820152608401610859565b6060613b9082613717565b60008281526006602052604081208054613ba990614cac565b80601f0160208091040260200160405190810160405280929190818152602001828054613bd590614cac565b8015613c225780601f10613bf757610100808354040283529160200191613c22565b820191906000526020600020905b815481529060010190602001808311613c0557829003601f168201915b505050505090506000613c4060408051602081019091526000815290565b9050805160001415613c53575092915050565b815115613c85578082604051602001613c6d9291906148a0565b60405160208183030381529060405292505050919050565b61386384613ea9565b61202e828260405180602001604052806000815250613f1d565b6000828152600260205260409020546001600160a01b0316613d325760405162461bcd60e51b815260206004820152602e60248201527f45524337323155524953746f726167653a2055524920736574206f66206e6f6e60448201527f6578697374656e7420746f6b656e0000000000000000000000000000000000006064820152608401610859565b600082815260066020908152604090912082516108fa9284019061420f565b60006001600160a01b0384163b15613e9e57604051630a85bd0160e11b81526001600160a01b0385169063150b7a0290613d959033908990889088906004016148cf565b602060405180830381600087803b158015613daf57600080fd5b505af1925050508015613ddf575060408051601f3d908101601f19168201909252613ddc91810190614592565b60015b613e84573d808015613e0d576040519150601f19603f3d011682016040523d82523d6000602084013e613e12565b606091505b508051613e7c5760405162461bcd60e51b815260206004820152603260248201527f4552433732313a207472616e7366657220746f206e6f6e20455243373231526560448201527131b2b4bb32b91034b6b83632b6b2b73a32b960711b6064820152608401610859565b805181602001fd5b6001600160e01b031916630a85bd0160e11b149050613863565b506001949350505050565b6060613eb482613717565b6000613ecb60408051602081019091526000815290565b90506000815111613eeb5760405180602001604052806000815250613f16565b80613ef584613f9b565b604051602001613f069291906148a0565b6040516020818303038152906040525b9392505050565b613f2783836140cd565b613f346000848484613d51565b6108fa5760405162461bcd60e51b815260206004820152603260248201527f4552433732313a207472616e7366657220746f206e6f6e20455243373231526560448201527131b2b4bb32b91034b6b83632b6b2b73a32b960711b6064820152608401610859565b606081613fdb57505060408051808201909152600181527f3000000000000000000000000000000000000000000000000000000000000000602082015290565b8160005b81156140055780613fef81614ce7565b9150613ffe9050600a83614c55565b9150613fdf565b60008167ffffffffffffffff81111561402057614020614d58565b6040519080825280601f01601f19166020018201604052801561404a576020820181803683370190505b5090505b84156138635761405f600183614c69565b915061406c600a86614d02565b614077906030614c3d565b60f81b81838151811061408c5761408c614d42565b60200101907effffffffffffffffffffffffffffffffffffffffffffffffffffffffffffff1916908160001a9053506140c6600a86614c55565b945061404e565b6001600160a01b0382166141235760405162461bcd60e51b815260206004820181905260248201527f4552433732313a206d696e7420746f20746865207a65726f20616464726573736044820152606401610859565b6000818152600260205260409020546001600160a01b0316156141885760405162461bcd60e51b815260206004820152601c60248201527f4552433732313a20746f6b656e20616c7265616479206d696e746564000000006044820152606401610859565b6001600160a01b03821660009081526003602052604081208054600192906141b1908490614c3d565b909155505060008181526002602052604080822080546001600160a01b0319166001600160a01b03861690811790915590518392907fddf252ad1be2c89b69c2b068fc378daa952ba7f163c4a11628f55a4df523b3ef908290a45050565b82805461421b90614cac565b90600052602060002090601f01602090048101928261423d5760008555614283565b82601f1061425657805160ff1916838001178555614283565b82800160010185558215614283579182015b82811115614283578251825591602001919060010190614268565b5061428f929150614293565b5090565b5b8082111561428f5760008155600101614294565b600067ffffffffffffffff808411156142c3576142c3614d58565b604051601f8501601f19908116603f011681019082821181831017156142eb576142eb614d58565b8160405280935085815286868601111561430457600080fd5b858560208301376000602087830101525050509392505050565b80356001600160a01b038116811461433557600080fd5b919050565b60008083601f84011261434c57600080fd5b50813567ffffffffffffffff81111561436457600080fd5b60208301915083602082850101111561437c57600080fd5b9250929050565b600082601f83011261439457600080fd5b613f16838335602085016142a8565b6000602082840312156143b557600080fd5b613f168261431e565b600080604083850312156143d157600080fd5b6143da8361431e565b91506143e86020840161431e565b90509250929050565b60008060006060848603121561440657600080fd5b61440f8461431e565b925061441d6020850161431e565b9150604084013590509250925092565b6000806000806080858703121561444357600080fd5b61444c8561431e565b935061445a6020860161431e565b925060408501359150606085013567ffffffffffffffff81111561447d57600080fd5b8501601f8101871361448e57600080fd5b61449d878235602084016142a8565b91505092959194509250565b600080604083850312156144bc57600080fd5b6144c58361431e565b915060208301356144d581614d6e565b809150509250929050565b600080604083850312156144f357600080fd5b6144fc8361431e565b9150602083013567ffffffffffffffff81111561451857600080fd5b61452485828601614383565b9150509250929050565b6000806040838503121561454157600080fd5b61454a8361431e565b946020939093013593505050565b60006020828403121561456a57600080fd5b8151613f1681614d6e565b60006020828403121561458757600080fd5b8135613f1681614d7c565b6000602082840312156145a457600080fd5b8151613f1681614d7c565b600080600080600080608087890312156145c857600080fd5b863567ffffffffffffffff808211156145e057600080fd5b6145ec8a838b0161433a565b909850965060208901359550604089013591508082111561460c57600080fd5b6146188a838b0161433a565b9095509350606089013591508082111561463157600080fd5b5061463e89828a01614383565b9150509295509295509295565b60006020828403121561465d57600080fd5b813567ffffffffffffffff81111561467457600080fd5b61386384828501614383565b6000806040838503121561469357600080fd5b823567ffffffffffffffff8111156146aa57600080fd5b6146b685828601614383565b9250506143e86020840161431e565b600080604083850312156146d857600080fd5b823567ffffffffffffffff808211156146f057600080fd5b6146fc86838701614383565b9350602085013591508082111561471257600080fd5b5061452485828601614383565b60006020828403121561473157600080fd5b5035919050565b60006020828403121561474a57600080fd5b5051919050565b6000806040838503121561476457600080fd5b82359150602083013567ffffffffffffffff81111561451857600080fd5b600081518084526020808501945080840160005b838110156147bb5781516001600160a01b031687529582019590820190600101614796565b509495945050505050565b6000815180845260208085019450848260051b860182860160005b8581101561480b5783830389526147f9838351614848565b988501989250908401906001016147e1565b5090979650505050505050565b600081518084526020808501945080840160005b838110156147bb5781518752958201959082019060010161482c565b60008151808452614860816020860160208601614c80565b601f01601f19169290920160200192915050565b8183823760009101908152919050565b60008251614896818460208701614c80565b9190910192915050565b600083516148b2818460208801614c80565b8351908301906148c6818360208801614c80565b01949350505050565b60006001600160a01b038087168352808616602084015250836040830152608060608301526149016080830184614848565b9695505050505050565b60e08152600061491e60e083018a6147c6565b8281036020840152614930818a614782565b905082810360408401526149448189614818565b905082810360608401526149588188614818565b9050828103608084015261496c81876147c6565b905082810360a08401526149808186614818565b905082810360c08401526149948185614782565b9a9950505050505050505050565b60006101008083526149b68184018c6147c6565b905082810360208401526149ca818b614782565b905082810360408401526149de818a614818565b905082810360608401526149f28189614818565b90508281036080840152614a068188614818565b905082810360a0840152614a1a81876147c6565b905082810360c0840152614a2e8186614818565b905082810360e0840152614a428185614782565b9b9a5050505050505050505050565b602081526000613f166020830184614848565b60a081526000614a7760a0830188614848565b6001600160a01b03871660208401528560408401528460608401528281036080840152614aa48185614848565b98975050505050505050565b60e081526000614ac360e083018a614848565b6001600160a01b03808a1660208501528860408501528760608501528382036080850152614af18288614848565b92508560a085015280851660c0850152505098975050505050505050565b6000610100808352614b238184018c614848565b90506001600160a01b03808b16602085015289604085015288606085015287608085015283820360a0850152614b598288614848565b92508560c085015280851660e085015250509998505050505050505050565b606081526000614b8b6060830186614848565b6020838203818501526000865481600182811c915080831680614baf57607f831692505b858310811415614bcd57634e487b7160e01b85526022600452602485fd5b828752602087019650808015614bea5760018114614bfb57614c26565b60ff19851688528688019550614c26565b60008c81526020902060005b85811015614c205781548a820152908401908801614c07565b89019650505b50505050508481036040860152614aa48187614848565b60008219821115614c5057614c50614d16565b500190565b600082614c6457614c64614d2c565b500490565b600082821015614c7b57614c7b614d16565b500390565b60005b83811015614c9b578181015183820152602001614c83565b838111156120ba5750506000910152565b600181811c90821680614cc057607f821691505b60208210811415614ce157634e487b7160e01b600052602260045260246000fd5b50919050565b6000600019821415614cfb57614cfb614d16565b5060010190565b600082614d1157614d11614d2c565b500690565b634e487b7160e01b600052601160045260246000fd5b634e487b7160e01b600052601260045260246000fd5b634e487b7160e01b600052603260045260246000fd5b634e487b7160e01b600052604160045260246000fd5b801515811461377b57600080fd5b6001600160e01b03198116811461377b57600080fdfea2646970667358221220cf22dffdbf0d227a220f242811055c031e6536b012988ae3d26ea37ea9ebcabd64736f6c63430008070033",
  "linkReferences": {},
  "deployedLinkReferences": {}
}