{
  "_format": "hh-sol-artifact-1",
  "contractName": "Realty",
  "sourceName": "contracts/Realty.sol",
  "abi": [
    {
      "anonymous": false,
      "inputs": [
        {
          "components": [
            {
              "internalType": "string",
              "name": "name",
              "type": "string"
            },
            {
              "internalType": "address",
              "name": "_lister",
              "type": "address"
            },
            {
              "internalType": "uint256",
              "name": "_amount",
              "type": "uint256"
            },
            {
              "internalType": "uint256",
              "name": "_time",
              "type": "uint256"
            },
            {
              "internalType": "string",
              "name": "_location",
              "type": "string"
            },
            {
              "internalType": "uint256",
              "name": "_id",
              "type": "uint256"
            },
            {
              "internalType": "address",
              "name": "_buyer",
              "type": "address"
            },
            {
              "internalType": "string",
              "name": "description",
              "type": "string"
            },
            {
              "internalType": "string",
              "name": "_cid",
              "type": "string"
            }
          ],
          "indexed": false,
          "internalType": "struct RealtyNFT.ListedProps[]",
          "name": "properties",
          "type": "tuple[]"
        }
      ],
      "name": "AllProperties",
      "type": "event"
    },
    {
      "anonymous": false,
      "inputs": [
        {
          "indexed": true,
          "internalType": "address",
          "name": "owner",
          "type": "address"
        },
        {
          "indexed": true,
          "internalType": "address",
          "name": "approved",
          "type": "address"
        },
        {
          "indexed": true,
          "internalType": "uint256",
          "name": "tokenId",
          "type": "uint256"
        }
      ],
      "name": "Approval",
      "type": "event"
    },
    {
      "anonymous": false,
      "inputs": [
        {
          "indexed": true,
          "internalType": "address",
          "name": "owner",
          "type": "address"
        },
        {
          "indexed": true,
          "internalType": "address",
          "name": "operator",
          "type": "address"
        },
        {
          "indexed": false,
          "internalType": "bool",
          "name": "approved",
          "type": "bool"
        }
      ],
      "name": "ApprovalForAll",
      "type": "event"
    },
    {
      "anonymous": false,
      "inputs": [
        {
          "components": [
            {
              "internalType": "string",
              "name": "name",
              "type": "string"
            },
            {
              "internalType": "address",
              "name": "_lister",
              "type": "address"
            },
            {
              "internalType": "uint256",
              "name": "_amount",
              "type": "uint256"
            },
            {
              "internalType": "uint256",
              "name": "_time",
              "type": "uint256"
            },
            {
              "internalType": "string",
              "name": "_location",
              "type": "string"
            },
            {
              "internalType": "uint256",
              "name": "_id",
              "type": "uint256"
            },
            {
              "internalType": "address",
              "name": "_buyer",
              "type": "address"
            },
            {
              "internalType": "string",
              "name": "description",
              "type": "string"
            },
            {
              "internalType": "string",
              "name": "_cid",
              "type": "string"
            }
          ],
          "indexed": false,
          "internalType": "struct RealtyNFT.ListedProps[]",
          "name": "properties",
          "type": "tuple[]"
        }
      ],
      "name": "CurrentUserProperties",
      "type": "event"
    },
    {
      "anonymous": false,
      "inputs": [
        {
          "indexed": false,
          "internalType": "string",
          "name": "name",
          "type": "string"
        },
        {
          "indexed": false,
          "internalType": "string",
          "name": "location",
          "type": "string"
        },
        {
          "indexed": false,
          "internalType": "string",
          "name": "tokenURL",
          "type": "string"
        }
      ],
      "name": "Listed",
      "type": "event"
    },
    {
      "anonymous": false,
      "inputs": [
        {
          "indexed": false,
          "internalType": "bool",
          "name": "submitted",
          "type": "bool"
        }
      ],
      "name": "Submitted",
      "type": "event"
    },
    {
      "anonymous": false,
      "inputs": [
        {
          "indexed": true,
          "internalType": "address",
          "name": "from",
          "type": "address"
        },
        {
          "indexed": true,
          "internalType": "address",
          "name": "to",
          "type": "address"
        },
        {
          "indexed": true,
          "internalType": "uint256",
          "name": "tokenId",
          "type": "uint256"
        }
      ],
      "name": "Transfer",
      "type": "event"
    },
    {
      "inputs": [
        {
          "internalType": "uint256",
          "name": "",
          "type": "uint256"
        }
      ],
      "name": "_idExists",
      "outputs": [
        {
          "internalType": "bool",
          "name": "",
          "type": "bool"
        }
      ],
      "stateMutability": "view",
      "type": "function"
    },
    {
      "inputs": [
        {
          "internalType": "string",
          "name": "",
          "type": "string"
        }
      ],
      "name": "_isTokenAcceptable",
      "outputs": [
        {
          "internalType": "bool",
          "name": "",
          "type": "bool"
        }
      ],
      "stateMutability": "view",
      "type": "function"
    },
    {
      "inputs": [
        {
          "internalType": "uint256",
          "name": "",
          "type": "uint256"
        }
      ],
      "name": "_trackListingsWithID",
      "outputs": [
        {
          "internalType": "string",
          "name": "name",
          "type": "string"
        },
        {
          "internalType": "address",
          "name": "_lister",
          "type": "address"
        },
        {
          "internalType": "uint256",
          "name": "_amount",
          "type": "uint256"
        },
        {
          "internalType": "uint256",
          "name": "_time",
          "type": "uint256"
        },
        {
          "internalType": "string",
          "name": "_location",
          "type": "string"
        },
        {
          "internalType": "uint256",
          "name": "_id",
          "type": "uint256"
        },
        {
          "internalType": "address",
          "name": "_buyer",
          "type": "address"
        },
        {
          "internalType": "string",
          "name": "description",
          "type": "string"
        },
        {
          "internalType": "string",
          "name": "_cid",
          "type": "string"
        }
      ],
      "stateMutability": "view",
      "type": "function"
    },
    {
      "inputs": [
        {
          "internalType": "address",
          "name": "",
          "type": "address"
        },
        {
          "internalType": "uint256",
          "name": "",
          "type": "uint256"
        }
      ],
      "name": "allBoughtPerAddress",
      "outputs": [
        {
          "internalType": "string",
          "name": "name",
          "type": "string"
        },
        {
          "internalType": "address",
          "name": "originalLister",
          "type": "address"
        },
        {
          "internalType": "uint256",
          "name": "_amount",
          "type": "uint256"
        },
        {
          "internalType": "uint256",
          "name": "_time",
          "type": "uint256"
        },
        {
          "internalType": "uint256",
          "name": "purchaseTime",
          "type": "uint256"
        },
        {
          "internalType": "string",
          "name": "_location",
          "type": "string"
        },
        {
          "internalType": "uint256",
          "name": "_id",
          "type": "uint256"
        },
        {
          "internalType": "address",
          "name": "newOwner",
          "type": "address"
        },
        {
          "internalType": "string",
          "name": "description",
          "type": "string"
        },
        {
          "internalType": "string",
          "name": "_cid",
          "type": "string"
        }
      ],
      "stateMutability": "view",
      "type": "function"
    },
    {
      "inputs": [
        {
          "internalType": "address",
          "name": "",
          "type": "address"
        },
        {
          "internalType": "uint256",
          "name": "",
          "type": "uint256"
        }
      ],
      "name": "allListedPerAddress",
      "outputs": [
        {
          "internalType": "string",
          "name": "name",
          "type": "string"
        },
        {
          "internalType": "address",
          "name": "_lister",
          "type": "address"
        },
        {
          "internalType": "uint256",
          "name": "_amount",
          "type": "uint256"
        },
        {
          "internalType": "uint256",
          "name": "_time",
          "type": "uint256"
        },
        {
          "internalType": "string",
          "name": "_location",
          "type": "string"
        },
        {
          "internalType": "uint256",
          "name": "_id",
          "type": "uint256"
        },
        {
          "internalType": "address",
          "name": "_buyer",
          "type": "address"
        },
        {
          "internalType": "string",
          "name": "description",
          "type": "string"
        },
        {
          "internalType": "string",
          "name": "_cid",
          "type": "string"
        }
      ],
      "stateMutability": "view",
      "type": "function"
    },
    {
      "inputs": [
        {
          "internalType": "uint256",
          "name": "",
          "type": "uint256"
        }
      ],
      "name": "allListedProperties",
      "outputs": [
        {
          "internalType": "string",
          "name": "name",
          "type": "string"
        },
        {
          "internalType": "address",
          "name": "_lister",
          "type": "address"
        },
        {
          "internalType": "uint256",
          "name": "_amount",
          "type": "uint256"
        },
        {
          "internalType": "uint256",
          "name": "_time",
          "type": "uint256"
        },
        {
          "internalType": "string",
          "name": "_location",
          "type": "string"
        },
        {
          "internalType": "uint256",
          "name": "_id",
          "type": "uint256"
        },
        {
          "internalType": "address",
          "name": "_buyer",
          "type": "address"
        },
        {
          "internalType": "string",
          "name": "description",
          "type": "string"
        },
        {
          "internalType": "string",
          "name": "_cid",
          "type": "string"
        }
      ],
      "stateMutability": "view",
      "type": "function"
    },
    {
      "inputs": [
        {
          "internalType": "address",
          "name": "",
          "type": "address"
        },
        {
          "internalType": "uint256",
          "name": "",
          "type": "uint256"
        }
      ],
      "name": "allListingsPerAddress",
      "outputs": [
        {
          "internalType": "string",
          "name": "name",
          "type": "string"
        },
        {
          "internalType": "address",
          "name": "_lister",
          "type": "address"
        },
        {
          "internalType": "uint256",
          "name": "_amount",
          "type": "uint256"
        },
        {
          "internalType": "uint256",
          "name": "_time",
          "type": "uint256"
        },
        {
          "internalType": "string",
          "name": "_location",
          "type": "string"
        },
        {
          "internalType": "string",
          "name": "description",
          "type": "string"
        },
        {
          "internalType": "string",
          "name": "_cid",
          "type": "string"
        }
      ],
      "stateMutability": "view",
      "type": "function"
    },
    {
      "inputs": [
        {
          "internalType": "address",
          "name": "to",
          "type": "address"
        },
        {
          "internalType": "uint256",
          "name": "tokenId",
          "type": "uint256"
        }
      ],
      "name": "approve",
      "outputs": [],
      "stateMutability": "nonpayable",
      "type": "function"
    },
    {
      "inputs": [
        {
          "internalType": "address",
          "name": "owner",
          "type": "address"
        }
      ],
      "name": "balanceOf",
      "outputs": [
        {
          "internalType": "uint256",
          "name": "",
          "type": "uint256"
        }
      ],
      "stateMutability": "view",
      "type": "function"
    },
    {
      "inputs": [
        {
          "internalType": "string",
          "name": "symbol",
          "type": "string"
        }
      ],
      "name": "contractBalance",
      "outputs": [
        {
          "internalType": "uint256",
          "name": "",
          "type": "uint256"
        }
      ],
      "stateMutability": "view",
      "type": "function"
    },
    {
      "inputs": [],
      "name": "getAllProperties",
      "outputs": [
        {
          "internalType": "string[]",
          "name": "",
          "type": "string[]"
        },
        {
          "internalType": "address[]",
          "name": "",
          "type": "address[]"
        },
        {
          "internalType": "uint256[]",
          "name": "",
          "type": "uint256[]"
        },
        {
          "internalType": "uint256[]",
          "name": "",
          "type": "uint256[]"
        },
        {
          "internalType": "string[]",
          "name": "",
          "type": "string[]"
        },
        {
          "internalType": "string[]",
          "name": "",
          "type": "string[]"
        },
        {
          "internalType": "address[]",
          "name": "",
          "type": "address[]"
        },
        {
          "internalType": "string[]",
          "name": "",
          "type": "string[]"
        }
      ],
      "stateMutability": "view",
      "type": "function"
    },
    {
      "inputs": [
        {
          "internalType": "uint256",
          "name": "tokenId",
          "type": "uint256"
        }
      ],
      "name": "getApproved",
      "outputs": [
        {
          "internalType": "address",
          "name": "",
          "type": "address"
        }
      ],
      "stateMutability": "view",
      "type": "function"
    },
    {
      "inputs": [],
      "name": "getMyListedProperties",
      "outputs": [
        {
          "internalType": "string[]",
          "name": "",
          "type": "string[]"
        },
        {
          "internalType": "address[]",
          "name": "",
          "type": "address[]"
        },
        {
          "internalType": "uint256[]",
          "name": "",
          "type": "uint256[]"
        },
        {
          "internalType": "uint256[]",
          "name": "",
          "type": "uint256[]"
        },
        {
          "internalType": "string[]",
          "name": "",
          "type": "string[]"
        },
        {
          "internalType": "string[]",
          "name": "",
          "type": "string[]"
        },
        {
          "internalType": "address[]",
          "name": "",
          "type": "address[]"
        },
        {
          "internalType": "string[]",
          "name": "",
          "type": "string[]"
        }
      ],
      "stateMutability": "view",
      "type": "function"
    },
    {
      "inputs": [],
      "name": "getMyPurchasedProperties",
      "outputs": [
        {
          "internalType": "string[]",
          "name": "",
          "type": "string[]"
        },
        {
          "internalType": "address[]",
          "name": "",
          "type": "address[]"
        },
        {
          "internalType": "uint256[]",
          "name": "",
          "type": "uint256[]"
        },
        {
          "internalType": "uint256[]",
          "name": "",
          "type": "uint256[]"
        },
        {
          "internalType": "string[]",
          "name": "",
          "type": "string[]"
        },
        {
          "internalType": "string[]",
          "name": "",
          "type": "string[]"
        },
        {
          "internalType": "address[]",
          "name": "",
          "type": "address[]"
        },
        {
          "internalType": "string[]",
          "name": "",
          "type": "string[]"
        }
      ],
      "stateMutability": "view",
      "type": "function"
    },
    {
      "inputs": [
        {
          "internalType": "address",
          "name": "",
          "type": "address"
        },
        {
          "internalType": "string",
          "name": "",
          "type": "string"
        }
      ],
      "name": "hasMinted",
      "outputs": [
        {
          "internalType": "bool",
          "name": "",
          "type": "bool"
        }
      ],
      "stateMutability": "view",
      "type": "function"
    },
    {
      "inputs": [
        {
          "internalType": "address",
          "name": "owner",
          "type": "address"
        },
        {
          "internalType": "address",
          "name": "operator",
          "type": "address"
        }
      ],
      "name": "isApprovedForAll",
      "outputs": [
        {
          "internalType": "bool",
          "name": "",
          "type": "bool"
        }
      ],
      "stateMutability": "view",
      "type": "function"
    },
    {
      "inputs": [
        {
          "internalType": "address",
          "name": "",
          "type": "address"
        },
        {
          "internalType": "string",
          "name": "",
          "type": "string"
        }
      ],
      "name": "isListed",
      "outputs": [
        {
          "internalType": "bool",
          "name": "",
          "type": "bool"
        }
      ],
      "stateMutability": "view",
      "type": "function"
    },
    {
      "inputs": [
        {
          "internalType": "string",
          "name": "name",
          "type": "string"
        },
        {
          "internalType": "uint256",
          "name": "_amount",
          "type": "uint256"
        },
        {
          "internalType": "string",
          "name": "_location",
          "type": "string"
        },
        {
          "internalType": "string",
          "name": "_symbol",
          "type": "string"
        },
        {
          "internalType": "string",
          "name": "_description",
          "type": "string"
        },
        {
          "internalType": "string",
          "name": "_cid",
          "type": "string"
        }
      ],
      "name": "listProperty",
      "outputs": [
        {
          "internalType": "bool",
          "name": "",
          "type": "bool"
        }
      ],
      "stateMutability": "nonpayable",
      "type": "function"
    },
    {
      "inputs": [
        {
          "internalType": "address",
          "name": "",
          "type": "address"
        }
      ],
      "name": "listed",
      "outputs": [
        {
          "internalType": "string",
          "name": "name",
          "type": "string"
        },
        {
          "internalType": "address",
          "name": "_lister",
          "type": "address"
        },
        {
          "internalType": "uint256",
          "name": "_amount",
          "type": "uint256"
        },
        {
          "internalType": "uint256",
          "name": "_time",
          "type": "uint256"
        },
        {
          "internalType": "string",
          "name": "_location",
          "type": "string"
        },
        {
          "internalType": "uint256",
          "name": "_id",
          "type": "uint256"
        },
        {
          "internalType": "address",
          "name": "_buyer",
          "type": "address"
        },
        {
          "internalType": "string",
          "name": "description",
          "type": "string"
        },
        {
          "internalType": "string",
          "name": "_cid",
          "type": "string"
        }
      ],
      "stateMutability": "view",
      "type": "function"
    },
    {
      "inputs": [
        {
          "internalType": "address",
          "name": "",
          "type": "address"
        }
      ],
      "name": "listings",
      "outputs": [
        {
          "internalType": "string",
          "name": "name",
          "type": "string"
        },
        {
          "internalType": "address",
          "name": "_lister",
          "type": "address"
        },
        {
          "internalType": "uint256",
          "name": "_amount",
          "type": "uint256"
        },
        {
          "internalType": "uint256",
          "name": "_time",
          "type": "uint256"
        },
        {
          "internalType": "string",
          "name": "_location",
          "type": "string"
        },
        {
          "internalType": "string",
          "name": "description",
          "type": "string"
        },
        {
          "internalType": "string",
          "name": "_cid",
          "type": "string"
        }
      ],
      "stateMutability": "view",
      "type": "function"
    },
    {
      "inputs": [
        {
          "internalType": "string",
          "name": "_name",
          "type": "string"
        }
      ],
      "name": "mintNFT",
      "outputs": [
        {
          "internalType": "uint256",
          "name": "",
          "type": "uint256"
        }
      ],
      "stateMutability": "nonpayable",
      "type": "function"
    },
    {
      "inputs": [],
      "name": "name",
      "outputs": [
        {
          "internalType": "string",
          "name": "",
          "type": "string"
        }
      ],
      "stateMutability": "view",
      "type": "function"
    },
    {
      "inputs": [],
      "name": "nullAddress",
      "outputs": [
        {
          "internalType": "address",
          "name": "",
          "type": "address"
        }
      ],
      "stateMutability": "view",
      "type": "function"
    },
    {
      "inputs": [
        {
          "internalType": "uint256",
          "name": "tokenId",
          "type": "uint256"
        }
      ],
      "name": "ownerOf",
      "outputs": [
        {
          "internalType": "address",
          "name": "",
          "type": "address"
        }
      ],
      "stateMutability": "view",
      "type": "function"
    },
    {
      "inputs": [
        {
          "internalType": "uint256",
          "name": "_id",
          "type": "uint256"
        },
        {
          "internalType": "string",
          "name": "symbol",
          "type": "string"
        }
      ],
      "name": "payForProperty",
      "outputs": [],
      "stateMutability": "nonpayable",
      "type": "function"
    },
    {
      "inputs": [
        {
          "internalType": "string",
          "name": "",
          "type": "string"
        }
      ],
      "name": "paymentTokens",
      "outputs": [
        {
          "internalType": "address",
          "name": "",
          "type": "address"
        }
      ],
      "stateMutability": "view",
      "type": "function"
    },
    {
      "inputs": [
        {
          "internalType": "address",
          "name": "",
          "type": "address"
        }
      ],
      "name": "propertyID",
      "outputs": [
        {
          "internalType": "uint256",
          "name": "",
          "type": "uint256"
        }
      ],
      "stateMutability": "view",
      "type": "function"
    },
    {
      "inputs": [
        {
          "internalType": "address",
          "name": "from",
          "type": "address"
        },
        {
          "internalType": "address",
          "name": "to",
          "type": "address"
        },
        {
          "internalType": "uint256",
          "name": "tokenId",
          "type": "uint256"
        }
      ],
      "name": "safeTransferFrom",
      "outputs": [],
      "stateMutability": "nonpayable",
      "type": "function"
    },
    {
      "inputs": [
        {
          "internalType": "address",
          "name": "from",
          "type": "address"
        },
        {
          "internalType": "address",
          "name": "to",
          "type": "address"
        },
        {
          "internalType": "uint256",
          "name": "tokenId",
          "type": "uint256"
        },
        {
          "internalType": "bytes",
          "name": "data",
          "type": "bytes"
        }
      ],
      "name": "safeTransferFrom",
      "outputs": [],
      "stateMutability": "nonpayable",
      "type": "function"
    },
    {
      "inputs": [
        {
          "internalType": "address",
          "name": "operator",
          "type": "address"
        },
        {
          "internalType": "bool",
          "name": "approved",
          "type": "bool"
        }
      ],
      "name": "setApprovalForAll",
      "outputs": [],
      "stateMutability": "nonpayable",
      "type": "function"
    },
    {
      "inputs": [
        {
          "internalType": "string",
          "name": "symbol",
          "type": "string"
        },
        {
          "internalType": "address",
          "name": "tokenAddress",
          "type": "address"
        }
      ],
      "name": "setPaymentToken",
      "outputs": [],
      "stateMutability": "nonpayable",
      "type": "function"
    },
    {
      "inputs": [
        {
          "internalType": "bytes4",
          "name": "interfaceId",
          "type": "bytes4"
        }
      ],
      "name": "supportsInterface",
      "outputs": [
        {
          "internalType": "bool",
          "name": "",
          "type": "bool"
        }
      ],
      "stateMutability": "view",
      "type": "function"
    },
    {
      "inputs": [],
      "name": "symbol",
      "outputs": [
        {
          "internalType": "string",
          "name": "",
          "type": "string"
        }
      ],
      "stateMutability": "view",
      "type": "function"
    },
    {
      "inputs": [
        {
          "internalType": "uint256",
          "name": "_tokenId",
          "type": "uint256"
        }
      ],
      "name": "tokenURI",
      "outputs": [
        {
          "internalType": "string",
          "name": "",
          "type": "string"
        }
      ],
      "stateMutability": "view",
      "type": "function"
    },
    {
      "inputs": [],
      "name": "tokensMinted",
      "outputs": [
        {
          "internalType": "uint256",
          "name": "",
          "type": "uint256"
        }
      ],
      "stateMutability": "view",
      "type": "function"
    },
    {
      "inputs": [
        {
          "internalType": "address",
          "name": "from",
          "type": "address"
        },
        {
          "internalType": "address",
          "name": "to",
          "type": "address"
        },
        {
          "internalType": "uint256",
          "name": "tokenId",
          "type": "uint256"
        }
      ],
      "name": "transferFrom",
      "outputs": [],
      "stateMutability": "nonpayable",
      "type": "function"
    },
    {
      "inputs": [
        {
          "internalType": "string",
          "name": "symbol",
          "type": "string"
        }
      ],
      "name": "userBalance",
      "outputs": [
        {
          "internalType": "uint256",
          "name": "",
          "type": "uint256"
        }
      ],
      "stateMutability": "view",
      "type": "function"
    }
  ],
  "bytecode": "0x60806040523480156200001157600080fd5b5060408051808201825260068152655265616c747960d01b60208083019182528351808501909452600384526214931560ea1b9084015281519192916200005b916000916200008c565b508051620000719060019060208401906200008c565b5050600880546001600160a01b03191633179055506200016f565b8280546200009a9062000132565b90600052602060002090601f016020900481019282620000be576000855562000109565b82601f10620000d957805160ff191683800117855562000109565b8280016001018555821562000109579182015b8281111562000109578251825591602001919060010190620000ec565b50620001179291506200011b565b5090565b5b808211156200011757600081556001016200011c565b600181811c908216806200014757607f821691505b602082108114156200016957634e487b7160e01b600052602260045260246000fd5b50919050565b615d4b806200017f6000396000f3fe608060405234801561001057600080fd5b50600436106102775760003560e01c806370a0823111610160578063a906e6e0116100d8578063e985e9c51161008c578063eccfa80d11610071578063eccfa80d1461062c578063fb37e8831461063f578063ffb1500e1461065257600080fd5b8063e985e9c5146105b1578063ea299612146105ed57600080fd5b8063c332560f116100bd578063c332560f14610583578063c87b56dd1461058b578063d5dc7be51461059e57600080fd5b8063a906e6e01461053c578063b88d4fde1461057057600080fd5b806395d89b411161012f57806397e82b9f1161011457806397e82b9f146104f3578063a22cb46514610506578063a9068c581461051957600080fd5b806395d89b41146104ac57806395f5fd1d146104b457600080fd5b806370a082311461043d57806377c2f29b14610450578063799d514f1461047057806388ad4e2c1461048357600080fd5b806342842e0e116101f3578063551edf90116101c257806364138230116101a7578063641382301461040f57806365d96c82146104225780636de9f32b1461043557600080fd5b8063551edf90146103f35780636352211e146103fc57600080fd5b806342842e0e1461037f5780634562e30e1461039257806348fb983d146103ba5780634e5a2407146103cd57600080fd5b80631536aedd1161024a5780633ae4f3491161022f5780633ae4f3491461032d5780633b527e281461035b5780633d51402c1461037757600080fd5b80631536aedd146102f957806323b872dd1461031a57600080fd5b806301ffc9a71461027c57806306fdde03146102a4578063081812fc146102b9578063095ea7b3146102e4575b600080fd5b61028f61028a366004615506565b610665565b60405190151581526020015b60405180910390f35b6102ac610702565b60405161029b91906159de565b6102cc6102c73660046156a0565b610794565b6040516001600160a01b03909116815260200161029b565b6102f76102f23660046154bf565b6107bb565b005b61030c610307366004615626565b6108f2565b60405190815260200161029b565b6102f7610328366004615382565b610988565b61028f61033b366004615626565b8051602081830181018051600a8252928201919093012091525460ff1681565b610363610a0f565b60405161029b98979695949392919061592f565b610363611154565b6102f761038d366004615382565b611802565b6103a56103a03660046154bf565b61181d565b60405161029b99989796959493929190615a67565b6102f76103c836600461565b565b611ac5565b6103e06103db3660046154bf565b611bbe565b60405161029b97969594939291906159f1565b6102cc61dead81565b6102cc61040a3660046156a0565b611e4c565b6103a561041d366004615334565b611eb1565b6103e0610430366004615334565b611ecc565b61030c611ee7565b61030c61044b366004615334565b611ef7565b61030c61045e366004615334565b600e6020526000908152604090205481565b61028f61047e366004615540565b611f91565b6104966104913660046154bf565b6123f5565b60405161029b9a99989796959493929190615af3565b6102ac6126a3565b61028f6104c2366004615471565b600d602090815260009283526040909220815180830184018051928152908401929093019190912091525460ff1681565b6103a56105013660046156a0565b6126b2565b6102f761051436600461543a565b6126e5565b61028f6105273660046156a0565b600b6020526000908152604090205460ff1681565b6102cc61054a366004615626565b80516020818301810180516009825292820191909301209152546001600160a01b031681565b6102f761057e3660046153be565b6126f4565b610363612782565b6102ac6105993660046156a0565b612ea3565b6103a56105ac3660046156a0565b612eae565b61028f6105bf36600461534f565b6001600160a01b03918216600090815260056020908152604080832093909416825291909152205460ff1690565b61028f6105fb366004615471565b600c602090815260009283526040909220815180830184018051928152908401929093019190912091525460ff1681565b6102f761063a3660046156d2565b612ec9565b61030c61064d366004615626565b6137df565b61030c610660366004615626565b61465e565b60006001600160e01b031982167f80ac58cd0000000000000000000000000000000000000000000000000000000014806106c857506001600160e01b031982167f5b5e139f00000000000000000000000000000000000000000000000000000000145b806106fc57507f01ffc9a7000000000000000000000000000000000000000000000000000000006001600160e01b03198316145b92915050565b60606000805461071190615c2f565b80601f016020809104026020016040519081016040528092919081815260200182805461073d90615c2f565b801561078a5780601f1061075f5761010080835404028352916020019161078a565b820191906000526020600020905b81548152906001019060200180831161076d57829003601f168201915b5050505050905090565b600061079f826146a8565b506000908152600460205260409020546001600160a01b031690565b60006107c682611e4c565b9050806001600160a01b0316836001600160a01b031614156108555760405162461bcd60e51b815260206004820152602160248201527f4552433732313a20617070726f76616c20746f2063757272656e74206f776e6560448201527f720000000000000000000000000000000000000000000000000000000000000060648201526084015b60405180910390fd5b336001600160a01b0382161480610871575061087181336105bf565b6108e35760405162461bcd60e51b815260206004820152603e60248201527f4552433732313a20617070726f76652063616c6c6572206973206e6f7420746f60448201527f6b656e206f776e6572206e6f7220617070726f76656420666f7220616c6c0000606482015260840161084c565b6108ed838361470f565b505050565b600060098260405161090491906158a8565b908152604051908190036020018120546370a0823160e01b82523360048301526001600160a01b0316906370a08231906024015b60206040518083038186803b15801561095057600080fd5b505afa158015610964573d6000803e3d6000fd5b505050506040513d601f19601f820116820180604052508101906106fc91906156b9565b610992338261477d565b610a045760405162461bcd60e51b815260206004820152602e60248201527f4552433732313a2063616c6c6572206973206e6f7420746f6b656e206f776e6560448201527f72206e6f7220617070726f766564000000000000000000000000000000000000606482015260840161084c565b6108ed8383836147fc565b33600090815260156020526040812054606091829182918291829182918291829167ffffffffffffffff811115610a4857610a48615cdb565b604051908082528060200260200182016040528015610a7b57816020015b6060815260200190600190039081610a665790505b50336000908152601560205260408120549192509067ffffffffffffffff811115610aa857610aa8615cdb565b604051908082528060200260200182016040528015610ad1578160200160208202803683370190505b50336000908152601560205260408120549192509067ffffffffffffffff811115610afe57610afe615cdb565b604051908082528060200260200182016040528015610b27578160200160208202803683370190505b50336000908152601560205260408120549192509067ffffffffffffffff811115610b5457610b54615cdb565b604051908082528060200260200182016040528015610b7d578160200160208202803683370190505b50336000908152601560205260408120549192509067ffffffffffffffff811115610baa57610baa615cdb565b604051908082528060200260200182016040528015610bdd57816020015b6060815260200190600190039081610bc85790505b50336000908152601560205260408120549192509067ffffffffffffffff811115610c0a57610c0a615cdb565b604051908082528060200260200182016040528015610c3d57816020015b6060815260200190600190039081610c285790505b50336000908152601560205260408120549192509067ffffffffffffffff811115610c6a57610c6a615cdb565b604051908082528060200260200182016040528015610c93578160200160208202803683370190505b50336000908152601560205260408120549192509067ffffffffffffffff811115610cc057610cc0615cdb565b604051908082528060200260200182016040528015610cf357816020015b6060815260200190600190039081610cde5790505b50905060005b3360009081526015602052604090205481101561113b57336000908152601560205260408120805483908110610d3157610d31615cc5565b90600052602060002090600a020160405180610140016040529081600082018054610d5b90615c2f565b80601f0160208091040260200160405190810160405280929190818152602001828054610d8790615c2f565b8015610dd45780601f10610da957610100808354040283529160200191610dd4565b820191906000526020600020905b815481529060010190602001808311610db757829003601f168201915b505050918352505060018201546001600160a01b0316602082015260028201546040820152600382015460608201526004820154608082015260058201805460a090920191610e2290615c2f565b80601f0160208091040260200160405190810160405280929190818152602001828054610e4e90615c2f565b8015610e9b5780601f10610e7057610100808354040283529160200191610e9b565b820191906000526020600020905b815481529060010190602001808311610e7e57829003601f168201915b50505091835250506006820154602082015260078201546001600160a01b03166040820152600882018054606090920191610ed590615c2f565b80601f0160208091040260200160405190810160405280929190818152602001828054610f0190615c2f565b8015610f4e5780601f10610f2357610100808354040283529160200191610f4e565b820191906000526020600020905b815481529060010190602001808311610f3157829003601f168201915b50505050508152602001600982018054610f6790615c2f565b80601f0160208091040260200160405190810160405280929190818152602001828054610f9390615c2f565b8015610fe05780601f10610fb557610100808354040283529160200191610fe0565b820191906000526020600020905b815481529060010190602001808311610fc357829003601f168201915b505050505081525050905080600001518a838151811061100257611002615cc5565b6020026020010181905250806020015189838151811061102457611024615cc5565b60200260200101906001600160a01b031690816001600160a01b031681525050806040015188838151811061105b5761105b615cc5565b6020026020010181815250508060c0015187838151811061107e5761107e615cc5565b6020026020010181815250508060a001518683815181106110a1576110a1615cc5565b60200260200101819052508061010001518583815181106110c4576110c4615cc5565b60200260200101819052508060e001518483815181106110e6576110e6615cc5565b60200260200101906001600160a01b031690816001600160a01b03168152505080610120015183838151811061111e5761111e615cc5565b6020026020010181905250508061113490615c6a565b9050610cf9565b50969f959e50939c50919a509850965094509092509050565b606080606080606080606080600060148054905067ffffffffffffffff81111561118057611180615cdb565b6040519080825280602002602001820160405280156111b357816020015b606081526020019060019003908161119e5790505b5060145490915060009067ffffffffffffffff8111156111d5576111d5615cdb565b6040519080825280602002602001820160405280156111fe578160200160208202803683370190505b5060145490915060009067ffffffffffffffff81111561122057611220615cdb565b604051908082528060200260200182016040528015611249578160200160208202803683370190505b5060145490915060009067ffffffffffffffff81111561126b5761126b615cdb565b604051908082528060200260200182016040528015611294578160200160208202803683370190505b5060145490915060009067ffffffffffffffff8111156112b6576112b6615cdb565b6040519080825280602002602001820160405280156112e957816020015b60608152602001906001900390816112d45790505b5060145490915060009067ffffffffffffffff81111561130b5761130b615cdb565b60405190808252806020026020018201604052801561133e57816020015b60608152602001906001900390816113295790505b5060145490915060009067ffffffffffffffff81111561136057611360615cdb565b604051908082528060200260200182016040528015611389578160200160208202803683370190505b5060145490915060009067ffffffffffffffff8111156113ab576113ab615cdb565b6040519080825280602002602001820160405280156113de57816020015b60608152602001906001900390816113c95790505b50905060005b60145481101561113b5760006014828154811061140357611403615cc5565b90600052602060002090600902016040518061012001604052908160008201805461142d90615c2f565b80601f016020809104026020016040519081016040528092919081815260200182805461145990615c2f565b80156114a65780601f1061147b576101008083540402835291602001916114a6565b820191906000526020600020905b81548152906001019060200180831161148957829003601f168201915b505050918352505060018201546001600160a01b0316602082015260028201546040820152600382015460608201526004820180546080909201916114ea90615c2f565b80601f016020809104026020016040519081016040528092919081815260200182805461151690615c2f565b80156115635780601f1061153857610100808354040283529160200191611563565b820191906000526020600020905b81548152906001019060200180831161154657829003601f168201915b50505091835250506005820154602082015260068201546001600160a01b0316604082015260078201805460609092019161159d90615c2f565b80601f01602080910402602001604051908101604052809291908181526020018280546115c990615c2f565b80156116165780601f106115eb57610100808354040283529160200191611616565b820191906000526020600020905b8154815290600101906020018083116115f957829003601f168201915b5050505050815260200160088201805461162f90615c2f565b80601f016020809104026020016040519081016040528092919081815260200182805461165b90615c2f565b80156116a85780601f1061167d576101008083540402835291602001916116a8565b820191906000526020600020905b81548152906001019060200180831161168b57829003601f168201915b505050505081525050905080600001518a83815181106116ca576116ca615cc5565b602002602001018190525080602001518983815181106116ec576116ec615cc5565b60200260200101906001600160a01b031690816001600160a01b031681525050806040015188838151811061172357611723615cc5565b6020026020010181815250508060a0015187838151811061174657611746615cc5565b602002602001018181525050806080015186838151811061176957611769615cc5565b60200260200101819052508060e0015185838151811061178b5761178b615cc5565b60200260200101819052508060c001518483815181106117ad576117ad615cc5565b60200260200101906001600160a01b031690816001600160a01b0316815250508061010001518383815181106117e5576117e5615cc5565b602002602001018190525050806117fb90615c6a565b90506113e4565b6108ed838383604051806020016040528060008152506126f4565b6013602052816000526040600020818154811061183957600080fd5b90600052602060002090600902016000915091505080600001805461185d90615c2f565b80601f016020809104026020016040519081016040528092919081815260200182805461188990615c2f565b80156118d65780601f106118ab576101008083540402835291602001916118d6565b820191906000526020600020905b8154815290600101906020018083116118b957829003601f168201915b50505060018401546002850154600386015460048701805496976001600160a01b03909416969295509093509061190c90615c2f565b80601f016020809104026020016040519081016040528092919081815260200182805461193890615c2f565b80156119855780601f1061195a57610100808354040283529160200191611985565b820191906000526020600020905b81548152906001019060200180831161196857829003601f168201915b5050505060058301546006840154600785018054949592946001600160a01b039092169350906119b490615c2f565b80601f01602080910402602001604051908101604052809291908181526020018280546119e090615c2f565b8015611a2d5780601f10611a0257610100808354040283529160200191611a2d565b820191906000526020600020905b815481529060010190602001808311611a1057829003601f168201915b505050505090806008018054611a4290615c2f565b80601f0160208091040260200160405190810160405280929190818152602001828054611a6e90615c2f565b8015611abb5780601f10611a9057610100808354040283529160200191611abb565b820191906000526020600020905b815481529060010190602001808311611a9e57829003601f168201915b5050505050905089565b6008546001600160a01b03163314611b455760405162461bcd60e51b815260206004820152602260248201527f4f6e6c79206f776e65722063616e2063616c6c20746869732066756e6374696f60448201527f6e2e000000000000000000000000000000000000000000000000000000000000606482015260840161084c565b80600983604051611b5691906158a8565b908152602001604051809103902060006101000a8154816001600160a01b0302191690836001600160a01b031602179055506001600a83604051611b9a91906158a8565b908152604051908190036020019020805491151560ff199092169190911790555050565b60116020528160005260406000208181548110611bda57600080fd5b906000526020600020906007020160009150915050806000018054611bfe90615c2f565b80601f0160208091040260200160405190810160405280929190818152602001828054611c2a90615c2f565b8015611c775780601f10611c4c57610100808354040283529160200191611c77565b820191906000526020600020905b815481529060010190602001808311611c5a57829003601f168201915b50505060018401546002850154600386015460048701805496976001600160a01b039094169692955090935090611cad90615c2f565b80601f0160208091040260200160405190810160405280929190818152602001828054611cd990615c2f565b8015611d265780601f10611cfb57610100808354040283529160200191611d26565b820191906000526020600020905b815481529060010190602001808311611d0957829003601f168201915b505050505090806005018054611d3b90615c2f565b80601f0160208091040260200160405190810160405280929190818152602001828054611d6790615c2f565b8015611db45780601f10611d8957610100808354040283529160200191611db4565b820191906000526020600020905b815481529060010190602001808311611d9757829003601f168201915b505050505090806006018054611dc990615c2f565b80601f0160208091040260200160405190810160405280929190818152602001828054611df590615c2f565b8015611e425780601f10611e1757610100808354040283529160200191611e42565b820191906000526020600020905b815481529060010190602001808311611e2557829003601f168201915b5050505050905087565b6000818152600260205260408120546001600160a01b0316806106fc5760405162461bcd60e51b815260206004820152601860248201527f4552433732313a20696e76616c696420746f6b656e2049440000000000000000604482015260640161084c565b60106020526000908152604090208054819061185d90615c2f565b600f60205260009081526040902080548190611bfe90615c2f565b6000611ef260075490565b905090565b60006001600160a01b038216611f755760405162461bcd60e51b815260206004820152602960248201527f4552433732313a2061646472657373207a65726f206973206e6f74206120766160448201527f6c6964206f776e65720000000000000000000000000000000000000000000000606482015260840161084c565b506001600160a01b031660009081526003602052604090205490565b6000600a84604051611fa391906158a8565b9081526040519081900360200190205460ff1615156001146120075760405162461bcd60e51b815260206004820152601c60248201527f5061796d656e7420746f6b656e2069736e277420616363657074656400000000604482015260640161084c565b60098460405161201791906158a8565b908152604051908190036020018120546323b872dd60e01b82523360048301523060248301526706f05b59d3b2000060448301526001600160a01b0316906323b872dd90606401602060405180830381600087803b15801561207857600080fd5b505af115801561208c573d6000803e3d6000fd5b505050506040513d601f19601f820116820180604052508101906120b091906154e9565b50336000908152600c6020526040908190209051600191906120d5908c908c90615898565b908152602001604051809103902060006101000a81548160ff0219169083151502179055506040518060e001604052808a8a8080601f0160208091040260200160405190810160405280939291908181526020018383808284376000920191909152505050908252503360208083019190915260408083018b90524260608401528051601f8a01839004830281018301909152888152608090920191908990899081908401838280828437600092018290525093855250505060208083018790526040928301869052338252600f81529190208251805191926121bd928492909101906151a0565b506020828101516001830180546001600160a01b0319166001600160a01b0390921691909117905560408301516002830155606083015160038301556080830151805161221092600485019201906151a0565b5060a0820151805161222c9160058401916020909101906151a0565b5060c082015180516122489160068401916020909101906151a0565b5050336000908152601160209081526040918290208251610100601f8e018490049093028101830190935260e083018c815290935082918d908d90819085018382808284376000920191909152505050908252503360208083019190915260408083018c90524260608401528051601f8b01839004830281018301909152898152608090920191908a908a908190840183828082843760009201829052509385525050506020808301889052604090920186905283546001810185559381528190208251805193946007029091019261232492849201906151a0565b506020828101516001830180546001600160a01b0319166001600160a01b0390921691909117905560408301516002830155606083015160038301556080830151805161237792600485019201906151a0565b5060a082015180516123939160058401916020909101906151a0565b5060c082015180516123af9160068401916020909101906151a0565b5050604051600181527f7afbc00bc4d0f79d28ffeec44883e3454d42bcd4acd2812fd84d3ac6291aaf72915060200160405180910390a150600198975050505050505050565b6015602052816000526040600020818154811061241157600080fd5b90600052602060002090600a02016000915091505080600001805461243590615c2f565b80601f016020809104026020016040519081016040528092919081815260200182805461246190615c2f565b80156124ae5780601f10612483576101008083540402835291602001916124ae565b820191906000526020600020905b81548152906001019060200180831161249157829003601f168201915b505050600184015460028501546003860154600487015460058801805497986001600160a01b039095169793965091945092916124ea90615c2f565b80601f016020809104026020016040519081016040528092919081815260200182805461251690615c2f565b80156125635780601f1061253857610100808354040283529160200191612563565b820191906000526020600020905b81548152906001019060200180831161254657829003601f168201915b5050505060068301546007840154600885018054949592946001600160a01b0390921693509061259290615c2f565b80601f01602080910402602001604051908101604052809291908181526020018280546125be90615c2f565b801561260b5780601f106125e05761010080835404028352916020019161260b565b820191906000526020600020905b8154815290600101906020018083116125ee57829003601f168201915b50505050509080600901805461262090615c2f565b80601f016020809104026020016040519081016040528092919081815260200182805461264c90615c2f565b80156126995780601f1061266e57610100808354040283529160200191612699565b820191906000526020600020905b81548152906001019060200180831161267c57829003601f168201915b505050505090508a565b60606001805461071190615c2f565b601481815481106126c257600080fd5b906000526020600020906009020160009150905080600001805461185d90615c2f565b6126f03383836149c9565b5050565b6126fe338361477d565b6127705760405162461bcd60e51b815260206004820152602e60248201527f4552433732313a2063616c6c6572206973206e6f7420746f6b656e206f776e6560448201527f72206e6f7220617070726f766564000000000000000000000000000000000000606482015260840161084c565b61277c84848484614a98565b50505050565b33600090815260136020526040812054606091829182918291829182918291829167ffffffffffffffff8111156127bb576127bb615cdb565b6040519080825280602002602001820160405280156127ee57816020015b60608152602001906001900390816127d95790505b50336000908152601360205260408120549192509067ffffffffffffffff81111561281b5761281b615cdb565b604051908082528060200260200182016040528015612844578160200160208202803683370190505b50336000908152601360205260408120549192509067ffffffffffffffff81111561287157612871615cdb565b60405190808252806020026020018201604052801561289a578160200160208202803683370190505b50336000908152601360205260408120549192509067ffffffffffffffff8111156128c7576128c7615cdb565b6040519080825280602002602001820160405280156128f0578160200160208202803683370190505b50336000908152601360205260408120549192509067ffffffffffffffff81111561291d5761291d615cdb565b60405190808252806020026020018201604052801561295057816020015b606081526020019060019003908161293b5790505b50336000908152601360205260408120549192509067ffffffffffffffff81111561297d5761297d615cdb565b6040519080825280602002602001820160405280156129b057816020015b606081526020019060019003908161299b5790505b50336000908152601360205260408120549192509067ffffffffffffffff8111156129dd576129dd615cdb565b604051908082528060200260200182016040528015612a06578160200160208202803683370190505b50336000908152601360205260408120549192509067ffffffffffffffff811115612a3357612a33615cdb565b604051908082528060200260200182016040528015612a6657816020015b6060815260200190600190039081612a515790505b50905060005b3360009081526013602052604090205481101561113b57336000908152601360205260408120805483908110612aa457612aa4615cc5565b906000526020600020906009020160405180610120016040529081600082018054612ace90615c2f565b80601f0160208091040260200160405190810160405280929190818152602001828054612afa90615c2f565b8015612b475780601f10612b1c57610100808354040283529160200191612b47565b820191906000526020600020905b815481529060010190602001808311612b2a57829003601f168201915b505050918352505060018201546001600160a01b031660208201526002820154604082015260038201546060820152600482018054608090920191612b8b90615c2f565b80601f0160208091040260200160405190810160405280929190818152602001828054612bb790615c2f565b8015612c045780601f10612bd957610100808354040283529160200191612c04565b820191906000526020600020905b815481529060010190602001808311612be757829003601f168201915b50505091835250506005820154602082015260068201546001600160a01b03166040820152600782018054606090920191612c3e90615c2f565b80601f0160208091040260200160405190810160405280929190818152602001828054612c6a90615c2f565b8015612cb75780601f10612c8c57610100808354040283529160200191612cb7565b820191906000526020600020905b815481529060010190602001808311612c9a57829003601f168201915b50505050508152602001600882018054612cd090615c2f565b80601f0160208091040260200160405190810160405280929190818152602001828054612cfc90615c2f565b8015612d495780601f10612d1e57610100808354040283529160200191612d49565b820191906000526020600020905b815481529060010190602001808311612d2c57829003601f168201915b505050505081525050905080600001518a8381518110612d6b57612d6b615cc5565b60200260200101819052508060200151898381518110612d8d57612d8d615cc5565b60200260200101906001600160a01b031690816001600160a01b0316815250508060400151888381518110612dc457612dc4615cc5565b6020026020010181815250508060a00151878381518110612de757612de7615cc5565b6020026020010181815250508060800151868381518110612e0a57612e0a615cc5565b60200260200101819052508060e00151858381518110612e2c57612e2c615cc5565b60200260200101819052508060c00151848381518110612e4e57612e4e615cc5565b60200260200101906001600160a01b031690816001600160a01b031681525050806101000151838381518110612e8657612e86615cc5565b60200260200101819052505080612e9c90615c6a565b9050612a6c565b60606106fc82614b16565b60126020526000908152604090208054819061185d90615c2f565b6000828152600b602052604090205460ff16612f275760405162461bcd60e51b815260206004820152601d60248201527f50726f70733a2050726f7065727920646f6573206e6f74206578697374000000604482015260640161084c565b6000828152601260205260409020600101546001600160a01b0316331415612fa05760405162461bcd60e51b815260206004820152602660248201527f50726f70733a2050726f706572747920616c72656164792062656c6f6e677320604482015265746f20796f7560d01b606482015260840161084c565b6000828152601260205260409020600601546001600160a01b03163314156130195760405162461bcd60e51b815260206004820152602660248201527f50726f70733a2050726f706572747920616c72656164792062656c6f6e677320604482015265746f20796f7560d01b606482015260840161084c565b6000828152601260205260409081902060020154905160099061303d9084906158a8565b908152604051908190036020018120546370a0823160e01b82523360048301526001600160a01b0316906370a082319060240160206040518083038186803b15801561308857600080fd5b505afa15801561309c573d6000803e3d6000fd5b505050506040513d601f19601f820116820180604052508101906130c091906156b9565b101561310e5760405162461bcd60e51b815260206004820152601260248201527f496e73756666696369656e742046756e64730000000000000000000000000000604482015260640161084c565b60098160405161311e91906158a8565b908152604080516020928190038301812054600086815260129094529190922060018101546002909101546323b872dd60e01b84523360048501526001600160a01b039182166024850152604484015216906323b872dd90606401602060405180830381600087803b15801561319357600080fd5b505af11580156131a7573d6000803e3d6000fd5b505050506040513d601f19601f820116820180604052508101906131cb91906154e9565b6132175760405162461bcd60e51b815260206004820152601e60248201527f50726f7073203a2043616e6e6f7420706572666f726d207061796d656e740000604482015260640161084c565b60008281526012602052604090206001015461323d906001600160a01b031633846147fc565b60008281526012602081815260408084206006810180546001600160a01b0319163390811790915585526015835281852082516101408101909352948790529290915281549091829161328f90615c2f565b80601f01602080910402602001604051908101604052809291908181526020018280546132bb90615c2f565b80156133085780601f106132dd57610100808354040283529160200191613308565b820191906000526020600020905b8154815290600101906020018083116132eb57829003601f168201915b5050509183525050600085815260126020818152604080842060018101546001600160a01b031683870152600281015491860191909152600381015460608601524260808601529288905252600401805460a09092019161336890615c2f565b80601f016020809104026020016040519081016040528092919081815260200182805461339490615c2f565b80156133e15780601f106133b6576101008083540402835291602001916133e1565b820191906000526020600020905b8154815290600101906020018083116133c457829003601f168201915b5050509183525050600085815260126020818152604080842060058101548387015233918601919091529288905252600701805460609092019161342490615c2f565b80601f016020809104026020016040519081016040528092919081815260200182805461345090615c2f565b801561349d5780601f106134725761010080835404028352916020019161349d565b820191906000526020600020905b81548152906001019060200180831161348057829003601f168201915b505050505081526020016012600086815260200190815260200160002060080180546134c890615c2f565b80601f01602080910402602001604051908101604052809291908181526020018280546134f490615c2f565b80156135415780601f1061351657610100808354040283529160200191613541565b820191906000526020600020905b81548152906001019060200180831161352457829003601f168201915b50505091909252505081546001810183556000928352602092839020825180519394600a9093029091019261357992849201906151a0565b506020828101516001830180546001600160a01b0319166001600160a01b0390921691909117905560408301516002830155606083015160038301556080830151600483015560a083015180516135d692600585019201906151a0565b5060c0820151600682015560e08201516007820180546001600160a01b0319166001600160a01b0390921691909117905561010082015180516136239160088401916020909101906151a0565b5061012082015180516136409160098401916020909101906151a0565b50505060005b6000838152601260209081526040808320600101546001600160a01b03168352601390915290205481101561374b576000838152601260209081526040808320600101546001600160a01b03168352601390915290208054849190839081106136b1576136b1615cc5565b906000526020600020906009020160050154141561373b576000838152601260209081526040808320600101546001600160a01b031683526013909152902080543391908390811061370557613705615cc5565b906000526020600020906009020160060160006101000a8154816001600160a01b0302191690836001600160a01b031602179055505b61374481615c6a565b9050613646565b5060005b6014548110156108ed57826014828154811061376d5761376d615cc5565b90600052602060002090600902016005015414156137cf57336014828154811061379957613799615cc5565b906000526020600020906009020160060160006101000a8154816001600160a01b0302191690836001600160a01b031602179055505b6137d881615c6a565b905061374f565b336000908152600c602052604080822090516137fc9084906158a8565b9081526040519081900360200190205460ff1661385b5760405162461bcd60e51b815260206004820152601c60248201527f50726f706572747920686173206e6f74206265656e206c697374656400000000604482015260640161084c565b336000908152600d60205260409081902090516138799084906158a8565b9081526040519081900360200190205460ff16156138d95760405162461bcd60e51b815260206004820152601f60248201527f50726f706572792068617320616c7265616479206265656e206c697374656400604482015260640161084c565b336138e8600780546001019055565b60006138f360075490565b90506138ff8282614c1f565b6001600160a01b0382166000908152600f6020526040902060060180546139ae91839161392b90615c2f565b80601f016020809104026020016040519081016040528092919081815260200182805461395790615c2f565b80156139a45780601f10613979576101008083540402835291602001916139a4565b820191906000526020600020905b81548152906001019060200180831161398757829003601f168201915b5050505050614c39565b6001600160a01b0382166000818152600e60209081526040808320859055848352600b8252808320805460ff19166001179055805161012081018252938352600f90915290208054829190613a0290615c2f565b80601f0160208091040260200160405190810160405280929190818152602001828054613a2e90615c2f565b8015613a7b5780601f10613a5057610100808354040283529160200191613a7b565b820191906000526020600020905b815481529060010190602001808311613a5e57829003601f168201915b50505091835250506001600160a01b038085166000818152600f60208181526040808420600181015490961682880152600286015490870152600385015460608701529290915290526004018054608090920191613ad890615c2f565b80601f0160208091040260200160405190810160405280929190818152602001828054613b0490615c2f565b8015613b515780601f10613b2657610100808354040283529160200191613b51565b820191906000526020600020905b815481529060010190602001808311613b3457829003601f168201915b50505091835250506001600160a01b0384166000818152600e60209081526040808320548286015261dead81860152928252600f9052206005018054606090920191613b9c90615c2f565b80601f0160208091040260200160405190810160405280929190818152602001828054613bc890615c2f565b8015613c155780601f10613bea57610100808354040283529160200191613c15565b820191906000526020600020905b815481529060010190602001808311613bf857829003601f168201915b50505050508152602001600f6000856001600160a01b03166001600160a01b031681526020019081526020016000206006018054613c5290615c2f565b80601f0160208091040260200160405190810160405280929190818152602001828054613c7e90615c2f565b8015613ccb5780601f10613ca057610100808354040283529160200191613ccb565b820191906000526020600020905b815481529060010190602001808311613cae57829003601f168201915b5050509190925250506001600160a01b0383166000908152600e6020908152604080832054835260128252909120825180519192613d0e928492909101906151a0565b506020828101516001830180546001600160a01b0319166001600160a01b03909216919091179055604083015160028301556060830151600383015560808301518051613d6192600485019201906151a0565b5060a0820151600582015560c08201516006820180546001600160a01b0319166001600160a01b0390921691909117905560e08201518051613dad9160078401916020909101906151a0565b506101008201518051613dca9160088401916020909101906151a0565b50503360009081526013602090815260408083208151610120810183526001600160a01b0388168552600f909352922080549293509091829190613e0d90615c2f565b80601f0160208091040260200160405190810160405280929190818152602001828054613e3990615c2f565b8015613e865780601f10613e5b57610100808354040283529160200191613e86565b820191906000526020600020905b815481529060010190602001808311613e6957829003601f168201915b50505091835250506001600160a01b038086166000818152600f60208181526040808420600181015490961682880152600286015490870152600385015460608701529290915290526004018054608090920191613ee390615c2f565b80601f0160208091040260200160405190810160405280929190818152602001828054613f0f90615c2f565b8015613f5c5780601f10613f3157610100808354040283529160200191613f5c565b820191906000526020600020905b815481529060010190602001808311613f3f57829003601f168201915b50505091835250506001600160a01b0385166000818152600e60209081526040808320548286015261dead81860152928252600f9052206005018054606090920191613fa790615c2f565b80601f0160208091040260200160405190810160405280929190818152602001828054613fd390615c2f565b80156140205780601f10613ff557610100808354040283529160200191614020565b820191906000526020600020905b81548152906001019060200180831161400357829003601f168201915b50505050508152602001600f6000866001600160a01b03166001600160a01b03168152602001908152602001600020600601805461405d90615c2f565b80601f016020809104026020016040519081016040528092919081815260200182805461408990615c2f565b80156140d65780601f106140ab576101008083540402835291602001916140d6565b820191906000526020600020905b8154815290600101906020018083116140b957829003601f168201915b5050509190925250508154600181018355600092835260209283902082518051939460099093029091019261410e92849201906151a0565b506020828101516001830180546001600160a01b0319166001600160a01b0390921691909117905560408301516002830155606083015160038301556080830151805161416192600485019201906151a0565b5060a0820151600582015560c08201516006820180546001600160a01b0319166001600160a01b0390921691909117905560e082015180516141ad9160078401916020909101906151a0565b5061010082015180516141ca9160088401916020909101906151a0565b505060408051610120810182526001600160a01b0385166000908152600f6020529190912080546014935082919061420190615c2f565b80601f016020809104026020016040519081016040528092919081815260200182805461422d90615c2f565b801561427a5780601f1061424f5761010080835404028352916020019161427a565b820191906000526020600020905b81548152906001019060200180831161425d57829003601f168201915b50505091835250506001600160a01b038086166000818152600f602081815260408084206001810154909616828801526002860154908701526003850154606087015292909152905260040180546080909201916142d790615c2f565b80601f016020809104026020016040519081016040528092919081815260200182805461430390615c2f565b80156143505780601f1061432557610100808354040283529160200191614350565b820191906000526020600020905b81548152906001019060200180831161433357829003601f168201915b50505091835250506001600160a01b0385166000818152600e60209081526040808320548286015261dead81860152928252600f905220600501805460609092019161439b90615c2f565b80601f01602080910402602001604051908101604052809291908181526020018280546143c790615c2f565b80156144145780601f106143e957610100808354040283529160200191614414565b820191906000526020600020905b8154815290600101906020018083116143f757829003601f168201915b50505050508152602001600f6000866001600160a01b03166001600160a01b03168152602001908152602001600020600601805461445190615c2f565b80601f016020809104026020016040519081016040528092919081815260200182805461447d90615c2f565b80156144ca5780601f1061449f576101008083540402835291602001916144ca565b820191906000526020600020905b8154815290600101906020018083116144ad57829003601f168201915b5050509190925250508154600181018355600092835260209283902082518051939460099093029091019261450292849201906151a0565b506020828101516001830180546001600160a01b0319166001600160a01b0390921691909117905560408301516002830155606083015160038301556080830151805161455592600485019201906151a0565b5060a0820151600582015560c08201516006820180546001600160a01b0319166001600160a01b0390921691909117905560e082015180516145a19160078401916020909101906151a0565b5061010082015180516145be9160088401916020909101906151a0565b5050336000908152600d6020526040908190209051600192506145e29087906158a8565b9081526040805160209281900383018120805460ff1916941515949094179093556001600160a01b0385166000908152600f90925290207f6d5ac0ab1c8daf408764eb236c9d548f27b5a4e2548c80df743b5cb319162b799161464f918791600482019160060190615b87565b60405180910390a19392505050565b600060098260405161467091906158a8565b908152604051908190036020018120546370a0823160e01b82523060048301526001600160a01b0316906370a0823190602401610938565b6000818152600260205260409020546001600160a01b031661470c5760405162461bcd60e51b815260206004820152601860248201527f4552433732313a20696e76616c696420746f6b656e2049440000000000000000604482015260640161084c565b50565b600081815260046020526040902080546001600160a01b0319166001600160a01b038416908117909155819061474482611e4c565b6001600160a01b03167f8c5be1e5ebec7d5bd14f71427d1e84f3dd0314c0f7b2291e5b200ac8c7c3b92560405160405180910390a45050565b60008061478983611e4c565b9050806001600160a01b0316846001600160a01b031614806147d057506001600160a01b0380821660009081526005602090815260408083209388168352929052205460ff165b806147f45750836001600160a01b03166147e984610794565b6001600160a01b0316145b949350505050565b826001600160a01b031661480f82611e4c565b6001600160a01b03161461488b5760405162461bcd60e51b815260206004820152602560248201527f4552433732313a207472616e736665722066726f6d20696e636f72726563742060448201527f6f776e6572000000000000000000000000000000000000000000000000000000606482015260840161084c565b6001600160a01b0382166149065760405162461bcd60e51b8152602060048201526024808201527f4552433732313a207472616e7366657220746f20746865207a65726f2061646460448201527f7265737300000000000000000000000000000000000000000000000000000000606482015260840161084c565b61491160008261470f565b6001600160a01b038316600090815260036020526040812080546001929061493a908490615bec565b90915550506001600160a01b0382166000908152600360205260408120805460019290614968908490615bc0565b909155505060008181526002602052604080822080546001600160a01b0319166001600160a01b0386811691821790925591518493918716917fddf252ad1be2c89b69c2b068fc378daa952ba7f163c4a11628f55a4df523b3ef91a4505050565b816001600160a01b0316836001600160a01b03161415614a2b5760405162461bcd60e51b815260206004820152601960248201527f4552433732313a20617070726f766520746f2063616c6c657200000000000000604482015260640161084c565b6001600160a01b03838116600081815260056020908152604080832094871680845294825291829020805460ff191686151590811790915591519182527f17307eab39ab6107e8899845ad3d59bd9653f200f220920489ca2b5937696c31910160405180910390a3505050565b614aa38484846147fc565b614aaf84848484614ce2565b61277c5760405162461bcd60e51b815260206004820152603260248201527f4552433732313a207472616e7366657220746f206e6f6e20455243373231526560448201527131b2b4bb32b91034b6b83632b6b2b73a32b960711b606482015260840161084c565b6060614b21826146a8565b60008281526006602052604081208054614b3a90615c2f565b80601f0160208091040260200160405190810160405280929190818152602001828054614b6690615c2f565b8015614bb35780601f10614b8857610100808354040283529160200191614bb3565b820191906000526020600020905b815481529060010190602001808311614b9657829003601f168201915b505050505090506000614bd160408051602081019091526000815290565b9050805160001415614be4575092915050565b815115614c16578082604051602001614bfe9291906158c4565b60405160208183030381529060405292505050919050565b6147f484614e3a565b6126f0828260405180602001604052806000815250614eae565b6000828152600260205260409020546001600160a01b0316614cc35760405162461bcd60e51b815260206004820152602e60248201527f45524337323155524953746f726167653a2055524920736574206f66206e6f6e60448201527f6578697374656e7420746f6b656e000000000000000000000000000000000000606482015260840161084c565b600082815260066020908152604090912082516108ed928401906151a0565b60006001600160a01b0384163b15614e2f57604051630a85bd0160e11b81526001600160a01b0385169063150b7a0290614d269033908990889088906004016158f3565b602060405180830381600087803b158015614d4057600080fd5b505af1925050508015614d70575060408051601f3d908101601f19168201909252614d6d91810190615523565b60015b614e15573d808015614d9e576040519150601f19603f3d011682016040523d82523d6000602084013e614da3565b606091505b508051614e0d5760405162461bcd60e51b815260206004820152603260248201527f4552433732313a207472616e7366657220746f206e6f6e20455243373231526560448201527131b2b4bb32b91034b6b83632b6b2b73a32b960711b606482015260840161084c565b805181602001fd5b6001600160e01b031916630a85bd0160e11b1490506147f4565b506001949350505050565b6060614e45826146a8565b6000614e5c60408051602081019091526000815290565b90506000815111614e7c5760405180602001604052806000815250614ea7565b80614e8684614f2c565b604051602001614e979291906158c4565b6040516020818303038152906040525b9392505050565b614eb8838361505e565b614ec56000848484614ce2565b6108ed5760405162461bcd60e51b815260206004820152603260248201527f4552433732313a207472616e7366657220746f206e6f6e20455243373231526560448201527131b2b4bb32b91034b6b83632b6b2b73a32b960711b606482015260840161084c565b606081614f6c57505060408051808201909152600181527f3000000000000000000000000000000000000000000000000000000000000000602082015290565b8160005b8115614f965780614f8081615c6a565b9150614f8f9050600a83615bd8565b9150614f70565b60008167ffffffffffffffff811115614fb157614fb1615cdb565b6040519080825280601f01601f191660200182016040528015614fdb576020820181803683370190505b5090505b84156147f457614ff0600183615bec565b9150614ffd600a86615c85565b615008906030615bc0565b60f81b81838151811061501d5761501d615cc5565b60200101907effffffffffffffffffffffffffffffffffffffffffffffffffffffffffffff1916908160001a905350615057600a86615bd8565b9450614fdf565b6001600160a01b0382166150b45760405162461bcd60e51b815260206004820181905260248201527f4552433732313a206d696e7420746f20746865207a65726f2061646472657373604482015260640161084c565b6000818152600260205260409020546001600160a01b0316156151195760405162461bcd60e51b815260206004820152601c60248201527f4552433732313a20746f6b656e20616c7265616479206d696e74656400000000604482015260640161084c565b6001600160a01b0382166000908152600360205260408120805460019290615142908490615bc0565b909155505060008181526002602052604080822080546001600160a01b0319166001600160a01b03861690811790915590518392907fddf252ad1be2c89b69c2b068fc378daa952ba7f163c4a11628f55a4df523b3ef908290a45050565b8280546151ac90615c2f565b90600052602060002090601f0160209004810192826151ce5760008555615214565b82601f106151e757805160ff1916838001178555615214565b82800160010185558215615214579182015b828111156152145782518255916020019190600101906151f9565b50615220929150615224565b5090565b5b808211156152205760008155600101615225565b600067ffffffffffffffff8084111561525457615254615cdb565b604051601f8501601f19908116603f0116810190828211818310171561527c5761527c615cdb565b8160405280935085815286868601111561529557600080fd5b858560208301376000602087830101525050509392505050565b80356001600160a01b03811681146152c657600080fd5b919050565b60008083601f8401126152dd57600080fd5b50813567ffffffffffffffff8111156152f557600080fd5b60208301915083602082850101111561530d57600080fd5b9250929050565b600082601f83011261532557600080fd5b614ea783833560208501615239565b60006020828403121561534657600080fd5b614ea7826152af565b6000806040838503121561536257600080fd5b61536b836152af565b9150615379602084016152af565b90509250929050565b60008060006060848603121561539757600080fd5b6153a0846152af565b92506153ae602085016152af565b9150604084013590509250925092565b600080600080608085870312156153d457600080fd5b6153dd856152af565b93506153eb602086016152af565b925060408501359150606085013567ffffffffffffffff81111561540e57600080fd5b8501601f8101871361541f57600080fd5b61542e87823560208401615239565b91505092959194509250565b6000806040838503121561544d57600080fd5b615456836152af565b9150602083013561546681615cf1565b809150509250929050565b6000806040838503121561548457600080fd5b61548d836152af565b9150602083013567ffffffffffffffff8111156154a957600080fd5b6154b585828601615314565b9150509250929050565b600080604083850312156154d257600080fd5b6154db836152af565b946020939093013593505050565b6000602082840312156154fb57600080fd5b8151614ea781615cf1565b60006020828403121561551857600080fd5b8135614ea781615cff565b60006020828403121561553557600080fd5b8151614ea781615cff565b60008060008060008060008060c0898b03121561555c57600080fd5b883567ffffffffffffffff8082111561557457600080fd5b6155808c838d016152cb565b909a50985060208b0135975060408b01359150808211156155a057600080fd5b6155ac8c838d016152cb565b909750955060608b01359150808211156155c557600080fd5b6155d18c838d01615314565b945060808b01359150808211156155e757600080fd5b6155f38c838d01615314565b935060a08b013591508082111561560957600080fd5b506156168b828c01615314565b9150509295985092959890939650565b60006020828403121561563857600080fd5b813567ffffffffffffffff81111561564f57600080fd5b6147f484828501615314565b6000806040838503121561566e57600080fd5b823567ffffffffffffffff81111561568557600080fd5b61569185828601615314565b925050615379602084016152af565b6000602082840312156156b257600080fd5b5035919050565b6000602082840312156156cb57600080fd5b5051919050565b600080604083850312156156e557600080fd5b82359150602083013567ffffffffffffffff8111156154a957600080fd5b600081518084526020808501945080840160005b8381101561573c5781516001600160a01b031687529582019590820190600101615717565b509495945050505050565b600081518084526020808501808196508360051b8101915082860160005b8581101561578f57828403895261577d8483516157cc565b98850198935090840190600101615765565b5091979650505050505050565b600081518084526020808501945080840160005b8381101561573c578151875295820195908201906001016157b0565b600081518084526157e4816020860160208601615c03565b601f01601f19169290920160200192915050565b8054600090600181811c908083168061581257607f831692505b602080841082141561583457634e487b7160e01b600052602260045260246000fd5b8388526020880182801561584f57600181146158605761588b565b60ff1987168252828201975061588b565b60008981526020902060005b878110156158855781548482015290860190840161586c565b83019850505b5050505050505092915050565b8183823760009101908152919050565b600082516158ba818460208701615c03565b9190910192915050565b600083516158d6818460208801615c03565b8351908301906158ea818360208801615c03565b01949350505050565b60006001600160a01b0380871683528086166020840152508360408301526080606083015261592560808301846157cc565b9695505050505050565b60006101008083526159438184018c615747565b90508281036020840152615957818b615703565b9050828103604084015261596b818a61579c565b9050828103606084015261597f818961579c565b905082810360808401526159938188615747565b905082810360a08401526159a78187615747565b905082810360c08401526159bb8186615703565b905082810360e08401526159cf8185615747565b9b9a5050505050505050505050565b602081526000614ea760208301846157cc565b60e081526000615a0460e083018a6157cc565b6001600160a01b03891660208401528760408401528660608401528281036080840152615a3181876157cc565b905082810360a0840152615a4581866157cc565b905082810360c0840152615a5981856157cc565b9a9950505050505050505050565b6000610120808352615a7b8184018d6157cc565b90506001600160a01b03808c1660208501528a60408501528960608501528382036080850152615aab828a6157cc565b91508760a085015280871660c08501525082810360e0840152615ace81866157cc565b9050828103610100840152615ae381856157cc565b9c9b505050505050505050505050565b6000610140808352615b078184018e6157cc565b90506001600160a01b03808d1660208501528b60408501528a606085015289608085015283820360a0850152615b3d828a6157cc565b91508760c085015280871660e085015250828103610100840152615b6181866157cc565b9050828103610120840152615b7681856157cc565b9d9c50505050505050505050505050565b606081526000615b9a60608301866157cc565b8281036020840152615bac81866157f8565b9050828103604084015261592581856157f8565b60008219821115615bd357615bd3615c99565b500190565b600082615be757615be7615caf565b500490565b600082821015615bfe57615bfe615c99565b500390565b60005b83811015615c1e578181015183820152602001615c06565b8381111561277c5750506000910152565b600181811c90821680615c4357607f821691505b60208210811415615c6457634e487b7160e01b600052602260045260246000fd5b50919050565b6000600019821415615c7e57615c7e615c99565b5060010190565b600082615c9457615c94615caf565b500690565b634e487b7160e01b600052601160045260246000fd5b634e487b7160e01b600052601260045260246000fd5b634e487b7160e01b600052603260045260246000fd5b634e487b7160e01b600052604160045260246000fd5b801515811461470c57600080fd5b6001600160e01b03198116811461470c57600080fdfea2646970667358221220562d6950ab9d99bf79e5387413e619b3d5d192795ce6b9395aa1e208c22f9eb064736f6c63430008070033",
  "linkReferences": {},
  "deployedLinkReferences": {}
}