{
  "_format": "hh-sol-artifact-1",
  "contractName": "Property",
  "sourceName": "contracts/PropertyNFT.sol",
  "abi": [
    {
      "inputs": [],
      "stateMutability": "nonpayable",
      "type": "constructor"
    },
    {
      "anonymous": false,
      "inputs": [
        {
          "components": [
            {
              "internalType": "string",
              "name": "name",
              "type": "string"
            },
            {
              "internalType": "address",
              "name": "_lister",
              "type": "address"
            },
            {
              "internalType": "uint256",
              "name": "_amount",
              "type": "uint256"
            },
            {
              "internalType": "uint256",
              "name": "_time",
              "type": "uint256"
            },
            {
              "internalType": "string",
              "name": "_location",
              "type": "string"
            },
            {
              "internalType": "uint256",
              "name": "_id",
              "type": "uint256"
            },
            {
              "internalType": "address",
              "name": "_buyer",
              "type": "address"
            }
          ],
          "indexed": false,
          "internalType": "struct Property.ListedProps[]",
          "name": "properties",
          "type": "tuple[]"
        }
      ],
      "name": "AllProperties",
      "type": "event"
    },
    {
      "anonymous": false,
      "inputs": [
        {
          "indexed": true,
          "internalType": "address",
          "name": "owner",
          "type": "address"
        },
        {
          "indexed": true,
          "internalType": "address",
          "name": "approved",
          "type": "address"
        },
        {
          "indexed": true,
          "internalType": "uint256",
          "name": "tokenId",
          "type": "uint256"
        }
      ],
      "name": "Approval",
      "type": "event"
    },
    {
      "anonymous": false,
      "inputs": [
        {
          "indexed": true,
          "internalType": "address",
          "name": "owner",
          "type": "address"
        },
        {
          "indexed": true,
          "internalType": "address",
          "name": "operator",
          "type": "address"
        },
        {
          "indexed": false,
          "internalType": "bool",
          "name": "approved",
          "type": "bool"
        }
      ],
      "name": "ApprovalForAll",
      "type": "event"
    },
    {
      "anonymous": false,
      "inputs": [
        {
          "components": [
            {
              "internalType": "string",
              "name": "name",
              "type": "string"
            },
            {
              "internalType": "address",
              "name": "_lister",
              "type": "address"
            },
            {
              "internalType": "uint256",
              "name": "_amount",
              "type": "uint256"
            },
            {
              "internalType": "uint256",
              "name": "_time",
              "type": "uint256"
            },
            {
              "internalType": "string",
              "name": "_location",
              "type": "string"
            },
            {
              "internalType": "uint256",
              "name": "_id",
              "type": "uint256"
            },
            {
              "internalType": "address",
              "name": "_buyer",
              "type": "address"
            }
          ],
          "indexed": false,
          "internalType": "struct Property.ListedProps[]",
          "name": "properties",
          "type": "tuple[]"
        }
      ],
      "name": "CurrentUserProperties",
      "type": "event"
    },
    {
      "anonymous": false,
      "inputs": [
        {
          "indexed": false,
          "internalType": "string",
          "name": "name",
          "type": "string"
        },
        {
          "indexed": false,
          "internalType": "string",
          "name": "location",
          "type": "string"
        },
        {
          "indexed": false,
          "internalType": "string",
          "name": "tokenURL",
          "type": "string"
        }
      ],
      "name": "Listed",
      "type": "event"
    },
    {
      "anonymous": false,
      "inputs": [
        {
          "indexed": false,
          "internalType": "bool",
          "name": "submitted",
          "type": "bool"
        }
      ],
      "name": "Submitted",
      "type": "event"
    },
    {
      "anonymous": false,
      "inputs": [
        {
          "indexed": true,
          "internalType": "address",
          "name": "from",
          "type": "address"
        },
        {
          "indexed": true,
          "internalType": "address",
          "name": "to",
          "type": "address"
        },
        {
          "indexed": true,
          "internalType": "uint256",
          "name": "tokenId",
          "type": "uint256"
        }
      ],
      "name": "Transfer",
      "type": "event"
    },
    {
      "inputs": [
        {
          "internalType": "uint256",
          "name": "",
          "type": "uint256"
        }
      ],
      "name": "_idExists",
      "outputs": [
        {
          "internalType": "bool",
          "name": "",
          "type": "bool"
        }
      ],
      "stateMutability": "view",
      "type": "function"
    },
    {
      "inputs": [
        {
          "internalType": "string",
          "name": "",
          "type": "string"
        }
      ],
      "name": "_isTokenAcceptable",
      "outputs": [
        {
          "internalType": "bool",
          "name": "",
          "type": "bool"
        }
      ],
      "stateMutability": "view",
      "type": "function"
    },
    {
      "inputs": [
        {
          "internalType": "uint256",
          "name": "",
          "type": "uint256"
        }
      ],
      "name": "_trackListingsWithID",
      "outputs": [
        {
          "internalType": "string",
          "name": "name",
          "type": "string"
        },
        {
          "internalType": "address",
          "name": "_lister",
          "type": "address"
        },
        {
          "internalType": "uint256",
          "name": "_amount",
          "type": "uint256"
        },
        {
          "internalType": "uint256",
          "name": "_time",
          "type": "uint256"
        },
        {
          "internalType": "string",
          "name": "_location",
          "type": "string"
        },
        {
          "internalType": "uint256",
          "name": "_id",
          "type": "uint256"
        },
        {
          "internalType": "address",
          "name": "_buyer",
          "type": "address"
        }
      ],
      "stateMutability": "view",
      "type": "function"
    },
    {
      "inputs": [
        {
          "internalType": "address",
          "name": "",
          "type": "address"
        },
        {
          "internalType": "uint256",
          "name": "",
          "type": "uint256"
        }
      ],
      "name": "allBoughtPerAddress",
      "outputs": [
        {
          "internalType": "string",
          "name": "name",
          "type": "string"
        },
        {
          "internalType": "address",
          "name": "originalLister",
          "type": "address"
        },
        {
          "internalType": "uint256",
          "name": "_amount",
          "type": "uint256"
        },
        {
          "internalType": "uint256",
          "name": "_time",
          "type": "uint256"
        },
        {
          "internalType": "uint256",
          "name": "purchaseTime",
          "type": "uint256"
        },
        {
          "internalType": "string",
          "name": "_location",
          "type": "string"
        },
        {
          "internalType": "uint256",
          "name": "_id",
          "type": "uint256"
        },
        {
          "internalType": "address",
          "name": "newOwner",
          "type": "address"
        }
      ],
      "stateMutability": "view",
      "type": "function"
    },
    {
      "inputs": [
        {
          "internalType": "address",
          "name": "",
          "type": "address"
        },
        {
          "internalType": "uint256",
          "name": "",
          "type": "uint256"
        }
      ],
      "name": "allListedPerAddress",
      "outputs": [
        {
          "internalType": "string",
          "name": "name",
          "type": "string"
        },
        {
          "internalType": "address",
          "name": "_lister",
          "type": "address"
        },
        {
          "internalType": "uint256",
          "name": "_amount",
          "type": "uint256"
        },
        {
          "internalType": "uint256",
          "name": "_time",
          "type": "uint256"
        },
        {
          "internalType": "string",
          "name": "_location",
          "type": "string"
        },
        {
          "internalType": "uint256",
          "name": "_id",
          "type": "uint256"
        },
        {
          "internalType": "address",
          "name": "_buyer",
          "type": "address"
        }
      ],
      "stateMutability": "view",
      "type": "function"
    },
    {
      "inputs": [
        {
          "internalType": "uint256",
          "name": "",
          "type": "uint256"
        }
      ],
      "name": "allListedProperties",
      "outputs": [
        {
          "internalType": "string",
          "name": "name",
          "type": "string"
        },
        {
          "internalType": "address",
          "name": "_lister",
          "type": "address"
        },
        {
          "internalType": "uint256",
          "name": "_amount",
          "type": "uint256"
        },
        {
          "internalType": "uint256",
          "name": "_time",
          "type": "uint256"
        },
        {
          "internalType": "string",
          "name": "_location",
          "type": "string"
        },
        {
          "internalType": "uint256",
          "name": "_id",
          "type": "uint256"
        },
        {
          "internalType": "address",
          "name": "_buyer",
          "type": "address"
        }
      ],
      "stateMutability": "view",
      "type": "function"
    },
    {
      "inputs": [
        {
          "internalType": "address",
          "name": "",
          "type": "address"
        },
        {
          "internalType": "uint256",
          "name": "",
          "type": "uint256"
        }
      ],
      "name": "allListingsPerAddress",
      "outputs": [
        {
          "internalType": "string",
          "name": "name",
          "type": "string"
        },
        {
          "internalType": "address",
          "name": "_lister",
          "type": "address"
        },
        {
          "internalType": "uint256",
          "name": "_amount",
          "type": "uint256"
        },
        {
          "internalType": "uint256",
          "name": "_time",
          "type": "uint256"
        },
        {
          "internalType": "string",
          "name": "_location",
          "type": "string"
        }
      ],
      "stateMutability": "view",
      "type": "function"
    },
    {
      "inputs": [
        {
          "internalType": "address",
          "name": "to",
          "type": "address"
        },
        {
          "internalType": "uint256",
          "name": "tokenId",
          "type": "uint256"
        }
      ],
      "name": "approve",
      "outputs": [],
      "stateMutability": "nonpayable",
      "type": "function"
    },
    {
      "inputs": [
        {
          "internalType": "address",
          "name": "owner",
          "type": "address"
        }
      ],
      "name": "balanceOf",
      "outputs": [
        {
          "internalType": "uint256",
          "name": "",
          "type": "uint256"
        }
      ],
      "stateMutability": "view",
      "type": "function"
    },
    {
      "inputs": [
        {
          "internalType": "string",
          "name": "symbol",
          "type": "string"
        }
      ],
      "name": "contractBalance",
      "outputs": [
        {
          "internalType": "uint256",
          "name": "",
          "type": "uint256"
        }
      ],
      "stateMutability": "view",
      "type": "function"
    },
    {
      "inputs": [],
      "name": "getAllProperties",
      "outputs": [
        {
          "internalType": "string[]",
          "name": "",
          "type": "string[]"
        },
        {
          "internalType": "address[]",
          "name": "",
          "type": "address[]"
        },
        {
          "internalType": "uint256[]",
          "name": "",
          "type": "uint256[]"
        },
        {
          "internalType": "uint256[]",
          "name": "",
          "type": "uint256[]"
        },
        {
          "internalType": "string[]",
          "name": "",
          "type": "string[]"
        },
        {
          "internalType": "uint256[]",
          "name": "",
          "type": "uint256[]"
        },
        {
          "internalType": "address[]",
          "name": "",
          "type": "address[]"
        }
      ],
      "stateMutability": "view",
      "type": "function"
    },
    {
      "inputs": [
        {
          "internalType": "uint256",
          "name": "tokenId",
          "type": "uint256"
        }
      ],
      "name": "getApproved",
      "outputs": [
        {
          "internalType": "address",
          "name": "",
          "type": "address"
        }
      ],
      "stateMutability": "view",
      "type": "function"
    },
    {
      "inputs": [],
      "name": "getMyListedProperties",
      "outputs": [
        {
          "internalType": "string[]",
          "name": "",
          "type": "string[]"
        },
        {
          "internalType": "address[]",
          "name": "",
          "type": "address[]"
        },
        {
          "internalType": "uint256[]",
          "name": "",
          "type": "uint256[]"
        },
        {
          "internalType": "uint256[]",
          "name": "",
          "type": "uint256[]"
        },
        {
          "internalType": "string[]",
          "name": "",
          "type": "string[]"
        },
        {
          "internalType": "uint256[]",
          "name": "",
          "type": "uint256[]"
        },
        {
          "internalType": "address[]",
          "name": "",
          "type": "address[]"
        }
      ],
      "stateMutability": "view",
      "type": "function"
    },
    {
      "inputs": [],
      "name": "getMyPurchasedProperties",
      "outputs": [
        {
          "internalType": "string[]",
          "name": "",
          "type": "string[]"
        },
        {
          "internalType": "address[]",
          "name": "",
          "type": "address[]"
        },
        {
          "internalType": "uint256[]",
          "name": "",
          "type": "uint256[]"
        },
        {
          "internalType": "uint256[]",
          "name": "",
          "type": "uint256[]"
        },
        {
          "internalType": "uint256[]",
          "name": "",
          "type": "uint256[]"
        },
        {
          "internalType": "string[]",
          "name": "",
          "type": "string[]"
        },
        {
          "internalType": "uint256[]",
          "name": "",
          "type": "uint256[]"
        },
        {
          "internalType": "address[]",
          "name": "",
          "type": "address[]"
        }
      ],
      "stateMutability": "view",
      "type": "function"
    },
    {
      "inputs": [
        {
          "internalType": "address",
          "name": "owner",
          "type": "address"
        },
        {
          "internalType": "address",
          "name": "operator",
          "type": "address"
        }
      ],
      "name": "isApprovedForAll",
      "outputs": [
        {
          "internalType": "bool",
          "name": "",
          "type": "bool"
        }
      ],
      "stateMutability": "view",
      "type": "function"
    },
    {
      "inputs": [
        {
          "internalType": "string",
          "name": "name",
          "type": "string"
        },
        {
          "internalType": "uint256",
          "name": "_amount",
          "type": "uint256"
        },
        {
          "internalType": "string",
          "name": "_location",
          "type": "string"
        },
        {
          "internalType": "string",
          "name": "symbol",
          "type": "string"
        }
      ],
      "name": "listProperty",
      "outputs": [
        {
          "internalType": "bool",
          "name": "",
          "type": "bool"
        }
      ],
      "stateMutability": "nonpayable",
      "type": "function"
    },
    {
      "inputs": [
        {
          "internalType": "address",
          "name": "",
          "type": "address"
        }
      ],
      "name": "listed",
      "outputs": [
        {
          "internalType": "string",
          "name": "name",
          "type": "string"
        },
        {
          "internalType": "address",
          "name": "_lister",
          "type": "address"
        },
        {
          "internalType": "uint256",
          "name": "_amount",
          "type": "uint256"
        },
        {
          "internalType": "uint256",
          "name": "_time",
          "type": "uint256"
        },
        {
          "internalType": "string",
          "name": "_location",
          "type": "string"
        },
        {
          "internalType": "uint256",
          "name": "_id",
          "type": "uint256"
        },
        {
          "internalType": "address",
          "name": "_buyer",
          "type": "address"
        }
      ],
      "stateMutability": "view",
      "type": "function"
    },
    {
      "inputs": [
        {
          "internalType": "address",
          "name": "",
          "type": "address"
        }
      ],
      "name": "listings",
      "outputs": [
        {
          "internalType": "string",
          "name": "name",
          "type": "string"
        },
        {
          "internalType": "address",
          "name": "_lister",
          "type": "address"
        },
        {
          "internalType": "uint256",
          "name": "_amount",
          "type": "uint256"
        },
        {
          "internalType": "uint256",
          "name": "_time",
          "type": "uint256"
        },
        {
          "internalType": "string",
          "name": "_location",
          "type": "string"
        }
      ],
      "stateMutability": "view",
      "type": "function"
    },
    {
      "inputs": [
        {
          "internalType": "string",
          "name": "_tokenURI",
          "type": "string"
        },
        {
          "internalType": "string",
          "name": "_name",
          "type": "string"
        }
      ],
      "name": "mintNFT",
      "outputs": [
        {
          "internalType": "uint256",
          "name": "",
          "type": "uint256"
        }
      ],
      "stateMutability": "nonpayable",
      "type": "function"
    },
    {
      "inputs": [],
      "name": "name",
      "outputs": [
        {
          "internalType": "string",
          "name": "",
          "type": "string"
        }
      ],
      "stateMutability": "view",
      "type": "function"
    },
    {
      "inputs": [],
      "name": "nullAddress",
      "outputs": [
        {
          "internalType": "address",
          "name": "",
          "type": "address"
        }
      ],
      "stateMutability": "view",
      "type": "function"
    },
    {
      "inputs": [
        {
          "internalType": "uint256",
          "name": "tokenId",
          "type": "uint256"
        }
      ],
      "name": "ownerOf",
      "outputs": [
        {
          "internalType": "address",
          "name": "",
          "type": "address"
        }
      ],
      "stateMutability": "view",
      "type": "function"
    },
    {
      "inputs": [
        {
          "internalType": "uint256",
          "name": "_id",
          "type": "uint256"
        },
        {
          "internalType": "string",
          "name": "symbol",
          "type": "string"
        }
      ],
      "name": "payForProperty",
      "outputs": [],
      "stateMutability": "nonpayable",
      "type": "function"
    },
    {
      "inputs": [
        {
          "internalType": "string",
          "name": "",
          "type": "string"
        }
      ],
      "name": "paymentTokens",
      "outputs": [
        {
          "internalType": "address",
          "name": "",
          "type": "address"
        }
      ],
      "stateMutability": "view",
      "type": "function"
    },
    {
      "inputs": [
        {
          "internalType": "address",
          "name": "",
          "type": "address"
        }
      ],
      "name": "propertyID",
      "outputs": [
        {
          "internalType": "uint256",
          "name": "",
          "type": "uint256"
        }
      ],
      "stateMutability": "view",
      "type": "function"
    },
    {
      "inputs": [
        {
          "internalType": "address",
          "name": "from",
          "type": "address"
        },
        {
          "internalType": "address",
          "name": "to",
          "type": "address"
        },
        {
          "internalType": "uint256",
          "name": "tokenId",
          "type": "uint256"
        }
      ],
      "name": "safeTransferFrom",
      "outputs": [],
      "stateMutability": "nonpayable",
      "type": "function"
    },
    {
      "inputs": [
        {
          "internalType": "address",
          "name": "from",
          "type": "address"
        },
        {
          "internalType": "address",
          "name": "to",
          "type": "address"
        },
        {
          "internalType": "uint256",
          "name": "tokenId",
          "type": "uint256"
        },
        {
          "internalType": "bytes",
          "name": "data",
          "type": "bytes"
        }
      ],
      "name": "safeTransferFrom",
      "outputs": [],
      "stateMutability": "nonpayable",
      "type": "function"
    },
    {
      "inputs": [
        {
          "internalType": "address",
          "name": "operator",
          "type": "address"
        },
        {
          "internalType": "bool",
          "name": "approved",
          "type": "bool"
        }
      ],
      "name": "setApprovalForAll",
      "outputs": [],
      "stateMutability": "nonpayable",
      "type": "function"
    },
    {
      "inputs": [
        {
          "internalType": "string",
          "name": "symbol",
          "type": "string"
        },
        {
          "internalType": "address",
          "name": "tokenAddress",
          "type": "address"
        }
      ],
      "name": "setPaymentTokens",
      "outputs": [],
      "stateMutability": "nonpayable",
      "type": "function"
    },
    {
      "inputs": [
        {
          "internalType": "bytes4",
          "name": "interfaceId",
          "type": "bytes4"
        }
      ],
      "name": "supportsInterface",
      "outputs": [
        {
          "internalType": "bool",
          "name": "",
          "type": "bool"
        }
      ],
      "stateMutability": "view",
      "type": "function"
    },
    {
      "inputs": [],
      "name": "symbol",
      "outputs": [
        {
          "internalType": "string",
          "name": "",
          "type": "string"
        }
      ],
      "stateMutability": "view",
      "type": "function"
    },
    {
      "inputs": [
        {
          "internalType": "uint256",
          "name": "_tokenId",
          "type": "uint256"
        }
      ],
      "name": "tokenURI",
      "outputs": [
        {
          "internalType": "string",
          "name": "",
          "type": "string"
        }
      ],
      "stateMutability": "view",
      "type": "function"
    },
    {
      "inputs": [],
      "name": "tokensMinted",
      "outputs": [
        {
          "internalType": "uint256",
          "name": "",
          "type": "uint256"
        }
      ],
      "stateMutability": "view",
      "type": "function"
    },
    {
      "inputs": [
        {
          "internalType": "address",
          "name": "from",
          "type": "address"
        },
        {
          "internalType": "address",
          "name": "to",
          "type": "address"
        },
        {
          "internalType": "uint256",
          "name": "tokenId",
          "type": "uint256"
        }
      ],
      "name": "transferFrom",
      "outputs": [],
      "stateMutability": "nonpayable",
      "type": "function"
    },
    {
      "inputs": [
        {
          "internalType": "string",
          "name": "symbol",
          "type": "string"
        }
      ],
      "name": "userBalance",
      "outputs": [
        {
          "internalType": "uint256",
          "name": "",
          "type": "uint256"
        }
      ],
      "stateMutability": "view",
      "type": "function"
    }
  ],
  "bytecode": "0x60806040523480156200001157600080fd5b50604080518082018252600581526450726f707360d81b60208083019182528351808501909452600384526205052560ec1b9084015281519192916200005a916000916200008b565b508051620000709060019060208401906200008b565b5050600880546001600160a01b03191633179055506200016e565b828054620000999062000131565b90600052602060002090601f016020900481019282620000bd576000855562000108565b82601f10620000d857805160ff191683800117855562000108565b8280016001018555821562000108579182015b8281111562000108578251825591602001919060010190620000eb565b50620001169291506200011a565b5090565b5b808211156200011657600081556001016200011b565b600181811c908216806200014657607f821691505b602082108114156200016857634e487b7160e01b600052602260045260246000fd5b50919050565b614cdf806200017e6000396000f3fe608060405234801561001057600080fd5b50600436106102415760003560e01c806365d96c8211610145578063a906e6e0116100bd578063d5dc7be51161008c578063e985e9c511610071578063e985e9c51461055c578063eccfa80d14610598578063ffb1500e146105ab57600080fd5b8063d5dc7be514610536578063e96055441461054957600080fd5b8063a906e6e0146104d4578063b88d4fde14610508578063c332560f1461051b578063c87b56dd1461052357600080fd5b806388ad4e2c1161011457806397e82b9f116100f957806397e82b9f1461048b578063a22cb4651461049e578063a9068c58146104b157600080fd5b806388ad4e2c1461045c57806395d89b411461048357600080fd5b806365d96c821461040e5780636de9f32b1461042157806370a082311461042957806377c2f29b1461043c57600080fd5b80633d51402c116101d85780634e5a2407116101a75780635e85246e1161018c5780635e85246e146103d55780636352211e146103e857806364138230146103fb57600080fd5b80634e5a2407146103a8578063551edf90146103cc57600080fd5b80633d51402c1461034157806342842e0e1461035c57806343cf8f401461036f5780634562e30e1461038257600080fd5b80631536aedd116102145780631536aedd146102c357806323b872dd146102e45780633ae4f349146102f75780633b527e281461032557600080fd5b806301ffc9a71461024657806306fdde031461026e578063081812fc14610283578063095ea7b3146102ae575b600080fd5b610259610254366004614473565b6105be565b60405190151581526020015b60405180910390f35b61027661065b565b6040516102659190614968565b610296610291366004614627565b6106ed565b6040516001600160a01b039091168152602001610265565b6102c16102bc36600461442c565b610714565b005b6102d66102d1366004614549565b61084b565b604051908152602001610265565b6102c16102f236600461433d565b6108e1565b610259610305366004614549565b8051602081830181018051600a8252928201919093012091525460ff1681565b61032d610968565b6040516102659897969594939291906148b9565b610349610f6a565b6040516102659796959493929190614822565b6102c161036a36600461433d565b61147d565b61025961037d3660046144ad565b611498565b61039561039036600461442c565b611867565b60405161026597969594939291906149c7565b6103bb6103b636600461442c565b6119ef565b60405161026595949392919061497b565b61029661dead81565b6102c16103e336600461457e565b611b61565b6102966103f6366004614627565b611c5a565b6103956104093660046142ef565b611cbf565b6103bb61041c3660046142ef565b611cda565b6102d6611cf5565b6102d66104373660046142ef565b611d05565b6102d661044a3660046142ef565b600e6020526000908152604090205481565b61046f61046a36600461442c565b611d9f565b604051610265989796959493929190614a26565b610276611f2d565b610395610499366004614627565b611f3c565b6102c16104ac3660046143f5565b611f6f565b6102596104bf366004614627565b600b6020526000908152604090205460ff1681565b6102966104e2366004614549565b80516020818301810180516009825292820191909301209152546001600160a01b031681565b6102c1610516366004614379565b611f7e565b61034961200c565b610276610531366004614627565b612565565b610395610544366004614627565b612570565b6102d66105573660046145c3565b61258b565b61025961056a36600461430a565b6001600160a01b03918216600090815260056020908152604080832093909416825291909152205460ff1690565b6102c16105a6366004614659565b612e85565b6102d66105b9366004614549565b613619565b60006001600160e01b031982167f80ac58cd00000000000000000000000000000000000000000000000000000000148061062157506001600160e01b031982167f5b5e139f00000000000000000000000000000000000000000000000000000000145b8061065557507f01ffc9a7000000000000000000000000000000000000000000000000000000006001600160e01b03198316145b92915050565b60606000805461066a90614bc3565b80601f016020809104026020016040519081016040528092919081815260200182805461069690614bc3565b80156106e35780601f106106b8576101008083540402835291602001916106e3565b820191906000526020600020905b8154815290600101906020018083116106c657829003601f168201915b5050505050905090565b60006106f882613663565b506000908152600460205260409020546001600160a01b031690565b600061071f82611c5a565b9050806001600160a01b0316836001600160a01b031614156107ae5760405162461bcd60e51b815260206004820152602160248201527f4552433732313a20617070726f76616c20746f2063757272656e74206f776e6560448201527f720000000000000000000000000000000000000000000000000000000000000060648201526084015b60405180910390fd5b336001600160a01b03821614806107ca57506107ca813361056a565b61083c5760405162461bcd60e51b815260206004820152603e60248201527f4552433732313a20617070726f76652063616c6c6572206973206e6f7420746f60448201527f6b656e206f776e6572206e6f7220617070726f76656420666f7220616c6c000060648201526084016107a5565b61084683836136ca565b505050565b600060098260405161085d919061479b565b908152604051908190036020018120546370a0823160e01b82523360048301526001600160a01b0316906370a08231906024015b60206040518083038186803b1580156108a957600080fd5b505afa1580156108bd573d6000803e3d6000fd5b505050506040513d601f19601f820116820180604052508101906106559190614640565b6108eb3382613738565b61095d5760405162461bcd60e51b815260206004820152602e60248201527f4552433732313a2063616c6c6572206973206e6f7420746f6b656e206f776e6560448201527f72206e6f7220617070726f76656400000000000000000000000000000000000060648201526084016107a5565b6108468383836137b7565b33600090815260156020526040812054606091829182918291829182918291829167ffffffffffffffff8111156109a1576109a1614c6f565b6040519080825280602002602001820160405280156109d457816020015b60608152602001906001900390816109bf5790505b50336000908152601560205260408120549192509067ffffffffffffffff811115610a0157610a01614c6f565b604051908082528060200260200182016040528015610a2a578160200160208202803683370190505b50336000908152601560205260408120549192509067ffffffffffffffff811115610a5757610a57614c6f565b604051908082528060200260200182016040528015610a80578160200160208202803683370190505b50336000908152601560205260408120549192509067ffffffffffffffff811115610aad57610aad614c6f565b604051908082528060200260200182016040528015610ad6578160200160208202803683370190505b50336000908152601560205260408120549192509067ffffffffffffffff811115610b0357610b03614c6f565b604051908082528060200260200182016040528015610b2c578160200160208202803683370190505b50336000908152601560205260408120549192509067ffffffffffffffff811115610b5957610b59614c6f565b604051908082528060200260200182016040528015610b8c57816020015b6060815260200190600190039081610b775790505b50336000908152601560205260408120549192509067ffffffffffffffff811115610bb957610bb9614c6f565b604051908082528060200260200182016040528015610be2578160200160208202803683370190505b50336000908152601560205260408120549192509067ffffffffffffffff811115610c0f57610c0f614c6f565b604051908082528060200260200182016040528015610c38578160200160208202803683370190505b50905060005b33600090815260156020526040902054811015610f5157336000908152601560205260408120805483908110610c7657610c76614c59565b906000526020600020906008020160405180610100016040529081600082018054610ca090614bc3565b80601f0160208091040260200160405190810160405280929190818152602001828054610ccc90614bc3565b8015610d195780601f10610cee57610100808354040283529160200191610d19565b820191906000526020600020905b815481529060010190602001808311610cfc57829003601f168201915b505050918352505060018201546001600160a01b0316602082015260028201546040820152600382015460608201526004820154608082015260058201805460a090920191610d6790614bc3565b80601f0160208091040260200160405190810160405280929190818152602001828054610d9390614bc3565b8015610de05780601f10610db557610100808354040283529160200191610de0565b820191906000526020600020905b815481529060010190602001808311610dc357829003601f168201915b5050509183525050600682015460208201526007909101546001600160a01b031660409091015280518b51919250908b9084908110610e2157610e21614c59565b60200260200101819052508060200151898381518110610e4357610e43614c59565b60200260200101906001600160a01b031690816001600160a01b0316815250508060400151888381518110610e7a57610e7a614c59565b6020026020010181815250508060600151878381518110610e9d57610e9d614c59565b6020026020010181815250508060800151868381518110610ec057610ec0614c59565b6020026020010181815250508060a00151858381518110610ee357610ee3614c59565b60200260200101819052508060c00151848381518110610f0557610f05614c59565b6020026020010181815250508060e00151838381518110610f2857610f28614c59565b6001600160a01b039092166020928302919091019091015250610f4a81614bfe565b9050610c3e565b50969f959e50939c50919a509850965094509092509050565b6060806060806060806060600060148054905067ffffffffffffffff811115610f9557610f95614c6f565b604051908082528060200260200182016040528015610fc857816020015b6060815260200190600190039081610fb35790505b5060145490915060009067ffffffffffffffff811115610fea57610fea614c6f565b604051908082528060200260200182016040528015611013578160200160208202803683370190505b5060145490915060009067ffffffffffffffff81111561103557611035614c6f565b60405190808252806020026020018201604052801561105e578160200160208202803683370190505b5060145490915060009067ffffffffffffffff81111561108057611080614c6f565b6040519080825280602002602001820160405280156110a9578160200160208202803683370190505b5060145490915060009067ffffffffffffffff8111156110cb576110cb614c6f565b6040519080825280602002602001820160405280156110fe57816020015b60608152602001906001900390816110e95790505b5060145490915060009067ffffffffffffffff81111561112057611120614c6f565b604051908082528060200260200182016040528015611149578160200160208202803683370190505b5060145490915060009067ffffffffffffffff81111561116b5761116b614c6f565b604051908082528060200260200182016040528015611194578160200160208202803683370190505b50905060005b601454811015611466576000601482815481106111b9576111b9614c59565b90600052602060002090600702016040518060e00160405290816000820180546111e290614bc3565b80601f016020809104026020016040519081016040528092919081815260200182805461120e90614bc3565b801561125b5780601f106112305761010080835404028352916020019161125b565b820191906000526020600020905b81548152906001019060200180831161123e57829003601f168201915b505050918352505060018201546001600160a01b03166020820152600282015460408201526003820154606082015260048201805460809092019161129f90614bc3565b80601f01602080910402602001604051908101604052809291908181526020018280546112cb90614bc3565b80156113185780601f106112ed57610100808354040283529160200191611318565b820191906000526020600020905b8154815290600101906020018083116112fb57829003601f168201915b5050509183525050600582015460208201526006909101546001600160a01b031660409091015280518a51919250908a908490811061135957611359614c59565b6020026020010181905250806020015188838151811061137b5761137b614c59565b60200260200101906001600160a01b031690816001600160a01b03168152505080604001518783815181106113b2576113b2614c59565b60200260200101818152505080606001518683815181106113d5576113d5614c59565b60200260200101818152505080608001518583815181106113f8576113f8614c59565b60200260200101819052508060a0015184838151811061141a5761141a614c59565b6020026020010181815250508060c0015183838151811061143d5761143d614c59565b6001600160a01b03909216602092830291909101909101525061145f81614bfe565b905061119a565b50959d949c50929a50909850965094509092509050565b61084683838360405180602001604052806000815250611f7e565b6000600a826040516114aa919061479b565b9081526040519081900360200190205460ff16151560011461150e5760405162461bcd60e51b815260206004820152601c60248201527f5061796d656e7420746f6b656e2069736e27742061636365707465640000000060448201526064016107a5565b60098260405161151e919061479b565b908152604051908190036020018120546323b872dd60e01b82523360048301523060248301526706f05b59d3b2000060448301526001600160a01b0316906323b872dd90606401602060405180830381600087803b15801561157f57600080fd5b505af1158015611593573d6000803e3d6000fd5b505050506040513d601f19601f820116820180604052508101906115b79190614456565b50336000908152600c6020526040908190209051600191906115dc908a908a9061478b565b9081526040805160209281900383018120805460ff191694151594909417909355601f8901829004909102820160c090810190915260a0820188815282918a908a90819085018382808284376000920191909152505050908252503360208083019190915260408083018990524260608401528051601f88018390048302810183019091528681526080909201919087908790819084018382808284376000920182905250939094525050338152600f60209081526040909120835180519193506116ab92849291019061415b565b506020828101516001830180546001600160a01b0319166001600160a01b039092169190911790556040830151600283015560608301516003830155608083015180516116fe926004850192019061415b565b505033600090815260116020908152604091829020825160c0601f8c018490049093028101830190935260a083018a815290935082918b908b90819085018382808284376000920191909152505050908252503360208083019190915260408083018a90524260608401528051601f890183900483028101830190915287815260809092019190889088908190840183828082843760009201829052509390945250508354600181018555938152602090819020835180519495600502909101936117d093508492919091019061415b565b506020828101516001830180546001600160a01b0319166001600160a01b03909216919091179055604083015160028301556060830151600383015560808301518051611823926004850192019061415b565b5050604051600181527f7afbc00bc4d0f79d28ffeec44883e3454d42bcd4acd2812fd84d3ac6291aaf72915060200160405180910390a15060019695505050505050565b6013602052816000526040600020818154811061188357600080fd5b9060005260206000209060070201600091509150508060000180546118a790614bc3565b80601f01602080910402602001604051908101604052809291908181526020018280546118d390614bc3565b80156119205780601f106118f557610100808354040283529160200191611920565b820191906000526020600020905b81548152906001019060200180831161190357829003601f168201915b50505060018401546002850154600386015460048701805496976001600160a01b03909416969295509093509061195690614bc3565b80601f016020809104026020016040519081016040528092919081815260200182805461198290614bc3565b80156119cf5780601f106119a4576101008083540402835291602001916119cf565b820191906000526020600020905b8154815290600101906020018083116119b257829003601f168201915b5050505060058301546006909301549192916001600160a01b0316905087565b60116020528160005260406000208181548110611a0b57600080fd5b906000526020600020906005020160009150915050806000018054611a2f90614bc3565b80601f0160208091040260200160405190810160405280929190818152602001828054611a5b90614bc3565b8015611aa85780601f10611a7d57610100808354040283529160200191611aa8565b820191906000526020600020905b815481529060010190602001808311611a8b57829003601f168201915b50505060018401546002850154600386015460048701805496976001600160a01b039094169692955090935090611ade90614bc3565b80601f0160208091040260200160405190810160405280929190818152602001828054611b0a90614bc3565b8015611b575780601f10611b2c57610100808354040283529160200191611b57565b820191906000526020600020905b815481529060010190602001808311611b3a57829003601f168201915b5050505050905085565b6008546001600160a01b03163314611be15760405162461bcd60e51b815260206004820152602260248201527f4f6e6c79206f776e65722063616e2063616c6c20746869732066756e6374696f60448201527f6e2e00000000000000000000000000000000000000000000000000000000000060648201526084016107a5565b80600983604051611bf2919061479b565b908152602001604051809103902060006101000a8154816001600160a01b0302191690836001600160a01b031602179055506001600a83604051611c36919061479b565b908152604051908190036020019020805491151560ff199092169190911790555050565b6000818152600260205260408120546001600160a01b0316806106555760405162461bcd60e51b815260206004820152601860248201527f4552433732313a20696e76616c696420746f6b656e204944000000000000000060448201526064016107a5565b6010602052600090815260409020805481906118a790614bc3565b600f60205260009081526040902080548190611a2f90614bc3565b6000611d0060075490565b905090565b60006001600160a01b038216611d835760405162461bcd60e51b815260206004820152602960248201527f4552433732313a2061646472657373207a65726f206973206e6f74206120766160448201527f6c6964206f776e6572000000000000000000000000000000000000000000000060648201526084016107a5565b506001600160a01b031660009081526003602052604090205490565b60156020528160005260406000208181548110611dbb57600080fd5b906000526020600020906008020160009150915050806000018054611ddf90614bc3565b80601f0160208091040260200160405190810160405280929190818152602001828054611e0b90614bc3565b8015611e585780601f10611e2d57610100808354040283529160200191611e58565b820191906000526020600020905b815481529060010190602001808311611e3b57829003601f168201915b505050600184015460028501546003860154600487015460058801805497986001600160a01b03909516979396509194509291611e9490614bc3565b80601f0160208091040260200160405190810160405280929190818152602001828054611ec090614bc3565b8015611f0d5780601f10611ee257610100808354040283529160200191611f0d565b820191906000526020600020905b815481529060010190602001808311611ef057829003601f168201915b5050505060068301546007909301549192916001600160a01b0316905088565b60606001805461066a90614bc3565b60148181548110611f4c57600080fd5b90600052602060002090600702016000915090508060000180546118a790614bc3565b611f7a338383613984565b5050565b611f883383613738565b611ffa5760405162461bcd60e51b815260206004820152602e60248201527f4552433732313a2063616c6c6572206973206e6f7420746f6b656e206f776e6560448201527f72206e6f7220617070726f76656400000000000000000000000000000000000060648201526084016107a5565b61200684848484613a53565b50505050565b336000908152601360205260408120546060918291829182918291829182919067ffffffffffffffff81111561204457612044614c6f565b60405190808252806020026020018201604052801561207757816020015b60608152602001906001900390816120625790505b50336000908152601360205260408120549192509067ffffffffffffffff8111156120a4576120a4614c6f565b6040519080825280602002602001820160405280156120cd578160200160208202803683370190505b50336000908152601360205260408120549192509067ffffffffffffffff8111156120fa576120fa614c6f565b604051908082528060200260200182016040528015612123578160200160208202803683370190505b50336000908152601360205260408120549192509067ffffffffffffffff81111561215057612150614c6f565b604051908082528060200260200182016040528015612179578160200160208202803683370190505b50336000908152601360205260408120549192509067ffffffffffffffff8111156121a6576121a6614c6f565b6040519080825280602002602001820160405280156121d957816020015b60608152602001906001900390816121c45790505b50336000908152601360205260408120549192509067ffffffffffffffff81111561220657612206614c6f565b60405190808252806020026020018201604052801561222f578160200160208202803683370190505b5060145490915060009067ffffffffffffffff81111561225157612251614c6f565b60405190808252806020026020018201604052801561227a578160200160208202803683370190505b50905060005b33600090815260136020526040902054811015611466573360009081526013602052604081208054839081106122b8576122b8614c59565b90600052602060002090600702016040518060e00160405290816000820180546122e190614bc3565b80601f016020809104026020016040519081016040528092919081815260200182805461230d90614bc3565b801561235a5780601f1061232f5761010080835404028352916020019161235a565b820191906000526020600020905b81548152906001019060200180831161233d57829003601f168201915b505050918352505060018201546001600160a01b03166020820152600282015460408201526003820154606082015260048201805460809092019161239e90614bc3565b80601f01602080910402602001604051908101604052809291908181526020018280546123ca90614bc3565b80156124175780601f106123ec57610100808354040283529160200191612417565b820191906000526020600020905b8154815290600101906020018083116123fa57829003601f168201915b5050509183525050600582015460208201526006909101546001600160a01b031660409091015280518a51919250908a908490811061245857612458614c59565b6020026020010181905250806020015188838151811061247a5761247a614c59565b60200260200101906001600160a01b031690816001600160a01b03168152505080604001518783815181106124b1576124b1614c59565b60200260200101818152505080606001518683815181106124d4576124d4614c59565b60200260200101818152505080608001518583815181106124f7576124f7614c59565b60200260200101819052508060a0015184838151811061251957612519614c59565b6020026020010181815250508060c0015183838151811061253c5761253c614c59565b6001600160a01b03909216602092830291909101909101525061255e81614bfe565b9050612280565b606061065582613ad1565b6012602052600090815260409020805481906118a790614bc3565b336000908152600c602052604080822090516125a890849061479b565b9081526040519081900360200190205460ff166126075760405162461bcd60e51b815260206004820152601c60248201527f50726f706572747920686173206e6f74206265656e206c69737465640000000060448201526064016107a5565b336000908152600d602052604090819020905161262590849061479b565b9081526040519081900360200190205460ff16156126855760405162461bcd60e51b815260206004820152601f60248201527f50726f706572792068617320616c7265616479206265656e206c69737465640060448201526064016107a5565b33612694600780546001019055565b600061269f60075490565b90506126ab8282613bda565b6126b58186613bf4565b6001600160a01b0382166000818152600e60209081526040808320859055848352600b8252808320805460ff19166001179055805160e081018252938352600f9091529020805482919061270890614bc3565b80601f016020809104026020016040519081016040528092919081815260200182805461273490614bc3565b80156127815780601f1061275657610100808354040283529160200191612781565b820191906000526020600020905b81548152906001019060200180831161276457829003601f168201915b50505091835250506001600160a01b038085166000818152600f602081815260408084206001810154909616828801526002860154908701526003850154606087015292909152905260040180546080909201916127de90614bc3565b80601f016020809104026020016040519081016040528092919081815260200182805461280a90614bc3565b80156128575780601f1061282c57610100808354040283529160200191612857565b820191906000526020600020905b81548152906001019060200180831161283a57829003601f168201915b50505091835250506001600160a01b0384166000908152600e602090815260408083205482850181905261dead94820194909452928252601281529190208251805191926128aa9284929091019061415b565b506020828101516001830180546001600160a01b0319166001600160a01b039092169190911790556040830151600283015560608301516003830155608083015180516128fd926004850192019061415b565b5060a0820151600582015560c090910151600690910180546001600160a01b0319166001600160a01b03928316179055336000908152601360209081526040808320815160e0810183529487168452600f909252909120805491929182919061296590614bc3565b80601f016020809104026020016040519081016040528092919081815260200182805461299190614bc3565b80156129de5780601f106129b3576101008083540402835291602001916129de565b820191906000526020600020905b8154815290600101906020018083116129c157829003601f168201915b50505091835250506001600160a01b038086166000818152600f60208181526040808420600181015490961682880152600286015490870152600385015460608701529290915290526004018054608090920191612a3b90614bc3565b80601f0160208091040260200160405190810160405280929190818152602001828054612a6790614bc3565b8015612ab45780601f10612a8957610100808354040283529160200191612ab4565b820191906000526020600020905b815481529060010190602001808311612a9757829003601f168201915b50505091835250506001600160a01b0385166000908152600e60209081526040808320548285015261dead930192909252835460018101855593815281902082518051939460070290910192612b0d928492019061415b565b506020828101516001830180546001600160a01b0319166001600160a01b03909216919091179055604083015160028301556060830151600383015560808301518051612b60926004850192019061415b565b5060a0820151600582015560c090910151600690910180546001600160a01b0319166001600160a01b039283161790556040805160e0810182529184166000908152600f602052208054601492918291612bb990614bc3565b80601f0160208091040260200160405190810160405280929190818152602001828054612be590614bc3565b8015612c325780601f10612c0757610100808354040283529160200191612c32565b820191906000526020600020905b815481529060010190602001808311612c1557829003601f168201915b50505091835250506001600160a01b038086166000818152600f60208181526040808420600181015490961682880152600286015490870152600385015460608701529290915290526004018054608090920191612c8f90614bc3565b80601f0160208091040260200160405190810160405280929190818152602001828054612cbb90614bc3565b8015612d085780601f10612cdd57610100808354040283529160200191612d08565b820191906000526020600020905b815481529060010190602001808311612ceb57829003601f168201915b50505091835250506001600160a01b0385166000908152600e60209081526040808320548285015261dead930192909252835460018101855593815281902082518051939460070290910192612d61928492019061415b565b506020828101516001830180546001600160a01b0319166001600160a01b03909216919091179055604083015160028301556060830151600383015560808301518051612db4926004850192019061415b565b5060a0820151600582015560c090910151600690910180546001600160a01b0319166001600160a01b03909216919091179055336000908152600d602052604090819020905160019190612e0990879061479b565b9081526040805160209281900383018120805460ff1916941515949094179093556001600160a01b0385166000908152600f90925290207f6d5ac0ab1c8daf408764eb236c9d548f27b5a4e2548c80df743b5cb319162b7991612e759187916004909101908990614a8f565b60405180910390a1949350505050565b6000828152600b602052604090205460ff16612ee35760405162461bcd60e51b815260206004820152601d60248201527f50726f70733a2050726f7065727920646f6573206e6f7420657869737400000060448201526064016107a5565b6000828152601260205260409020600101546001600160a01b0316331415612f5c5760405162461bcd60e51b815260206004820152602660248201527f50726f70733a2050726f706572747920616c72656164792062656c6f6e677320604482015265746f20796f7560d01b60648201526084016107a5565b6000828152601260205260409020600601546001600160a01b0316331415612fd55760405162461bcd60e51b815260206004820152602660248201527f50726f70733a2050726f706572747920616c72656164792062656c6f6e677320604482015265746f20796f7560d01b60648201526084016107a5565b60008281526012602052604090819020600201549051600990612ff990849061479b565b908152604051908190036020018120546370a0823160e01b82523360048301526001600160a01b0316906370a082319060240160206040518083038186803b15801561304457600080fd5b505afa158015613058573d6000803e3d6000fd5b505050506040513d601f19601f8201168201806040525081019061307c9190614640565b10156130ca5760405162461bcd60e51b815260206004820152601260248201527f496e73756666696369656e742046756e6473000000000000000000000000000060448201526064016107a5565b6009816040516130da919061479b565b908152604080516020928190038301812054600086815260129094529190922060018101546002909101546323b872dd60e01b84523360048501526001600160a01b039182166024850152604484015216906323b872dd90606401602060405180830381600087803b15801561314f57600080fd5b505af1158015613163573d6000803e3d6000fd5b505050506040513d601f19601f820116820180604052508101906131879190614456565b6131d35760405162461bcd60e51b815260206004820152601e60248201527f50726f7073203a2043616e6e6f7420706572666f726d207061796d656e74000060448201526064016107a5565b6000828152601260205260409020600101546131f9906001600160a01b031633846137b7565b60008281526012602081815260408084206006810180546001600160a01b0319163390811790915585526015835281852082516101008101909352948790529290915281549091829161324b90614bc3565b80601f016020809104026020016040519081016040528092919081815260200182805461327790614bc3565b80156132c45780601f10613299576101008083540402835291602001916132c4565b820191906000526020600020905b8154815290600101906020018083116132a757829003601f168201915b5050509183525050600085815260126020818152604080842060018101546001600160a01b031683870152600281015491860191909152600381015460608601524260808601529288905252600401805460a09092019161332490614bc3565b80601f016020809104026020016040519081016040528092919081815260200182805461335090614bc3565b801561339d5780601f106133725761010080835404028352916020019161339d565b820191906000526020600020905b81548152906001019060200180831161338057829003601f168201915b505050918352505060008581526012602090815260408083206005015482850152339301929092528354600181018555938152819020825180519394600802909101926133ed928492019061415b565b506020828101516001830180546001600160a01b0319166001600160a01b0390921691909117905560408301516002830155606083015160038301556080830151600483015560a0830151805161344a926005850192019061415b565b5060c0820151600682015560e090910151600790910180546001600160a01b0319166001600160a01b0390921691909117905560005b6000838152601260209081526040808320600101546001600160a01b031683526013909152902054811015613585576000838152601260209081526040808320600101546001600160a01b03168352601390915290208054849190839081106134eb576134eb614c59565b9060005260206000209060070201600501541415613575576000838152601260209081526040808320600101546001600160a01b031683526013909152902080543391908390811061353f5761353f614c59565b906000526020600020906007020160060160006101000a8154816001600160a01b0302191690836001600160a01b031602179055505b61357e81614bfe565b9050613480565b5060005b6014548110156108465782601482815481106135a7576135a7614c59565b90600052602060002090600702016005015414156136095733601482815481106135d3576135d3614c59565b906000526020600020906007020160060160006101000a8154816001600160a01b0302191690836001600160a01b031602179055505b61361281614bfe565b9050613589565b600060098260405161362b919061479b565b908152604051908190036020018120546370a0823160e01b82523060048301526001600160a01b0316906370a0823190602401610891565b6000818152600260205260409020546001600160a01b03166136c75760405162461bcd60e51b815260206004820152601860248201527f4552433732313a20696e76616c696420746f6b656e204944000000000000000060448201526064016107a5565b50565b600081815260046020526040902080546001600160a01b0319166001600160a01b03841690811790915581906136ff82611c5a565b6001600160a01b03167f8c5be1e5ebec7d5bd14f71427d1e84f3dd0314c0f7b2291e5b200ac8c7c3b92560405160405180910390a45050565b60008061374483611c5a565b9050806001600160a01b0316846001600160a01b0316148061378b57506001600160a01b0380821660009081526005602090815260408083209388168352929052205460ff165b806137af5750836001600160a01b03166137a4846106ed565b6001600160a01b0316145b949350505050565b826001600160a01b03166137ca82611c5a565b6001600160a01b0316146138465760405162461bcd60e51b815260206004820152602560248201527f4552433732313a207472616e736665722066726f6d20696e636f72726563742060448201527f6f776e657200000000000000000000000000000000000000000000000000000060648201526084016107a5565b6001600160a01b0382166138c15760405162461bcd60e51b8152602060048201526024808201527f4552433732313a207472616e7366657220746f20746865207a65726f2061646460448201527f726573730000000000000000000000000000000000000000000000000000000060648201526084016107a5565b6138cc6000826136ca565b6001600160a01b03831660009081526003602052604081208054600192906138f5908490614b80565b90915550506001600160a01b0382166000908152600360205260408120805460019290613923908490614b54565b909155505060008181526002602052604080822080546001600160a01b0319166001600160a01b0386811691821790925591518493918716917fddf252ad1be2c89b69c2b068fc378daa952ba7f163c4a11628f55a4df523b3ef91a4505050565b816001600160a01b0316836001600160a01b031614156139e65760405162461bcd60e51b815260206004820152601960248201527f4552433732313a20617070726f766520746f2063616c6c65720000000000000060448201526064016107a5565b6001600160a01b03838116600081815260056020908152604080832094871680845294825291829020805460ff191686151590811790915591519182527f17307eab39ab6107e8899845ad3d59bd9653f200f220920489ca2b5937696c31910160405180910390a3505050565b613a5e8484846137b7565b613a6a84848484613c9d565b6120065760405162461bcd60e51b815260206004820152603260248201527f4552433732313a207472616e7366657220746f206e6f6e20455243373231526560448201527131b2b4bb32b91034b6b83632b6b2b73a32b960711b60648201526084016107a5565b6060613adc82613663565b60008281526006602052604081208054613af590614bc3565b80601f0160208091040260200160405190810160405280929190818152602001828054613b2190614bc3565b8015613b6e5780601f10613b4357610100808354040283529160200191613b6e565b820191906000526020600020905b815481529060010190602001808311613b5157829003601f168201915b505050505090506000613b8c60408051602081019091526000815290565b9050805160001415613b9f575092915050565b815115613bd1578082604051602001613bb99291906147b7565b60405160208183030381529060405292505050919050565b6137af84613df5565b611f7a828260405180602001604052806000815250613e69565b6000828152600260205260409020546001600160a01b0316613c7e5760405162461bcd60e51b815260206004820152602e60248201527f45524337323155524953746f726167653a2055524920736574206f66206e6f6e60448201527f6578697374656e7420746f6b656e00000000000000000000000000000000000060648201526084016107a5565b600082815260066020908152604090912082516108469284019061415b565b60006001600160a01b0384163b15613dea57604051630a85bd0160e11b81526001600160a01b0385169063150b7a0290613ce19033908990889088906004016147e6565b602060405180830381600087803b158015613cfb57600080fd5b505af1925050508015613d2b575060408051601f3d908101601f19168201909252613d2891810190614490565b60015b613dd0573d808015613d59576040519150601f19603f3d011682016040523d82523d6000602084013e613d5e565b606091505b508051613dc85760405162461bcd60e51b815260206004820152603260248201527f4552433732313a207472616e7366657220746f206e6f6e20455243373231526560448201527131b2b4bb32b91034b6b83632b6b2b73a32b960711b60648201526084016107a5565b805181602001fd5b6001600160e01b031916630a85bd0160e11b1490506137af565b506001949350505050565b6060613e0082613663565b6000613e1760408051602081019091526000815290565b90506000815111613e375760405180602001604052806000815250613e62565b80613e4184613ee7565b604051602001613e529291906147b7565b6040516020818303038152906040525b9392505050565b613e738383614019565b613e806000848484613c9d565b6108465760405162461bcd60e51b815260206004820152603260248201527f4552433732313a207472616e7366657220746f206e6f6e20455243373231526560448201527131b2b4bb32b91034b6b83632b6b2b73a32b960711b60648201526084016107a5565b606081613f2757505060408051808201909152600181527f3000000000000000000000000000000000000000000000000000000000000000602082015290565b8160005b8115613f515780613f3b81614bfe565b9150613f4a9050600a83614b6c565b9150613f2b565b60008167ffffffffffffffff811115613f6c57613f6c614c6f565b6040519080825280601f01601f191660200182016040528015613f96576020820181803683370190505b5090505b84156137af57613fab600183614b80565b9150613fb8600a86614c19565b613fc3906030614b54565b60f81b818381518110613fd857613fd8614c59565b60200101907effffffffffffffffffffffffffffffffffffffffffffffffffffffffffffff1916908160001a905350614012600a86614b6c565b9450613f9a565b6001600160a01b03821661406f5760405162461bcd60e51b815260206004820181905260248201527f4552433732313a206d696e7420746f20746865207a65726f206164647265737360448201526064016107a5565b6000818152600260205260409020546001600160a01b0316156140d45760405162461bcd60e51b815260206004820152601c60248201527f4552433732313a20746f6b656e20616c7265616479206d696e7465640000000060448201526064016107a5565b6001600160a01b03821660009081526003602052604081208054600192906140fd908490614b54565b909155505060008181526002602052604080822080546001600160a01b0319166001600160a01b03861690811790915590518392907fddf252ad1be2c89b69c2b068fc378daa952ba7f163c4a11628f55a4df523b3ef908290a45050565b82805461416790614bc3565b90600052602060002090601f01602090048101928261418957600085556141cf565b82601f106141a257805160ff19168380011785556141cf565b828001600101855582156141cf579182015b828111156141cf5782518255916020019190600101906141b4565b506141db9291506141df565b5090565b5b808211156141db57600081556001016141e0565b600067ffffffffffffffff8084111561420f5761420f614c6f565b604051601f8501601f19908116603f0116810190828211818310171561423757614237614c6f565b8160405280935085815286868601111561425057600080fd5b858560208301376000602087830101525050509392505050565b80356001600160a01b038116811461428157600080fd5b919050565b60008083601f84011261429857600080fd5b50813567ffffffffffffffff8111156142b057600080fd5b6020830191508360208285010111156142c857600080fd5b9250929050565b600082601f8301126142e057600080fd5b613e62838335602085016141f4565b60006020828403121561430157600080fd5b613e628261426a565b6000806040838503121561431d57600080fd5b6143268361426a565b91506143346020840161426a565b90509250929050565b60008060006060848603121561435257600080fd5b61435b8461426a565b92506143696020850161426a565b9150604084013590509250925092565b6000806000806080858703121561438f57600080fd5b6143988561426a565b93506143a66020860161426a565b925060408501359150606085013567ffffffffffffffff8111156143c957600080fd5b8501601f810187136143da57600080fd5b6143e9878235602084016141f4565b91505092959194509250565b6000806040838503121561440857600080fd5b6144118361426a565b9150602083013561442181614c85565b809150509250929050565b6000806040838503121561443f57600080fd5b6144488361426a565b946020939093013593505050565b60006020828403121561446857600080fd5b8151613e6281614c85565b60006020828403121561448557600080fd5b8135613e6281614c93565b6000602082840312156144a257600080fd5b8151613e6281614c93565b600080600080600080608087890312156144c657600080fd5b863567ffffffffffffffff808211156144de57600080fd5b6144ea8a838b01614286565b909850965060208901359550604089013591508082111561450a57600080fd5b6145168a838b01614286565b9095509350606089013591508082111561452f57600080fd5b5061453c89828a016142cf565b9150509295509295509295565b60006020828403121561455b57600080fd5b813567ffffffffffffffff81111561457257600080fd5b6137af848285016142cf565b6000806040838503121561459157600080fd5b823567ffffffffffffffff8111156145a857600080fd5b6145b4858286016142cf565b9250506143346020840161426a565b600080604083850312156145d657600080fd5b823567ffffffffffffffff808211156145ee57600080fd5b6145fa868387016142cf565b9350602085013591508082111561461057600080fd5b5061461d858286016142cf565b9150509250929050565b60006020828403121561463957600080fd5b5035919050565b60006020828403121561465257600080fd5b5051919050565b6000806040838503121561466c57600080fd5b82359150602083013567ffffffffffffffff81111561468a57600080fd5b61461d858286016142cf565b600081518084526020808501945080840160005b838110156146cf5781516001600160a01b0316875295820195908201906001016146aa565b509495945050505050565b600081518084526020808501808196508360051b8101915082860160005b8581101561472257828403895261471084835161475f565b988501989350908401906001016146f8565b5091979650505050505050565b600081518084526020808501945080840160005b838110156146cf57815187529582019590820190600101614743565b60008151808452614777816020860160208601614b97565b601f01601f19169290920160200192915050565b8183823760009101908152919050565b600082516147ad818460208701614b97565b9190910192915050565b600083516147c9818460208801614b97565b8351908301906147dd818360208801614b97565b01949350505050565b60006001600160a01b03808716835280861660208401525083604083015260806060830152614818608083018461475f565b9695505050505050565b60e08152600061483560e083018a6146da565b8281036020840152614847818a614696565b9050828103604084015261485b818961472f565b9050828103606084015261486f818861472f565b9050828103608084015261488381876146da565b905082810360a0840152614897818661472f565b905082810360c08401526148ab8185614696565b9a9950505050505050505050565b60006101008083526148cd8184018c6146da565b905082810360208401526148e1818b614696565b905082810360408401526148f5818a61472f565b90508281036060840152614909818961472f565b9050828103608084015261491d818861472f565b905082810360a084015261493181876146da565b905082810360c0840152614945818661472f565b905082810360e08401526149598185614696565b9b9a5050505050505050505050565b602081526000613e62602083018461475f565b60a08152600061498e60a083018861475f565b6001600160a01b038716602084015285604084015284606084015282810360808401526149bb818561475f565b98975050505050505050565b60e0815260006149da60e083018a61475f565b6001600160a01b03808a1660208501528860408501528760608501528382036080850152614a08828861475f565b92508560a085015280851660c0850152505098975050505050505050565b6000610100808352614a3a8184018c61475f565b90506001600160a01b03808b16602085015289604085015288606085015287608085015283820360a0850152614a70828861475f565b92508560c085015280851660e085015250509998505050505050505050565b606081526000614aa2606083018661475f565b6020838203818501526000865481600182811c915080831680614ac657607f831692505b858310811415614ae457634e487b7160e01b85526022600452602485fd5b828752602087019650808015614b015760018114614b1257614b3d565b60ff19851688528688019550614b3d565b60008c81526020902060005b85811015614b375781548a820152908401908801614b1e565b89019650505b505050505084810360408601526149bb818761475f565b60008219821115614b6757614b67614c2d565b500190565b600082614b7b57614b7b614c43565b500490565b600082821015614b9257614b92614c2d565b500390565b60005b83811015614bb2578181015183820152602001614b9a565b838111156120065750506000910152565b600181811c90821680614bd757607f821691505b60208210811415614bf857634e487b7160e01b600052602260045260246000fd5b50919050565b6000600019821415614c1257614c12614c2d565b5060010190565b600082614c2857614c28614c43565b500690565b634e487b7160e01b600052601160045260246000fd5b634e487b7160e01b600052601260045260246000fd5b634e487b7160e01b600052603260045260246000fd5b634e487b7160e01b600052604160045260246000fd5b80151581146136c757600080fd5b6001600160e01b0319811681146136c757600080fdfea2646970667358221220378873153151871ae1a1697fb92000097712e227a01a0b9074b37fb608698eab64736f6c63430008070033",
  "linkReferences": {},
  "deployedLinkReferences": {}
}