{
  "_format": "hh-sol-artifact-1",
  "contractName": "Realty",
  "sourceName": "contracts/Realty.sol",
  "abi": [
    {
      "anonymous": false,
      "inputs": [
        {
          "components": [
            {
              "internalType": "string",
              "name": "name",
              "type": "string"
            },
            {
              "internalType": "address",
              "name": "_lister",
              "type": "address"
            },
            {
              "internalType": "uint256",
              "name": "_amount",
              "type": "uint256"
            },
            {
              "internalType": "uint256",
              "name": "_time",
              "type": "uint256"
            },
            {
              "internalType": "string",
              "name": "_location",
              "type": "string"
            },
            {
              "internalType": "uint256",
              "name": "_id",
              "type": "uint256"
            },
            {
              "internalType": "address",
              "name": "_buyer",
              "type": "address"
            },
            {
              "internalType": "string",
              "name": "description",
              "type": "string"
            }
          ],
          "indexed": false,
          "internalType": "struct RealtyNFT.ListedProps[]",
          "name": "properties",
          "type": "tuple[]"
        }
      ],
      "name": "AllProperties",
      "type": "event"
    },
    {
      "anonymous": false,
      "inputs": [
        {
          "indexed": true,
          "internalType": "address",
          "name": "owner",
          "type": "address"
        },
        {
          "indexed": true,
          "internalType": "address",
          "name": "approved",
          "type": "address"
        },
        {
          "indexed": true,
          "internalType": "uint256",
          "name": "tokenId",
          "type": "uint256"
        }
      ],
      "name": "Approval",
      "type": "event"
    },
    {
      "anonymous": false,
      "inputs": [
        {
          "indexed": true,
          "internalType": "address",
          "name": "owner",
          "type": "address"
        },
        {
          "indexed": true,
          "internalType": "address",
          "name": "operator",
          "type": "address"
        },
        {
          "indexed": false,
          "internalType": "bool",
          "name": "approved",
          "type": "bool"
        }
      ],
      "name": "ApprovalForAll",
      "type": "event"
    },
    {
      "anonymous": false,
      "inputs": [
        {
          "components": [
            {
              "internalType": "string",
              "name": "name",
              "type": "string"
            },
            {
              "internalType": "address",
              "name": "_lister",
              "type": "address"
            },
            {
              "internalType": "uint256",
              "name": "_amount",
              "type": "uint256"
            },
            {
              "internalType": "uint256",
              "name": "_time",
              "type": "uint256"
            },
            {
              "internalType": "string",
              "name": "_location",
              "type": "string"
            },
            {
              "internalType": "uint256",
              "name": "_id",
              "type": "uint256"
            },
            {
              "internalType": "address",
              "name": "_buyer",
              "type": "address"
            },
            {
              "internalType": "string",
              "name": "description",
              "type": "string"
            }
          ],
          "indexed": false,
          "internalType": "struct RealtyNFT.ListedProps[]",
          "name": "properties",
          "type": "tuple[]"
        }
      ],
      "name": "CurrentUserProperties",
      "type": "event"
    },
    {
      "anonymous": false,
      "inputs": [
        {
          "indexed": false,
          "internalType": "string",
          "name": "name",
          "type": "string"
        },
        {
          "indexed": false,
          "internalType": "string",
          "name": "location",
          "type": "string"
        },
        {
          "indexed": false,
          "internalType": "string",
          "name": "tokenURL",
          "type": "string"
        }
      ],
      "name": "Listed",
      "type": "event"
    },
    {
      "anonymous": false,
      "inputs": [
        {
          "indexed": false,
          "internalType": "bool",
          "name": "submitted",
          "type": "bool"
        }
      ],
      "name": "Submitted",
      "type": "event"
    },
    {
      "anonymous": false,
      "inputs": [
        {
          "indexed": true,
          "internalType": "address",
          "name": "from",
          "type": "address"
        },
        {
          "indexed": true,
          "internalType": "address",
          "name": "to",
          "type": "address"
        },
        {
          "indexed": true,
          "internalType": "uint256",
          "name": "tokenId",
          "type": "uint256"
        }
      ],
      "name": "Transfer",
      "type": "event"
    },
    {
      "inputs": [
        {
          "internalType": "uint256",
          "name": "",
          "type": "uint256"
        }
      ],
      "name": "_idExists",
      "outputs": [
        {
          "internalType": "bool",
          "name": "",
          "type": "bool"
        }
      ],
      "stateMutability": "view",
      "type": "function"
    },
    {
      "inputs": [
        {
          "internalType": "string",
          "name": "",
          "type": "string"
        }
      ],
      "name": "_isTokenAcceptable",
      "outputs": [
        {
          "internalType": "bool",
          "name": "",
          "type": "bool"
        }
      ],
      "stateMutability": "view",
      "type": "function"
    },
    {
      "inputs": [
        {
          "internalType": "uint256",
          "name": "",
          "type": "uint256"
        }
      ],
      "name": "_trackListingsWithID",
      "outputs": [
        {
          "internalType": "string",
          "name": "name",
          "type": "string"
        },
        {
          "internalType": "address",
          "name": "_lister",
          "type": "address"
        },
        {
          "internalType": "uint256",
          "name": "_amount",
          "type": "uint256"
        },
        {
          "internalType": "uint256",
          "name": "_time",
          "type": "uint256"
        },
        {
          "internalType": "string",
          "name": "_location",
          "type": "string"
        },
        {
          "internalType": "uint256",
          "name": "_id",
          "type": "uint256"
        },
        {
          "internalType": "address",
          "name": "_buyer",
          "type": "address"
        },
        {
          "internalType": "string",
          "name": "description",
          "type": "string"
        }
      ],
      "stateMutability": "view",
      "type": "function"
    },
    {
      "inputs": [
        {
          "internalType": "address",
          "name": "",
          "type": "address"
        },
        {
          "internalType": "uint256",
          "name": "",
          "type": "uint256"
        }
      ],
      "name": "allBoughtPerAddress",
      "outputs": [
        {
          "internalType": "string",
          "name": "name",
          "type": "string"
        },
        {
          "internalType": "address",
          "name": "originalLister",
          "type": "address"
        },
        {
          "internalType": "uint256",
          "name": "_amount",
          "type": "uint256"
        },
        {
          "internalType": "uint256",
          "name": "_time",
          "type": "uint256"
        },
        {
          "internalType": "uint256",
          "name": "purchaseTime",
          "type": "uint256"
        },
        {
          "internalType": "string",
          "name": "_location",
          "type": "string"
        },
        {
          "internalType": "uint256",
          "name": "_id",
          "type": "uint256"
        },
        {
          "internalType": "address",
          "name": "newOwner",
          "type": "address"
        },
        {
          "internalType": "string",
          "name": "description",
          "type": "string"
        }
      ],
      "stateMutability": "view",
      "type": "function"
    },
    {
      "inputs": [
        {
          "internalType": "address",
          "name": "",
          "type": "address"
        },
        {
          "internalType": "uint256",
          "name": "",
          "type": "uint256"
        }
      ],
      "name": "allListedPerAddress",
      "outputs": [
        {
          "internalType": "string",
          "name": "name",
          "type": "string"
        },
        {
          "internalType": "address",
          "name": "_lister",
          "type": "address"
        },
        {
          "internalType": "uint256",
          "name": "_amount",
          "type": "uint256"
        },
        {
          "internalType": "uint256",
          "name": "_time",
          "type": "uint256"
        },
        {
          "internalType": "string",
          "name": "_location",
          "type": "string"
        },
        {
          "internalType": "uint256",
          "name": "_id",
          "type": "uint256"
        },
        {
          "internalType": "address",
          "name": "_buyer",
          "type": "address"
        },
        {
          "internalType": "string",
          "name": "description",
          "type": "string"
        }
      ],
      "stateMutability": "view",
      "type": "function"
    },
    {
      "inputs": [
        {
          "internalType": "uint256",
          "name": "",
          "type": "uint256"
        }
      ],
      "name": "allListedProperties",
      "outputs": [
        {
          "internalType": "string",
          "name": "name",
          "type": "string"
        },
        {
          "internalType": "address",
          "name": "_lister",
          "type": "address"
        },
        {
          "internalType": "uint256",
          "name": "_amount",
          "type": "uint256"
        },
        {
          "internalType": "uint256",
          "name": "_time",
          "type": "uint256"
        },
        {
          "internalType": "string",
          "name": "_location",
          "type": "string"
        },
        {
          "internalType": "uint256",
          "name": "_id",
          "type": "uint256"
        },
        {
          "internalType": "address",
          "name": "_buyer",
          "type": "address"
        },
        {
          "internalType": "string",
          "name": "description",
          "type": "string"
        }
      ],
      "stateMutability": "view",
      "type": "function"
    },
    {
      "inputs": [
        {
          "internalType": "address",
          "name": "",
          "type": "address"
        },
        {
          "internalType": "uint256",
          "name": "",
          "type": "uint256"
        }
      ],
      "name": "allListingsPerAddress",
      "outputs": [
        {
          "internalType": "string",
          "name": "name",
          "type": "string"
        },
        {
          "internalType": "address",
          "name": "_lister",
          "type": "address"
        },
        {
          "internalType": "uint256",
          "name": "_amount",
          "type": "uint256"
        },
        {
          "internalType": "uint256",
          "name": "_time",
          "type": "uint256"
        },
        {
          "internalType": "string",
          "name": "_location",
          "type": "string"
        },
        {
          "internalType": "string",
          "name": "description",
          "type": "string"
        }
      ],
      "stateMutability": "view",
      "type": "function"
    },
    {
      "inputs": [
        {
          "internalType": "address",
          "name": "to",
          "type": "address"
        },
        {
          "internalType": "uint256",
          "name": "tokenId",
          "type": "uint256"
        }
      ],
      "name": "approve",
      "outputs": [],
      "stateMutability": "nonpayable",
      "type": "function"
    },
    {
      "inputs": [
        {
          "internalType": "address",
          "name": "owner",
          "type": "address"
        }
      ],
      "name": "balanceOf",
      "outputs": [
        {
          "internalType": "uint256",
          "name": "",
          "type": "uint256"
        }
      ],
      "stateMutability": "view",
      "type": "function"
    },
    {
      "inputs": [
        {
          "internalType": "string",
          "name": "symbol",
          "type": "string"
        }
      ],
      "name": "contractBalance",
      "outputs": [
        {
          "internalType": "uint256",
          "name": "",
          "type": "uint256"
        }
      ],
      "stateMutability": "view",
      "type": "function"
    },
    {
      "inputs": [],
      "name": "getAllProperties",
      "outputs": [
        {
          "internalType": "string[]",
          "name": "",
          "type": "string[]"
        },
        {
          "internalType": "address[]",
          "name": "",
          "type": "address[]"
        },
        {
          "internalType": "uint256[]",
          "name": "",
          "type": "uint256[]"
        },
        {
          "internalType": "uint256[]",
          "name": "",
          "type": "uint256[]"
        },
        {
          "internalType": "uint256[]",
          "name": "",
          "type": "uint256[]"
        },
        {
          "internalType": "string[]",
          "name": "",
          "type": "string[]"
        },
        {
          "internalType": "string[]",
          "name": "",
          "type": "string[]"
        },
        {
          "internalType": "address[]",
          "name": "",
          "type": "address[]"
        }
      ],
      "stateMutability": "view",
      "type": "function"
    },
    {
      "inputs": [
        {
          "internalType": "uint256",
          "name": "tokenId",
          "type": "uint256"
        }
      ],
      "name": "getApproved",
      "outputs": [
        {
          "internalType": "address",
          "name": "",
          "type": "address"
        }
      ],
      "stateMutability": "view",
      "type": "function"
    },
    {
      "inputs": [],
      "name": "getMyListedProperties",
      "outputs": [
        {
          "internalType": "string[]",
          "name": "",
          "type": "string[]"
        },
        {
          "internalType": "address[]",
          "name": "",
          "type": "address[]"
        },
        {
          "internalType": "uint256[]",
          "name": "",
          "type": "uint256[]"
        },
        {
          "internalType": "uint256[]",
          "name": "",
          "type": "uint256[]"
        },
        {
          "internalType": "uint256[]",
          "name": "",
          "type": "uint256[]"
        },
        {
          "internalType": "string[]",
          "name": "",
          "type": "string[]"
        },
        {
          "internalType": "string[]",
          "name": "",
          "type": "string[]"
        },
        {
          "internalType": "address[]",
          "name": "",
          "type": "address[]"
        }
      ],
      "stateMutability": "view",
      "type": "function"
    },
    {
      "inputs": [],
      "name": "getMyPurchasedProperties",
      "outputs": [
        {
          "internalType": "string[]",
          "name": "",
          "type": "string[]"
        },
        {
          "internalType": "address[]",
          "name": "",
          "type": "address[]"
        },
        {
          "internalType": "uint256[]",
          "name": "",
          "type": "uint256[]"
        },
        {
          "internalType": "uint256[]",
          "name": "",
          "type": "uint256[]"
        },
        {
          "internalType": "uint256[]",
          "name": "",
          "type": "uint256[]"
        },
        {
          "internalType": "string[]",
          "name": "",
          "type": "string[]"
        },
        {
          "internalType": "string[]",
          "name": "",
          "type": "string[]"
        },
        {
          "internalType": "address[]",
          "name": "",
          "type": "address[]"
        }
      ],
      "stateMutability": "view",
      "type": "function"
    },
    {
      "inputs": [
        {
          "internalType": "address",
          "name": "",
          "type": "address"
        },
        {
          "internalType": "string",
          "name": "",
          "type": "string"
        }
      ],
      "name": "hasMinted",
      "outputs": [
        {
          "internalType": "bool",
          "name": "",
          "type": "bool"
        }
      ],
      "stateMutability": "view",
      "type": "function"
    },
    {
      "inputs": [
        {
          "internalType": "address",
          "name": "owner",
          "type": "address"
        },
        {
          "internalType": "address",
          "name": "operator",
          "type": "address"
        }
      ],
      "name": "isApprovedForAll",
      "outputs": [
        {
          "internalType": "bool",
          "name": "",
          "type": "bool"
        }
      ],
      "stateMutability": "view",
      "type": "function"
    },
    {
      "inputs": [
        {
          "internalType": "address",
          "name": "",
          "type": "address"
        },
        {
          "internalType": "string",
          "name": "",
          "type": "string"
        }
      ],
      "name": "isListed",
      "outputs": [
        {
          "internalType": "bool",
          "name": "",
          "type": "bool"
        }
      ],
      "stateMutability": "view",
      "type": "function"
    },
    {
      "inputs": [
        {
          "internalType": "string",
          "name": "name",
          "type": "string"
        },
        {
          "internalType": "uint256",
          "name": "_amount",
          "type": "uint256"
        },
        {
          "internalType": "string",
          "name": "_location",
          "type": "string"
        },
        {
          "internalType": "string",
          "name": "_symbol",
          "type": "string"
        },
        {
          "internalType": "string",
          "name": "_description",
          "type": "string"
        }
      ],
      "name": "listProperty",
      "outputs": [
        {
          "internalType": "bool",
          "name": "",
          "type": "bool"
        }
      ],
      "stateMutability": "nonpayable",
      "type": "function"
    },
    {
      "inputs": [
        {
          "internalType": "address",
          "name": "",
          "type": "address"
        }
      ],
      "name": "listed",
      "outputs": [
        {
          "internalType": "string",
          "name": "name",
          "type": "string"
        },
        {
          "internalType": "address",
          "name": "_lister",
          "type": "address"
        },
        {
          "internalType": "uint256",
          "name": "_amount",
          "type": "uint256"
        },
        {
          "internalType": "uint256",
          "name": "_time",
          "type": "uint256"
        },
        {
          "internalType": "string",
          "name": "_location",
          "type": "string"
        },
        {
          "internalType": "uint256",
          "name": "_id",
          "type": "uint256"
        },
        {
          "internalType": "address",
          "name": "_buyer",
          "type": "address"
        },
        {
          "internalType": "string",
          "name": "description",
          "type": "string"
        }
      ],
      "stateMutability": "view",
      "type": "function"
    },
    {
      "inputs": [
        {
          "internalType": "address",
          "name": "",
          "type": "address"
        }
      ],
      "name": "listings",
      "outputs": [
        {
          "internalType": "string",
          "name": "name",
          "type": "string"
        },
        {
          "internalType": "address",
          "name": "_lister",
          "type": "address"
        },
        {
          "internalType": "uint256",
          "name": "_amount",
          "type": "uint256"
        },
        {
          "internalType": "uint256",
          "name": "_time",
          "type": "uint256"
        },
        {
          "internalType": "string",
          "name": "_location",
          "type": "string"
        },
        {
          "internalType": "string",
          "name": "description",
          "type": "string"
        }
      ],
      "stateMutability": "view",
      "type": "function"
    },
    {
      "inputs": [
        {
          "internalType": "string",
          "name": "_tokenURI",
          "type": "string"
        },
        {
          "internalType": "string",
          "name": "_name",
          "type": "string"
        }
      ],
      "name": "mintNFT",
      "outputs": [
        {
          "internalType": "uint256",
          "name": "",
          "type": "uint256"
        }
      ],
      "stateMutability": "nonpayable",
      "type": "function"
    },
    {
      "inputs": [],
      "name": "name",
      "outputs": [
        {
          "internalType": "string",
          "name": "",
          "type": "string"
        }
      ],
      "stateMutability": "view",
      "type": "function"
    },
    {
      "inputs": [],
      "name": "nullAddress",
      "outputs": [
        {
          "internalType": "address",
          "name": "",
          "type": "address"
        }
      ],
      "stateMutability": "view",
      "type": "function"
    },
    {
      "inputs": [
        {
          "internalType": "uint256",
          "name": "tokenId",
          "type": "uint256"
        }
      ],
      "name": "ownerOf",
      "outputs": [
        {
          "internalType": "address",
          "name": "",
          "type": "address"
        }
      ],
      "stateMutability": "view",
      "type": "function"
    },
    {
      "inputs": [
        {
          "internalType": "uint256",
          "name": "_id",
          "type": "uint256"
        },
        {
          "internalType": "string",
          "name": "symbol",
          "type": "string"
        }
      ],
      "name": "payForProperty",
      "outputs": [],
      "stateMutability": "nonpayable",
      "type": "function"
    },
    {
      "inputs": [
        {
          "internalType": "string",
          "name": "",
          "type": "string"
        }
      ],
      "name": "paymentTokens",
      "outputs": [
        {
          "internalType": "address",
          "name": "",
          "type": "address"
        }
      ],
      "stateMutability": "view",
      "type": "function"
    },
    {
      "inputs": [
        {
          "internalType": "address",
          "name": "",
          "type": "address"
        }
      ],
      "name": "propertyID",
      "outputs": [
        {
          "internalType": "uint256",
          "name": "",
          "type": "uint256"
        }
      ],
      "stateMutability": "view",
      "type": "function"
    },
    {
      "inputs": [
        {
          "internalType": "address",
          "name": "from",
          "type": "address"
        },
        {
          "internalType": "address",
          "name": "to",
          "type": "address"
        },
        {
          "internalType": "uint256",
          "name": "tokenId",
          "type": "uint256"
        }
      ],
      "name": "safeTransferFrom",
      "outputs": [],
      "stateMutability": "nonpayable",
      "type": "function"
    },
    {
      "inputs": [
        {
          "internalType": "address",
          "name": "from",
          "type": "address"
        },
        {
          "internalType": "address",
          "name": "to",
          "type": "address"
        },
        {
          "internalType": "uint256",
          "name": "tokenId",
          "type": "uint256"
        },
        {
          "internalType": "bytes",
          "name": "data",
          "type": "bytes"
        }
      ],
      "name": "safeTransferFrom",
      "outputs": [],
      "stateMutability": "nonpayable",
      "type": "function"
    },
    {
      "inputs": [
        {
          "internalType": "address",
          "name": "operator",
          "type": "address"
        },
        {
          "internalType": "bool",
          "name": "approved",
          "type": "bool"
        }
      ],
      "name": "setApprovalForAll",
      "outputs": [],
      "stateMutability": "nonpayable",
      "type": "function"
    },
    {
      "inputs": [
        {
          "internalType": "string",
          "name": "symbol",
          "type": "string"
        },
        {
          "internalType": "address",
          "name": "tokenAddress",
          "type": "address"
        }
      ],
      "name": "setPaymentToken",
      "outputs": [],
      "stateMutability": "nonpayable",
      "type": "function"
    },
    {
      "inputs": [
        {
          "internalType": "bytes4",
          "name": "interfaceId",
          "type": "bytes4"
        }
      ],
      "name": "supportsInterface",
      "outputs": [
        {
          "internalType": "bool",
          "name": "",
          "type": "bool"
        }
      ],
      "stateMutability": "view",
      "type": "function"
    },
    {
      "inputs": [],
      "name": "symbol",
      "outputs": [
        {
          "internalType": "string",
          "name": "",
          "type": "string"
        }
      ],
      "stateMutability": "view",
      "type": "function"
    },
    {
      "inputs": [
        {
          "internalType": "uint256",
          "name": "_tokenId",
          "type": "uint256"
        }
      ],
      "name": "tokenURI",
      "outputs": [
        {
          "internalType": "string",
          "name": "",
          "type": "string"
        }
      ],
      "stateMutability": "view",
      "type": "function"
    },
    {
      "inputs": [],
      "name": "tokensMinted",
      "outputs": [
        {
          "internalType": "uint256",
          "name": "",
          "type": "uint256"
        }
      ],
      "stateMutability": "view",
      "type": "function"
    },
    {
      "inputs": [
        {
          "internalType": "address",
          "name": "from",
          "type": "address"
        },
        {
          "internalType": "address",
          "name": "to",
          "type": "address"
        },
        {
          "internalType": "uint256",
          "name": "tokenId",
          "type": "uint256"
        }
      ],
      "name": "transferFrom",
      "outputs": [],
      "stateMutability": "nonpayable",
      "type": "function"
    },
    {
      "inputs": [
        {
          "internalType": "string",
          "name": "symbol",
          "type": "string"
        }
      ],
      "name": "userBalance",
      "outputs": [
        {
          "internalType": "uint256",
          "name": "",
          "type": "uint256"
        }
      ],
      "stateMutability": "view",
      "type": "function"
    }
  ],
  "bytecode": "0x60806040523480156200001157600080fd5b5060408051808201825260068152655265616c747960d01b60208083019182528351808501909452600384526214931560ea1b9084015281519192916200005b916000916200008c565b508051620000719060019060208401906200008c565b5050600880546001600160a01b03191633179055506200016f565b8280546200009a9062000132565b90600052602060002090601f016020900481019282620000be576000855562000109565b82601f10620000d957805160ff191683800117855562000109565b8280016001018555821562000109579182015b8281111562000109578251825591602001919060010190620000ec565b50620001179291506200011b565b5090565b5b808211156200011757600081556001016200011c565b600181811c908216806200014757607f821691505b602082108114156200016957634e487b7160e01b600052602260045260246000fd5b50919050565b615513806200017f6000396000f3fe608060405234801561001057600080fd5b50600436106102775760003560e01c80636de9f32b11610160578063a906e6e0116100d8578063e96055441161008c578063ea29961211610071578063ea299612146105fd578063eccfa80d1461063c578063ffb1500e1461064f57600080fd5b8063e9605544146105ae578063e985e9c5146105c157600080fd5b8063c332560f116100bd578063c332560f14610580578063c87b56dd14610588578063d5dc7be51461059b57600080fd5b8063a906e6e014610539578063b88d4fde1461056d57600080fd5b806395d89b411161012f57806397e82b9f1161011457806397e82b9f146104f0578063a22cb46514610503578063a9068c581461051657600080fd5b806395d89b41146104a957806395f5fd1d146104b157600080fd5b80636de9f32b1461044657806370a082311461044e57806377c2f29b1461046157806388ad4e2c1461048157600080fd5b80633d51402c116101f35780634e5a2407116101c25780636352211e116101a75780636352211e1461040d578063641382301461042057806365d96c821461043357600080fd5b80634e5a2407146103df578063551edf901461040457600080fd5b80633d51402c1461038a57806342842e0e146103925780634562e30e146103a557806348fb983d146103cc57600080fd5b8063095ea7b31161024a57806323b872dd1161022f57806323b872dd1461032d5780633ae4f349146103405780633b527e281461036e57600080fd5b8063095ea7b3146102f75780631536aedd1461030c57600080fd5b806301ffc9a71461027c5780630224042d146102a457806306fdde03146102b7578063081812fc146102cc575b600080fd5b61028f61028a366004614cf0565b610662565b60405190151581526020015b60405180910390f35b61028f6102b2366004614d2a565b6106ff565b6102bf610b11565b60405161029b919061515e565b6102df6102da366004614ec0565b610ba3565b6040516001600160a01b03909116815260200161029b565b61030a610305366004614ca9565b610bca565b005b61031f61031a366004614dec565b610cfc565b60405190815260200161029b565b61030a61033b366004614b6c565b610d92565b61028f61034e366004614dec565b8051602081830181018051600a8252928201919093012091525460ff1681565b610376610e19565b60405161029b9897969594939291906150af565b6103766114b9565b61030a6103a0366004614b6c565b611a7e565b6103b86103b3366004614ca9565b611a99565b60405161029b9897969594939291906151d2565b61030a6103da366004614e21565b611cb3565b6103f26103ed366004614ca9565b611dac565b60405161029b96959493929190615171565b6102df61dead81565b6102df61041b366004614ec0565b611fac565b6103b861042e366004614b1e565b612011565b6103f2610441366004614b1e565b61202c565b61031f612047565b61031f61045c366004614b1e565b612057565b61031f61046f366004614b1e565b600e6020526000908152604090205481565b61049461048f366004614ca9565b6120f1565b60405161029b99989796959493929190615239565b6102bf612311565b61028f6104bf366004614c5b565b600d602090815260009283526040909220815180830184018051928152908401929093019190912091525460ff1681565b6103b86104fe366004614ec0565b612320565b61030a610511366004614c24565b612353565b61028f610524366004614ec0565b600b6020526000908152604090205460ff1681565b6102df610547366004614dec565b80516020818301810180516009825292820191909301209152546001600160a01b031681565b61030a61057b366004614ba8565b612362565b6103766123f0565b6102bf610596366004614ec0565b612a6c565b6103b86105a9366004614ec0565b612a77565b61031f6105bc366004614e66565b612a92565b61028f6105cf366004614b39565b6001600160a01b03918216600090815260056020908152604080832093909416825291909152205460ff1690565b61028f61060b366004614c5b565b600c602090815260009283526040909220815180830184018051928152908401929093019190912091525460ff1681565b61030a61064a366004614ef2565b6135f3565b61031f61065d366004614dec565b613e48565b60006001600160e01b031982167f80ac58cd0000000000000000000000000000000000000000000000000000000014806106c557506001600160e01b031982167f5b5e139f00000000000000000000000000000000000000000000000000000000145b806106f957507f01ffc9a7000000000000000000000000000000000000000000000000000000006001600160e01b03198316145b92915050565b6000600a836040516107119190615028565b9081526040519081900360200190205460ff16151560011461077a5760405162461bcd60e51b815260206004820152601c60248201527f5061796d656e7420746f6b656e2069736e27742061636365707465640000000060448201526064015b60405180910390fd5b60098360405161078a9190615028565b908152604051908190036020018120546323b872dd60e01b82523360048301523060248301526706f05b59d3b2000060448301526001600160a01b0316906323b872dd90606401602060405180830381600087803b1580156107eb57600080fd5b505af11580156107ff573d6000803e3d6000fd5b505050506040513d601f19601f820116820180604052508101906108239190614cd3565b50336000908152600c602052604090819020905160019190610848908b908b90615018565b9081526040805160209281900383018120805460ff191694151594909417909355601f8a01829004909102820160e090810190915260c0820189815282918b908b90819085018382808284376000920191909152505050908252503360208083019190915260408083018a90524260608401528051601f890183900483028101830190915287815260809092019190889088908190840183828082843760009201829052509385525050506020918201859052338152600f82526040902082518051919261091b9284929091019061498a565b506020828101516001830180546001600160a01b0319166001600160a01b0390921691909117905560408301516002830155606083015160038301556080830151805161096e926004850192019061498a565b5060a0820151805161098a91600584019160209091019061498a565b505033600090815260116020908152604091829020825160e0601f8d018490049093028101830190935260c083018b815290935082918c908c90819085018382808284376000920191909152505050908252503360208083019190915260408083018b90524260608401528051601f8a0183900483028101830190915288815260809092019190899089908190840183828082843760009201829052509385525050506020918201869052835460018101855593815281902082518051939460060290910192610a5d928492019061498a565b506020828101516001830180546001600160a01b0319166001600160a01b03909216919091179055604083015160028301556060830151600383015560808301518051610ab0926004850192019061498a565b5060a08201518051610acc91600584019160209091019061498a565b5050604051600181527f7afbc00bc4d0f79d28ffeec44883e3454d42bcd4acd2812fd84d3ac6291aaf72915060200160405180910390a1506001979650505050505050565b606060008054610b20906153f7565b80601f0160208091040260200160405190810160405280929190818152602001828054610b4c906153f7565b8015610b995780601f10610b6e57610100808354040283529160200191610b99565b820191906000526020600020905b815481529060010190602001808311610b7c57829003601f168201915b5050505050905090565b6000610bae82613e92565b506000908152600460205260409020546001600160a01b031690565b6000610bd582611fac565b9050806001600160a01b0316836001600160a01b03161415610c5f5760405162461bcd60e51b815260206004820152602160248201527f4552433732313a20617070726f76616c20746f2063757272656e74206f776e6560448201527f72000000000000000000000000000000000000000000000000000000000000006064820152608401610771565b336001600160a01b0382161480610c7b5750610c7b81336105cf565b610ced5760405162461bcd60e51b815260206004820152603e60248201527f4552433732313a20617070726f76652063616c6c6572206973206e6f7420746f60448201527f6b656e206f776e6572206e6f7220617070726f76656420666f7220616c6c00006064820152608401610771565b610cf78383613ef9565b505050565b6000600982604051610d0e9190615028565b908152604051908190036020018120546370a0823160e01b82523360048301526001600160a01b0316906370a08231906024015b60206040518083038186803b158015610d5a57600080fd5b505afa158015610d6e573d6000803e3d6000fd5b505050506040513d601f19601f820116820180604052508101906106f99190614ed9565b610d9c3382613f67565b610e0e5760405162461bcd60e51b815260206004820152602e60248201527f4552433732313a2063616c6c6572206973206e6f7420746f6b656e206f776e6560448201527f72206e6f7220617070726f7665640000000000000000000000000000000000006064820152608401610771565b610cf7838383613fe6565b33600090815260156020526040812054606091829182918291829182918291829167ffffffffffffffff811115610e5257610e526154a3565b604051908082528060200260200182016040528015610e8557816020015b6060815260200190600190039081610e705790505b50336000908152601560205260408120549192509067ffffffffffffffff811115610eb257610eb26154a3565b604051908082528060200260200182016040528015610edb578160200160208202803683370190505b50336000908152601560205260408120549192509067ffffffffffffffff811115610f0857610f086154a3565b604051908082528060200260200182016040528015610f31578160200160208202803683370190505b50336000908152601560205260408120549192509067ffffffffffffffff811115610f5e57610f5e6154a3565b604051908082528060200260200182016040528015610f87578160200160208202803683370190505b50336000908152601560205260408120549192509067ffffffffffffffff811115610fb457610fb46154a3565b604051908082528060200260200182016040528015610fdd578160200160208202803683370190505b50336000908152601560205260408120549192509067ffffffffffffffff81111561100a5761100a6154a3565b60405190808252806020026020018201604052801561103d57816020015b60608152602001906001900390816110285790505b50336000908152601560205260408120549192509067ffffffffffffffff81111561106a5761106a6154a3565b60405190808252806020026020018201604052801561109d57816020015b60608152602001906001900390816110885790505b50336000908152601560205260408120549192509067ffffffffffffffff8111156110ca576110ca6154a3565b6040519080825280602002602001820160405280156110f3578160200160208202803683370190505b50905060005b336000908152601560205260409020548110156114a0573360009081526015602052604081208054839081106111315761113161548d565b90600052602060002090600902016040518061012001604052908160008201805461115b906153f7565b80601f0160208091040260200160405190810160405280929190818152602001828054611187906153f7565b80156111d45780601f106111a9576101008083540402835291602001916111d4565b820191906000526020600020905b8154815290600101906020018083116111b757829003601f168201915b505050918352505060018201546001600160a01b0316602082015260028201546040820152600382015460608201526004820154608082015260058201805460a090920191611222906153f7565b80601f016020809104026020016040519081016040528092919081815260200182805461124e906153f7565b801561129b5780601f106112705761010080835404028352916020019161129b565b820191906000526020600020905b81548152906001019060200180831161127e57829003601f168201915b50505091835250506006820154602082015260078201546001600160a01b031660408201526008820180546060909201916112d5906153f7565b80601f0160208091040260200160405190810160405280929190818152602001828054611301906153f7565b801561134e5780601f106113235761010080835404028352916020019161134e565b820191906000526020600020905b81548152906001019060200180831161133157829003601f168201915b505050505081525050905080600001518a83815181106113705761137061548d565b602002602001018190525080602001518983815181106113925761139261548d565b60200260200101906001600160a01b031690816001600160a01b03168152505080604001518883815181106113c9576113c961548d565b60200260200101818152505080608001518783815181106113ec576113ec61548d565b6020026020010181815250508060c0015186838151811061140f5761140f61548d565b6020026020010181815250508060a001518583815181106114325761143261548d565b60200260200101819052508061010001518483815181106114555761145561548d565b60200260200101819052508060e001518383815181106114775761147761548d565b6001600160a01b03909216602092830291909101909101525061149981615432565b90506110f9565b50969f959e50939c50919a509850965094509092509050565b606080606080606080606080600060148054905067ffffffffffffffff8111156114e5576114e56154a3565b60405190808252806020026020018201604052801561151857816020015b60608152602001906001900390816115035790505b5060145490915060009067ffffffffffffffff81111561153a5761153a6154a3565b604051908082528060200260200182016040528015611563578160200160208202803683370190505b5060145490915060009067ffffffffffffffff811115611585576115856154a3565b6040519080825280602002602001820160405280156115ae578160200160208202803683370190505b5060145490915060009067ffffffffffffffff8111156115d0576115d06154a3565b6040519080825280602002602001820160405280156115f9578160200160208202803683370190505b5060145490915060009067ffffffffffffffff81111561161b5761161b6154a3565b604051908082528060200260200182016040528015611644578160200160208202803683370190505b5060145490915060009067ffffffffffffffff811115611666576116666154a3565b60405190808252806020026020018201604052801561169957816020015b60608152602001906001900390816116845790505b5060145490915060009067ffffffffffffffff8111156116bb576116bb6154a3565b6040519080825280602002602001820160405280156116ee57816020015b60608152602001906001900390816116d95790505b5060145490915060009067ffffffffffffffff811115611710576117106154a3565b604051908082528060200260200182016040528015611739578160200160208202803683370190505b50905060005b6014548110156114a05760006014828154811061175e5761175e61548d565b906000526020600020906008020160405180610100016040529081600082018054611788906153f7565b80601f01602080910402602001604051908101604052809291908181526020018280546117b4906153f7565b80156118015780601f106117d657610100808354040283529160200191611801565b820191906000526020600020905b8154815290600101906020018083116117e457829003601f168201915b505050918352505060018201546001600160a01b031660208201526002820154604082015260038201546060820152600482018054608090920191611845906153f7565b80601f0160208091040260200160405190810160405280929190818152602001828054611871906153f7565b80156118be5780601f10611893576101008083540402835291602001916118be565b820191906000526020600020905b8154815290600101906020018083116118a157829003601f168201915b50505091835250506005820154602082015260068201546001600160a01b031660408201526007820180546060909201916118f8906153f7565b80601f0160208091040260200160405190810160405280929190818152602001828054611924906153f7565b80156119715780601f1061194657610100808354040283529160200191611971565b820191906000526020600020905b81548152906001019060200180831161195457829003601f168201915b505050505081525050905080600001518a83815181106119935761199361548d565b602002602001018190525080602001518983815181106119b5576119b561548d565b60200260200101906001600160a01b031690816001600160a01b03168152505080604001518883815181106119ec576119ec61548d565b6020026020010181815250508060600151878381518110611a0f57611a0f61548d565b6020026020010181815250508060a00151868381518110611a3257611a3261548d565b6020026020010181815250508060c00151838381518110611a5557611a5561548d565b6001600160a01b039092166020928302919091019091015250611a7781615432565b905061173f565b610cf783838360405180602001604052806000815250612362565b60136020528160005260406000208181548110611ab557600080fd5b906000526020600020906008020160009150915050806000018054611ad9906153f7565b80601f0160208091040260200160405190810160405280929190818152602001828054611b05906153f7565b8015611b525780601f10611b2757610100808354040283529160200191611b52565b820191906000526020600020905b815481529060010190602001808311611b3557829003601f168201915b50505060018401546002850154600386015460048701805496976001600160a01b039094169692955090935090611b88906153f7565b80601f0160208091040260200160405190810160405280929190818152602001828054611bb4906153f7565b8015611c015780601f10611bd657610100808354040283529160200191611c01565b820191906000526020600020905b815481529060010190602001808311611be457829003601f168201915b5050505060058301546006840154600785018054949592946001600160a01b03909216935090611c30906153f7565b80601f0160208091040260200160405190810160405280929190818152602001828054611c5c906153f7565b8015611ca95780601f10611c7e57610100808354040283529160200191611ca9565b820191906000526020600020905b815481529060010190602001808311611c8c57829003601f168201915b5050505050905088565b6008546001600160a01b03163314611d335760405162461bcd60e51b815260206004820152602260248201527f4f6e6c79206f776e65722063616e2063616c6c20746869732066756e6374696f60448201527f6e2e0000000000000000000000000000000000000000000000000000000000006064820152608401610771565b80600983604051611d449190615028565b908152602001604051809103902060006101000a8154816001600160a01b0302191690836001600160a01b031602179055506001600a83604051611d889190615028565b908152604051908190036020019020805491151560ff199092169190911790555050565b60116020528160005260406000208181548110611dc857600080fd5b906000526020600020906006020160009150915050806000018054611dec906153f7565b80601f0160208091040260200160405190810160405280929190818152602001828054611e18906153f7565b8015611e655780601f10611e3a57610100808354040283529160200191611e65565b820191906000526020600020905b815481529060010190602001808311611e4857829003601f168201915b50505060018401546002850154600386015460048701805496976001600160a01b039094169692955090935090611e9b906153f7565b80601f0160208091040260200160405190810160405280929190818152602001828054611ec7906153f7565b8015611f145780601f10611ee957610100808354040283529160200191611f14565b820191906000526020600020905b815481529060010190602001808311611ef757829003601f168201915b505050505090806005018054611f29906153f7565b80601f0160208091040260200160405190810160405280929190818152602001828054611f55906153f7565b8015611fa25780601f10611f7757610100808354040283529160200191611fa2565b820191906000526020600020905b815481529060010190602001808311611f8557829003601f168201915b5050505050905086565b6000818152600260205260408120546001600160a01b0316806106f95760405162461bcd60e51b815260206004820152601860248201527f4552433732313a20696e76616c696420746f6b656e20494400000000000000006044820152606401610771565b601060205260009081526040902080548190611ad9906153f7565b600f60205260009081526040902080548190611dec906153f7565b600061205260075490565b905090565b60006001600160a01b0382166120d55760405162461bcd60e51b815260206004820152602960248201527f4552433732313a2061646472657373207a65726f206973206e6f74206120766160448201527f6c6964206f776e657200000000000000000000000000000000000000000000006064820152608401610771565b506001600160a01b031660009081526003602052604090205490565b6015602052816000526040600020818154811061210d57600080fd5b906000526020600020906009020160009150915050806000018054612131906153f7565b80601f016020809104026020016040519081016040528092919081815260200182805461215d906153f7565b80156121aa5780601f1061217f576101008083540402835291602001916121aa565b820191906000526020600020905b81548152906001019060200180831161218d57829003601f168201915b505050600184015460028501546003860154600487015460058801805497986001600160a01b039095169793965091945092916121e6906153f7565b80601f0160208091040260200160405190810160405280929190818152602001828054612212906153f7565b801561225f5780601f106122345761010080835404028352916020019161225f565b820191906000526020600020905b81548152906001019060200180831161224257829003601f168201915b5050505060068301546007840154600885018054949592946001600160a01b0390921693509061228e906153f7565b80601f01602080910402602001604051908101604052809291908181526020018280546122ba906153f7565b80156123075780601f106122dc57610100808354040283529160200191612307565b820191906000526020600020905b8154815290600101906020018083116122ea57829003601f168201915b5050505050905089565b606060018054610b20906153f7565b6014818154811061233057600080fd5b9060005260206000209060080201600091509050806000018054611ad9906153f7565b61235e3383836141b3565b5050565b61236c3383613f67565b6123de5760405162461bcd60e51b815260206004820152602e60248201527f4552433732313a2063616c6c6572206973206e6f7420746f6b656e206f776e6560448201527f72206e6f7220617070726f7665640000000000000000000000000000000000006064820152608401610771565b6123ea84848484614282565b50505050565b33600090815260136020526040812054606091829182918291829182918291829167ffffffffffffffff811115612429576124296154a3565b60405190808252806020026020018201604052801561245c57816020015b60608152602001906001900390816124475790505b50336000908152601360205260408120549192509067ffffffffffffffff811115612489576124896154a3565b6040519080825280602002602001820160405280156124b2578160200160208202803683370190505b50336000908152601360205260408120549192509067ffffffffffffffff8111156124df576124df6154a3565b604051908082528060200260200182016040528015612508578160200160208202803683370190505b50336000908152601360205260408120549192509067ffffffffffffffff811115612535576125356154a3565b60405190808252806020026020018201604052801561255e578160200160208202803683370190505b50336000908152601360205260408120549192509067ffffffffffffffff81111561258b5761258b6154a3565b6040519080825280602002602001820160405280156125b4578160200160208202803683370190505b50336000908152601360205260408120549192509067ffffffffffffffff8111156125e1576125e16154a3565b60405190808252806020026020018201604052801561261457816020015b60608152602001906001900390816125ff5790505b50336000908152601360205260408120549192509067ffffffffffffffff811115612641576126416154a3565b60405190808252806020026020018201604052801561267457816020015b606081526020019060019003908161265f5790505b50336000908152601360205260408120549192509067ffffffffffffffff8111156126a1576126a16154a3565b6040519080825280602002602001820160405280156126ca578160200160208202803683370190505b50905060005b336000908152601360205260409020548110156114a0573360009081526013602052604081208054839081106127085761270861548d565b906000526020600020906008020160405180610100016040529081600082018054612732906153f7565b80601f016020809104026020016040519081016040528092919081815260200182805461275e906153f7565b80156127ab5780601f10612780576101008083540402835291602001916127ab565b820191906000526020600020905b81548152906001019060200180831161278e57829003601f168201915b505050918352505060018201546001600160a01b0316602082015260028201546040820152600382015460608201526004820180546080909201916127ef906153f7565b80601f016020809104026020016040519081016040528092919081815260200182805461281b906153f7565b80156128685780601f1061283d57610100808354040283529160200191612868565b820191906000526020600020905b81548152906001019060200180831161284b57829003601f168201915b50505091835250506005820154602082015260068201546001600160a01b031660408201526007820180546060909201916128a2906153f7565b80601f01602080910402602001604051908101604052809291908181526020018280546128ce906153f7565b801561291b5780601f106128f05761010080835404028352916020019161291b565b820191906000526020600020905b8154815290600101906020018083116128fe57829003601f168201915b505050505081525050905080600001518a838151811061293d5761293d61548d565b6020026020010181905250806020015189838151811061295f5761295f61548d565b60200260200101906001600160a01b031690816001600160a01b03168152505080604001518883815181106129965761299661548d565b60200260200101818152505080606001518783815181106129b9576129b961548d565b6020026020010181815250508060a001518683815181106129dc576129dc61548d565b60200260200101818152505080608001518583815181106129ff576129ff61548d565b60200260200101819052508060e00151848381518110612a2157612a2161548d565b60200260200101819052508060c00151838381518110612a4357612a4361548d565b6001600160a01b039092166020928302919091019091015250612a6581615432565b90506126d0565b60606106f982614300565b601260205260009081526040902080548190611ad9906153f7565b336000908152600c60205260408082209051612aaf908490615028565b9081526040519081900360200190205460ff16612b0e5760405162461bcd60e51b815260206004820152601c60248201527f50726f706572747920686173206e6f74206265656e206c6973746564000000006044820152606401610771565b336000908152600d6020526040908190209051612b2c908490615028565b9081526040519081900360200190205460ff1615612b8c5760405162461bcd60e51b815260206004820152601f60248201527f50726f706572792068617320616c7265616479206265656e206c6973746564006044820152606401610771565b33612b9b600780546001019055565b6000612ba660075490565b9050612bb28282614409565b612bbc8186614423565b6001600160a01b0382166000818152600e60209081526040808320859055848352600b8252808320805460ff19166001179055805161010081018252938352600f90915290208054829190612c10906153f7565b80601f0160208091040260200160405190810160405280929190818152602001828054612c3c906153f7565b8015612c895780601f10612c5e57610100808354040283529160200191612c89565b820191906000526020600020905b815481529060010190602001808311612c6c57829003601f168201915b50505091835250506001600160a01b038085166000818152600f60208181526040808420600181015490961682880152600286015490870152600385015460608701529290915290526004018054608090920191612ce6906153f7565b80601f0160208091040260200160405190810160405280929190818152602001828054612d12906153f7565b8015612d5f5780601f10612d3457610100808354040283529160200191612d5f565b820191906000526020600020905b815481529060010190602001808311612d4257829003601f168201915b50505091835250506001600160a01b0384166000818152600e60209081526040808320548286015261dead81860152928252600f9052206005018054606090920191612daa906153f7565b80601f0160208091040260200160405190810160405280929190818152602001828054612dd6906153f7565b8015612e235780601f10612df857610100808354040283529160200191612e23565b820191906000526020600020905b815481529060010190602001808311612e0657829003601f168201915b5050509190925250506001600160a01b0383166000908152600e6020908152604080832054835260128252909120825180519192612e669284929091019061498a565b506020828101516001830180546001600160a01b0319166001600160a01b03909216919091179055604083015160028301556060830151600383015560808301518051612eb9926004850192019061498a565b5060a0820151600582015560c08201516006820180546001600160a01b0319166001600160a01b0390921691909117905560e08201518051612f0591600784019160209091019061498a565b50503360009081526013602090815260408083208151610100810183526001600160a01b0388168552600f909352922080549293509091829190612f48906153f7565b80601f0160208091040260200160405190810160405280929190818152602001828054612f74906153f7565b8015612fc15780601f10612f9657610100808354040283529160200191612fc1565b820191906000526020600020905b815481529060010190602001808311612fa457829003601f168201915b50505091835250506001600160a01b038086166000818152600f6020818152604080842060018101549096168288015260028601549087015260038501546060870152929091529052600401805460809092019161301e906153f7565b80601f016020809104026020016040519081016040528092919081815260200182805461304a906153f7565b80156130975780601f1061306c57610100808354040283529160200191613097565b820191906000526020600020905b81548152906001019060200180831161307a57829003601f168201915b50505091835250506001600160a01b0385166000818152600e60209081526040808320548286015261dead81860152928252600f90522060050180546060909201916130e2906153f7565b80601f016020809104026020016040519081016040528092919081815260200182805461310e906153f7565b801561315b5780601f106131305761010080835404028352916020019161315b565b820191906000526020600020905b81548152906001019060200180831161313e57829003601f168201915b50505091909252505081546001810183556000928352602092839020825180519394600890930290910192613193928492019061498a565b506020828101516001830180546001600160a01b0319166001600160a01b039092169190911790556040830151600283015560608301516003830155608083015180516131e6926004850192019061498a565b5060a0820151600582015560c08201516006820180546001600160a01b0319166001600160a01b0390921691909117905560e0820151805161323291600784019160209091019061498a565b505060408051610100810182526001600160a01b0385166000908152600f60205291909120805460149350829190613269906153f7565b80601f0160208091040260200160405190810160405280929190818152602001828054613295906153f7565b80156132e25780601f106132b7576101008083540402835291602001916132e2565b820191906000526020600020905b8154815290600101906020018083116132c557829003601f168201915b50505091835250506001600160a01b038086166000818152600f6020818152604080842060018101549096168288015260028601549087015260038501546060870152929091529052600401805460809092019161333f906153f7565b80601f016020809104026020016040519081016040528092919081815260200182805461336b906153f7565b80156133b85780601f1061338d576101008083540402835291602001916133b8565b820191906000526020600020905b81548152906001019060200180831161339b57829003601f168201915b50505091835250506001600160a01b0385166000818152600e60209081526040808320548286015261dead81860152928252600f9052206005018054606090920191613403906153f7565b80601f016020809104026020016040519081016040528092919081815260200182805461342f906153f7565b801561347c5780601f106134515761010080835404028352916020019161347c565b820191906000526020600020905b81548152906001019060200180831161345f57829003601f168201915b505050919092525050815460018101835560009283526020928390208251805193946008909302909101926134b4928492019061498a565b506020828101516001830180546001600160a01b0319166001600160a01b03909216919091179055604083015160028301556060830151600383015560808301518051613507926004850192019061498a565b5060a0820151600582015560c08201516006820180546001600160a01b0319166001600160a01b0390921691909117905560e0820151805161355391600784019160209091019061498a565b5050336000908152600d602052604090819020905160019250613577908790615028565b9081526040805160209281900383018120805460ff1916941515949094179093556001600160a01b0385166000908152600f90925290207f6d5ac0ab1c8daf408764eb236c9d548f27b5a4e2548c80df743b5cb319162b79916135e391879160049091019089906152b7565b60405180910390a1949350505050565b6000828152600b602052604090205460ff166136515760405162461bcd60e51b815260206004820152601d60248201527f50726f70733a2050726f7065727920646f6573206e6f742065786973740000006044820152606401610771565b6000828152601260205260409020600101546001600160a01b03163314156136ca5760405162461bcd60e51b815260206004820152602660248201527f50726f70733a2050726f706572747920616c72656164792062656c6f6e677320604482015265746f20796f7560d01b6064820152608401610771565b6000828152601260205260409020600601546001600160a01b03163314156137435760405162461bcd60e51b815260206004820152602660248201527f50726f70733a2050726f706572747920616c72656164792062656c6f6e677320604482015265746f20796f7560d01b6064820152608401610771565b60008281526012602052604090819020600201549051600990613767908490615028565b908152604051908190036020018120546370a0823160e01b82523360048301526001600160a01b0316906370a082319060240160206040518083038186803b1580156137b257600080fd5b505afa1580156137c6573d6000803e3d6000fd5b505050506040513d601f19601f820116820180604052508101906137ea9190614ed9565b10156138385760405162461bcd60e51b815260206004820152601260248201527f496e73756666696369656e742046756e647300000000000000000000000000006044820152606401610771565b6009816040516138489190615028565b908152604080516020928190038301812054600086815260129094529190922060018101546002909101546323b872dd60e01b84523360048501526001600160a01b039182166024850152604484015216906323b872dd90606401602060405180830381600087803b1580156138bd57600080fd5b505af11580156138d1573d6000803e3d6000fd5b505050506040513d601f19601f820116820180604052508101906138f59190614cd3565b6139415760405162461bcd60e51b815260206004820152601e60248201527f50726f7073203a2043616e6e6f7420706572666f726d207061796d656e7400006044820152606401610771565b600082815260126020526040902060010154613967906001600160a01b03163384613fe6565b60008281526012602081815260408084206006810180546001600160a01b031916339081179091558552601583528185208251610120810190935294879052929091528154909182916139b9906153f7565b80601f01602080910402602001604051908101604052809291908181526020018280546139e5906153f7565b8015613a325780601f10613a0757610100808354040283529160200191613a32565b820191906000526020600020905b815481529060010190602001808311613a1557829003601f168201915b5050509183525050600085815260126020818152604080842060018101546001600160a01b031683870152600281015491860191909152600381015460608601524260808601529288905252600401805460a090920191613a92906153f7565b80601f0160208091040260200160405190810160405280929190818152602001828054613abe906153f7565b8015613b0b5780601f10613ae057610100808354040283529160200191613b0b565b820191906000526020600020905b815481529060010190602001808311613aee57829003601f168201915b50505091835250506000858152601260208181526040808420600581015483870152339186019190915292889052526007018054606090920191613b4e906153f7565b80601f0160208091040260200160405190810160405280929190818152602001828054613b7a906153f7565b8015613bc75780601f10613b9c57610100808354040283529160200191613bc7565b820191906000526020600020905b815481529060010190602001808311613baa57829003601f168201915b50505091909252505081546001810183556000928352602092839020825180519394600990930290910192613bff928492019061498a565b506020828101516001830180546001600160a01b0319166001600160a01b0390921691909117905560408301516002830155606083015160038301556080830151600483015560a08301518051613c5c926005850192019061498a565b5060c0820151600682015560e08201516007820180546001600160a01b0319166001600160a01b039092169190911790556101008201518051613ca991600884019160209091019061498a565b50505060005b6000838152601260209081526040808320600101546001600160a01b031683526013909152902054811015613db4576000838152601260209081526040808320600101546001600160a01b0316835260139091529020805484919083908110613d1a57613d1a61548d565b9060005260206000209060080201600501541415613da4576000838152601260209081526040808320600101546001600160a01b0316835260139091529020805433919083908110613d6e57613d6e61548d565b906000526020600020906008020160060160006101000a8154816001600160a01b0302191690836001600160a01b031602179055505b613dad81615432565b9050613caf565b5060005b601454811015610cf7578260148281548110613dd657613dd661548d565b9060005260206000209060080201600501541415613e38573360148281548110613e0257613e0261548d565b906000526020600020906008020160060160006101000a8154816001600160a01b0302191690836001600160a01b031602179055505b613e4181615432565b9050613db8565b6000600982604051613e5a9190615028565b908152604051908190036020018120546370a0823160e01b82523060048301526001600160a01b0316906370a0823190602401610d42565b6000818152600260205260409020546001600160a01b0316613ef65760405162461bcd60e51b815260206004820152601860248201527f4552433732313a20696e76616c696420746f6b656e20494400000000000000006044820152606401610771565b50565b600081815260046020526040902080546001600160a01b0319166001600160a01b0384169081179091558190613f2e82611fac565b6001600160a01b03167f8c5be1e5ebec7d5bd14f71427d1e84f3dd0314c0f7b2291e5b200ac8c7c3b92560405160405180910390a45050565b600080613f7383611fac565b9050806001600160a01b0316846001600160a01b03161480613fba57506001600160a01b0380821660009081526005602090815260408083209388168352929052205460ff165b80613fde5750836001600160a01b0316613fd384610ba3565b6001600160a01b0316145b949350505050565b826001600160a01b0316613ff982611fac565b6001600160a01b0316146140755760405162461bcd60e51b815260206004820152602560248201527f4552433732313a207472616e736665722066726f6d20696e636f72726563742060448201527f6f776e65720000000000000000000000000000000000000000000000000000006064820152608401610771565b6001600160a01b0382166140f05760405162461bcd60e51b8152602060048201526024808201527f4552433732313a207472616e7366657220746f20746865207a65726f2061646460448201527f72657373000000000000000000000000000000000000000000000000000000006064820152608401610771565b6140fb600082613ef9565b6001600160a01b03831660009081526003602052604081208054600192906141249084906153b4565b90915550506001600160a01b0382166000908152600360205260408120805460019290614152908490615388565b909155505060008181526002602052604080822080546001600160a01b0319166001600160a01b0386811691821790925591518493918716917fddf252ad1be2c89b69c2b068fc378daa952ba7f163c4a11628f55a4df523b3ef91a4505050565b816001600160a01b0316836001600160a01b031614156142155760405162461bcd60e51b815260206004820152601960248201527f4552433732313a20617070726f766520746f2063616c6c6572000000000000006044820152606401610771565b6001600160a01b03838116600081815260056020908152604080832094871680845294825291829020805460ff191686151590811790915591519182527f17307eab39ab6107e8899845ad3d59bd9653f200f220920489ca2b5937696c31910160405180910390a3505050565b61428d848484613fe6565b614299848484846144cc565b6123ea5760405162461bcd60e51b815260206004820152603260248201527f4552433732313a207472616e7366657220746f206e6f6e20455243373231526560448201527131b2b4bb32b91034b6b83632b6b2b73a32b960711b6064820152608401610771565b606061430b82613e92565b60008281526006602052604081208054614324906153f7565b80601f0160208091040260200160405190810160405280929190818152602001828054614350906153f7565b801561439d5780601f106143725761010080835404028352916020019161439d565b820191906000526020600020905b81548152906001019060200180831161438057829003601f168201915b5050505050905060006143bb60408051602081019091526000815290565b90508051600014156143ce575092915050565b8151156144005780826040516020016143e8929190615044565b60405160208183030381529060405292505050919050565b613fde84614624565b61235e828260405180602001604052806000815250614698565b6000828152600260205260409020546001600160a01b03166144ad5760405162461bcd60e51b815260206004820152602e60248201527f45524337323155524953746f726167653a2055524920736574206f66206e6f6e60448201527f6578697374656e7420746f6b656e0000000000000000000000000000000000006064820152608401610771565b60008281526006602090815260409091208251610cf79284019061498a565b60006001600160a01b0384163b1561461957604051630a85bd0160e11b81526001600160a01b0385169063150b7a0290614510903390899088908890600401615073565b602060405180830381600087803b15801561452a57600080fd5b505af192505050801561455a575060408051601f3d908101601f1916820190925261455791810190614d0d565b60015b6145ff573d808015614588576040519150601f19603f3d011682016040523d82523d6000602084013e61458d565b606091505b5080516145f75760405162461bcd60e51b815260206004820152603260248201527f4552433732313a207472616e7366657220746f206e6f6e20455243373231526560448201527131b2b4bb32b91034b6b83632b6b2b73a32b960711b6064820152608401610771565b805181602001fd5b6001600160e01b031916630a85bd0160e11b149050613fde565b506001949350505050565b606061462f82613e92565b600061464660408051602081019091526000815290565b905060008151116146665760405180602001604052806000815250614691565b8061467084614716565b604051602001614681929190615044565b6040516020818303038152906040525b9392505050565b6146a28383614848565b6146af60008484846144cc565b610cf75760405162461bcd60e51b815260206004820152603260248201527f4552433732313a207472616e7366657220746f206e6f6e20455243373231526560448201527131b2b4bb32b91034b6b83632b6b2b73a32b960711b6064820152608401610771565b60608161475657505060408051808201909152600181527f3000000000000000000000000000000000000000000000000000000000000000602082015290565b8160005b8115614780578061476a81615432565b91506147799050600a836153a0565b915061475a565b60008167ffffffffffffffff81111561479b5761479b6154a3565b6040519080825280601f01601f1916602001820160405280156147c5576020820181803683370190505b5090505b8415613fde576147da6001836153b4565b91506147e7600a8661544d565b6147f2906030615388565b60f81b8183815181106148075761480761548d565b60200101907effffffffffffffffffffffffffffffffffffffffffffffffffffffffffffff1916908160001a905350614841600a866153a0565b94506147c9565b6001600160a01b03821661489e5760405162461bcd60e51b815260206004820181905260248201527f4552433732313a206d696e7420746f20746865207a65726f20616464726573736044820152606401610771565b6000818152600260205260409020546001600160a01b0316156149035760405162461bcd60e51b815260206004820152601c60248201527f4552433732313a20746f6b656e20616c7265616479206d696e746564000000006044820152606401610771565b6001600160a01b038216600090815260036020526040812080546001929061492c908490615388565b909155505060008181526002602052604080822080546001600160a01b0319166001600160a01b03861690811790915590518392907fddf252ad1be2c89b69c2b068fc378daa952ba7f163c4a11628f55a4df523b3ef908290a45050565b828054614996906153f7565b90600052602060002090601f0160209004810192826149b857600085556149fe565b82601f106149d157805160ff19168380011785556149fe565b828001600101855582156149fe579182015b828111156149fe5782518255916020019190600101906149e3565b50614a0a929150614a0e565b5090565b5b80821115614a0a5760008155600101614a0f565b600067ffffffffffffffff80841115614a3e57614a3e6154a3565b604051601f8501601f19908116603f01168101908282118183101715614a6657614a666154a3565b81604052809350858152868686011115614a7f57600080fd5b858560208301376000602087830101525050509392505050565b80356001600160a01b0381168114614ab057600080fd5b919050565b60008083601f840112614ac757600080fd5b50813567ffffffffffffffff811115614adf57600080fd5b602083019150836020828501011115614af757600080fd5b9250929050565b600082601f830112614b0f57600080fd5b61469183833560208501614a23565b600060208284031215614b3057600080fd5b61469182614a99565b60008060408385031215614b4c57600080fd5b614b5583614a99565b9150614b6360208401614a99565b90509250929050565b600080600060608486031215614b8157600080fd5b614b8a84614a99565b9250614b9860208501614a99565b9150604084013590509250925092565b60008060008060808587031215614bbe57600080fd5b614bc785614a99565b9350614bd560208601614a99565b925060408501359150606085013567ffffffffffffffff811115614bf857600080fd5b8501601f81018713614c0957600080fd5b614c1887823560208401614a23565b91505092959194509250565b60008060408385031215614c3757600080fd5b614c4083614a99565b91506020830135614c50816154b9565b809150509250929050565b60008060408385031215614c6e57600080fd5b614c7783614a99565b9150602083013567ffffffffffffffff811115614c9357600080fd5b614c9f85828601614afe565b9150509250929050565b60008060408385031215614cbc57600080fd5b614cc583614a99565b946020939093013593505050565b600060208284031215614ce557600080fd5b8151614691816154b9565b600060208284031215614d0257600080fd5b8135614691816154c7565b600060208284031215614d1f57600080fd5b8151614691816154c7565b600080600080600080600060a0888a031215614d4557600080fd5b873567ffffffffffffffff80821115614d5d57600080fd5b614d698b838c01614ab5565b909950975060208a0135965060408a0135915080821115614d8957600080fd5b614d958b838c01614ab5565b909650945060608a0135915080821115614dae57600080fd5b614dba8b838c01614afe565b935060808a0135915080821115614dd057600080fd5b50614ddd8a828b01614afe565b91505092959891949750929550565b600060208284031215614dfe57600080fd5b813567ffffffffffffffff811115614e1557600080fd5b613fde84828501614afe565b60008060408385031215614e3457600080fd5b823567ffffffffffffffff811115614e4b57600080fd5b614e5785828601614afe565b925050614b6360208401614a99565b60008060408385031215614e7957600080fd5b823567ffffffffffffffff80821115614e9157600080fd5b614e9d86838701614afe565b93506020850135915080821115614eb357600080fd5b50614c9f85828601614afe565b600060208284031215614ed257600080fd5b5035919050565b600060208284031215614eeb57600080fd5b5051919050565b60008060408385031215614f0557600080fd5b82359150602083013567ffffffffffffffff811115614c9357600080fd5b600081518084526020808501945080840160005b83811015614f5c5781516001600160a01b031687529582019590820190600101614f37565b509495945050505050565b600081518084526020808501808196508360051b8101915082860160005b85811015614faf578284038952614f9d848351614fec565b98850198935090840190600101614f85565b5091979650505050505050565b600081518084526020808501945080840160005b83811015614f5c57815187529582019590820190600101614fd0565b600081518084526150048160208601602086016153cb565b601f01601f19169290920160200192915050565b8183823760009101908152919050565b6000825161503a8184602087016153cb565b9190910192915050565b600083516150568184602088016153cb565b83519083019061506a8183602088016153cb565b01949350505050565b60006001600160a01b038087168352808616602084015250836040830152608060608301526150a56080830184614fec565b9695505050505050565b60006101008083526150c38184018c614f67565b905082810360208401526150d7818b614f23565b905082810360408401526150eb818a614fbc565b905082810360608401526150ff8189614fbc565b905082810360808401526151138188614fbc565b905082810360a08401526151278187614f67565b905082810360c084015261513b8186614f67565b905082810360e084015261514f8185614f23565b9b9a5050505050505050505050565b6020815260006146916020830184614fec565b60c08152600061518460c0830189614fec565b6001600160a01b038816602084015286604084015285606084015282810360808401526151b18186614fec565b905082810360a08401526151c58185614fec565b9998505050505050505050565b60006101008083526151e68184018c614fec565b90506001600160a01b03808b16602085015289604085015288606085015283820360808501526152168289614fec565b91508660a085015280861660c08501525082810360e084015261514f8185614fec565b600061012080835261524d8184018d614fec565b90506001600160a01b03808c1660208501528a604085015289606085015288608085015283820360a08501526152838289614fec565b91508660c085015280861660e0850152508281036101008401526152a78185614fec565b9c9b505050505050505050505050565b6060815260006152ca6060830186614fec565b6020838203818501526000865481600182811c9150808316806152ee57607f831692505b85831081141561530c57634e487b7160e01b85526022600452602485fd5b828752602087019650808015615329576001811461533a57615365565b60ff19851688528688019550615365565b60008c81526020902060005b8581101561535f5781548a820152908401908801615346565b89019650505b5050505050848103604086015261537c8187614fec565b98975050505050505050565b6000821982111561539b5761539b615461565b500190565b6000826153af576153af615477565b500490565b6000828210156153c6576153c6615461565b500390565b60005b838110156153e65781810151838201526020016153ce565b838111156123ea5750506000910152565b600181811c9082168061540b57607f821691505b6020821081141561542c57634e487b7160e01b600052602260045260246000fd5b50919050565b600060001982141561544657615446615461565b5060010190565b60008261545c5761545c615477565b500690565b634e487b7160e01b600052601160045260246000fd5b634e487b7160e01b600052601260045260246000fd5b634e487b7160e01b600052603260045260246000fd5b634e487b7160e01b600052604160045260246000fd5b8015158114613ef657600080fd5b6001600160e01b031981168114613ef657600080fdfea26469706673582212201a8c479e3326d24ac2cf204912e5553790b72cb1ced4c2e7e221142cdd4b0ae364736f6c63430008070033",
  "linkReferences": {},
  "deployedLinkReferences": {}
}