{
  "_format": "hh-sol-artifact-1",
  "contractName": "SavingVault",
  "sourceName": "contracts/Vault.sol",
  "abi": [
    {
      "anonymous": false,
      "inputs": [
        {
          "indexed": false,
          "internalType": "address",
          "name": "",
          "type": "address"
        },
        {
          "indexed": false,
          "internalType": "uint256",
          "name": "",
          "type": "uint256"
        }
      ],
      "name": "addedPropertyToVault",
      "type": "event"
    },
    {
      "anonymous": false,
      "inputs": [
        {
          "indexed": false,
          "internalType": "uint256",
          "name": "amount",
          "type": "uint256"
        }
      ],
      "name": "deposit",
      "type": "event"
    },
    {
      "anonymous": false,
      "inputs": [
        {
          "indexed": false,
          "internalType": "address",
          "name": "owner",
          "type": "address"
        },
        {
          "indexed": false,
          "internalType": "uint256",
          "name": "amount",
          "type": "uint256"
        }
      ],
      "name": "withdrawal",
      "type": "event"
    },
    {
      "inputs": [
        {
          "internalType": "uint256",
          "name": "_savingId",
          "type": "uint256"
        },
        {
          "internalType": "uint256",
          "name": "_amount",
          "type": "uint256"
        }
      ],
      "name": "Deposit",
      "outputs": [
        {
          "components": [
            {
              "internalType": "address",
              "name": "owner",
              "type": "address"
            },
            {
              "internalType": "uint256",
              "name": "tokenId",
              "type": "uint256"
            },
            {
              "internalType": "address",
              "name": "tokenAddress",
              "type": "address"
            },
            {
              "internalType": "uint256",
              "name": "propertyPrice",
              "type": "uint256"
            },
            {
              "internalType": "uint256",
              "name": "amountSaved",
              "type": "uint256"
            },
            {
              "components": [
                {
                  "internalType": "address",
                  "name": "owner",
                  "type": "address"
                },
                {
                  "internalType": "uint256",
                  "name": "amount",
                  "type": "uint256"
                },
                {
                  "internalType": "uint256",
                  "name": "date",
                  "type": "uint256"
                }
              ],
              "internalType": "struct Transaction[]",
              "name": "history",
              "type": "tuple[]"
            },
            {
              "internalType": "uint256",
              "name": "transactionCount",
              "type": "uint256"
            }
          ],
          "internalType": "struct PropertyToSaveFor",
          "name": "",
          "type": "tuple"
        }
      ],
      "stateMutability": "nonpayable",
      "type": "function"
    },
    {
      "inputs": [
        {
          "internalType": "uint256",
          "name": "_savingId",
          "type": "uint256"
        }
      ],
      "name": "WithdrawSavings",
      "outputs": [],
      "stateMutability": "nonpayable",
      "type": "function"
    },
    {
      "inputs": [
        {
          "internalType": "address",
          "name": "_tokenAddress",
          "type": "address"
        }
      ],
      "name": "_contractBalance",
      "outputs": [
        {
          "internalType": "uint256",
          "name": "",
          "type": "uint256"
        }
      ],
      "stateMutability": "view",
      "type": "function"
    },
    {
      "inputs": [
        {
          "internalType": "address",
          "name": "_tokenAddress",
          "type": "address"
        }
      ],
      "name": "_userBalance",
      "outputs": [
        {
          "internalType": "uint256",
          "name": "",
          "type": "uint256"
        }
      ],
      "stateMutability": "view",
      "type": "function"
    },
    {
      "inputs": [
        {
          "internalType": "uint256",
          "name": "_tokenId",
          "type": "uint256"
        },
        {
          "internalType": "uint256",
          "name": "_propertyPrice",
          "type": "uint256"
        },
        {
          "internalType": "address",
          "name": "_tokenAddress",
          "type": "address"
        }
      ],
      "name": "addProperty",
      "outputs": [],
      "stateMutability": "nonpayable",
      "type": "function"
    },
    {
      "inputs": [],
      "name": "allOwnerSavings",
      "outputs": [
        {
          "components": [
            {
              "internalType": "address",
              "name": "owner",
              "type": "address"
            },
            {
              "internalType": "uint256",
              "name": "tokenId",
              "type": "uint256"
            },
            {
              "internalType": "address",
              "name": "tokenAddress",
              "type": "address"
            },
            {
              "internalType": "uint256",
              "name": "propertyPrice",
              "type": "uint256"
            },
            {
              "internalType": "uint256",
              "name": "amountSaved",
              "type": "uint256"
            },
            {
              "components": [
                {
                  "internalType": "address",
                  "name": "owner",
                  "type": "address"
                },
                {
                  "internalType": "uint256",
                  "name": "amount",
                  "type": "uint256"
                },
                {
                  "internalType": "uint256",
                  "name": "date",
                  "type": "uint256"
                }
              ],
              "internalType": "struct Transaction[]",
              "name": "history",
              "type": "tuple[]"
            },
            {
              "internalType": "uint256",
              "name": "transactionCount",
              "type": "uint256"
            }
          ],
          "internalType": "struct PropertyToSaveFor[]",
          "name": "",
          "type": "tuple[]"
        }
      ],
      "stateMutability": "view",
      "type": "function"
    }
  ],
  "bytecode": "0x608060405234801561001057600080fd5b50610df0806100206000396000f3fe608060405234801561001057600080fd5b50600436106100725760003560e01c8063a79f2a7311610050578063a79f2a73146100d6578063d1a7919d146100eb578063d5e1607a146100fe57600080fd5b806335377e1b1461007757806349ed6cd814610095578063a3af609b146100b6575b600080fd5b61007f610111565b60405161008c9190610cd0565b60405180910390f35b6100a86100a3366004610b54565b6102ea565b60405190815260200161008c565b6100c96100c4366004610bca565b61036b565b60405161008c9190610d32565b6100e96100e4366004610bec565b6107b3565b005b6100e96100f9366004610b98565b610870565b6100a861010c366004610b54565b610b09565b336000908152602081905260408120546060918167ffffffffffffffff81111561013d5761013d610da4565b6040519080825280602002602001820160405280156101c057816020015b6101ad6040518060e0016040528060006001600160a01b031681526020016000815260200160006001600160a01b03168152602001600081526020016000815260200160608152602001600081525090565b81526020019060019003908161015b5790505b50905060005b828110156102e3573360009081526001602081815260408084208585528252808420815160e08101835281546001600160a01b039081168252948201548185015260028201549094168483015260038101546060850152600481015460808501526005810180548351818602810186019094528084529495919460a08701949192909184015b828210156102a1576000848152602090819020604080516060810182526003860290920180546001600160a01b031683526001808201548486015260029091015491830191909152908352909201910161024c565b5050505081526020016006820154815250508282815181106102c5576102c5610d8e565b602002602001018190525080806102db90610d5d565b9150506101c6565b5092915050565b6040516370a0823160e01b81523060048201526000906001600160a01b038316906370a08231906024015b60206040518083038186803b15801561032d57600080fd5b505afa158015610341573d6000803e3d6000fd5b505050506040513d601f19601f820116820180604052508101906103659190610bb1565b92915050565b6103bd6040518060e0016040528060006001600160a01b031681526020016000815260200160006001600160a01b03168152602001600081526020016000815260200160608152602001600081525090565b336000818152602081905260409020548491908211156104245760405162461bcd60e51b815260206004820152601a60248201527f536176696e6720706c616e20646f6573206e6f7420657869737400000000000060448201526064015b60405180910390fd5b33600090815260016020908152604080832088845290915290206003810154600482015411156104965760405162461bcd60e51b815260206004820152601b60248201527f736176696e677320697320636f6d706c65746520616c72656164790000000000604482015260640161041b565b600281015485906104af906001600160a01b0316610b09565b10156104fd5760405162461bcd60e51b815260206004820152601360248201527f496e737566666963656e742042616c616e636500000000000000000000000000604482015260640161041b565b60028101546040517f23b872dd000000000000000000000000000000000000000000000000000000008152336004820152306024820152604481018790526001600160a01b03909116906323b872dd90606401602060405180830381600087803b15801561056a57600080fd5b505af115801561057e573d6000803e3d6000fd5b505050506040513d601f19601f820116820180604052508101906105a29190610b76565b6105ee5760405162461bcd60e51b815260206004820152601260248201527f5472616e73666572206469736162626c65640000000000000000000000000000604482015260640161041b565b60006040518060600160405280336001600160a01b031681526020018781526020014281525090508582600401600082825461062a9190610d45565b909155505060058201805460018082018355600092835260208084208551600390940201805473ffffffffffffffffffffffffffffffffffffffff19166001600160a01b039094169390931783558401519082015560408301516002909101556006830180549161069a83610d5d565b90915550506040518681527fb6b55f256c3eb337f96418d59e773db6e805074f5e574a2bebb7d713940436199060200160405180910390a16040805160e08101825283546001600160a01b039081168252600185015460208084019190915260028601549091168284015260038501546060830152600485015460808301526005850180548451818402810184019095528085529293869360a086019391929160009084015b82821015610795576000848152602090819020604080516060810182526003860290920180546001600160a01b0316835260018082015484860152600290910154918301919091529083529092019101610740565b50505050815260200160068201548152505094505050505092915050565b336000908152602081905260408120805490826107cf83610d5d565b90915550336000818152600160208181526040808420868552825292839020805473ffffffffffffffffffffffffffffffffffffffff19908116861782559281018a9055600381018990556002810180549093166001600160a01b03891617909255825193845283018890529293507f04ddcb651a19f5559569890e7b07d0b8ef8125f3963428d46367ffb26e4c4700910160405180910390a15050505050565b336000818152602081905260409020548291908211156108d25760405162461bcd60e51b815260206004820152601a60248201527f536176696e6720706c616e20646f6573206e6f74206578697374000000000000604482015260640161041b565b336000908152600160209081526040808320868452909152902060038101546004820154146109695760405162461bcd60e51b815260206004820152602260248201527f43616e277420707572636861736520736176696e67277320696e636f6d706c6560448201527f7465000000000000000000000000000000000000000000000000000000000000606482015260840161041b565b60048101546002820154610985906001600160a01b03166102ea565b10156109d35760405162461bcd60e51b815260206004820181905260248201527f496e737566666963656e742042616c616e636520696e2020636f6e7472616374604482015260640161041b565b60028101546004808301546040517fa9059cbb000000000000000000000000000000000000000000000000000000008152339281019290925260248201526001600160a01b039091169063a9059cbb90604401602060405180830381600087803b158015610a4057600080fd5b505af1158015610a54573d6000803e3d6000fd5b505050506040513d601f19601f82011682018060405250810190610a789190610b76565b610ac45760405162461bcd60e51b815260206004820152601760248201527f4572726f72205472616e73666572696e67204173736574000000000000000000604482015260640161041b565b60048101546040805133815260208101929092527f5a6b26bafd3957bf06ea3b4915f51221953ed272573c779820e6e39df3e646cf910160405180910390a150505050565b6040516370a0823160e01b81523360048201526000906001600160a01b038316906370a0823190602401610315565b80356001600160a01b0381168114610b4f57600080fd5b919050565b600060208284031215610b6657600080fd5b610b6f82610b38565b9392505050565b600060208284031215610b8857600080fd5b81518015158114610b6f57600080fd5b600060208284031215610baa57600080fd5b5035919050565b600060208284031215610bc357600080fd5b5051919050565b60008060408385031215610bdd57600080fd5b50508035926020909101359150565b600080600060608486031215610c0157600080fd5b8335925060208401359150610c1860408501610b38565b90509250925092565b600060e083016001600160a01b0380845116855260208085015181870152604082818701511681880152606080870151818901526080870151608089015260a087015160e060a08a01528581518088526101008b0191508583019750600092505b80831015610cb5578751805188168352868101518784015285015185830152968501966001929092019190830190610c82565b5060c089015160c08b01528097505050505050505092915050565b6000602080830181845280855180835260408601915060408160051b870101925083870160005b82811015610d2557603f19888603018452610d13858351610c21565b94509285019290850190600101610cf7565b5092979650505050505050565b602081526000610b6f6020830184610c21565b60008219821115610d5857610d58610d78565b500190565b6000600019821415610d7157610d71610d78565b5060010190565b634e487b7160e01b600052601160045260246000fd5b634e487b7160e01b600052603260045260246000fd5b634e487b7160e01b600052604160045260246000fdfea2646970667358221220f9bd7fa2835cd60a0b7c46d4db6fedef9225ca4a83e73888df7600f6cf74034f64736f6c63430008070033",
  "linkReferences": {},
  "deployedLinkReferences": {}
}